:020000040800F2
:1000000000500020E16800082B0700082D070008B9
:100010002F07000831070008330700080000000020
:10002000000000000000000000000000C1590008AE
:100030003507000800000000615A0008A55A0008B2
:100040002969000829690008296900082969000848
:100050002969000829690008296900082969000838
:100060002969000829690008296900082969000828
:100070002969000829690008296900082969000818
:100080002969000829690008296900082969000808
:10009000390700082969000829690008296900084A
:1000A000296900084907000829690008296900082A
:1000B00029690008296900082969000829690008D8
:1000C00029690008296900082969000829690008C8
:1000D00029690008296900082969000829690008B8
:1000E0002969000829690008296900080000000042
:1000F0000000000000000000000000000000000000
:0C01000000000000000000005FF808F1A3
:100110000348044B834202D0034B03B11847704796
:100120008001002080010020000000000548064BEF
:100130001B1AD90F01EBA301491002D0034B03B1E5
:100140001847704780010020800100200000000057
:1001500010B5064C237843B9FFF7DAFF044B13B10F
:100160000448AFF300800123237010BD80010020FC
:1001700000000000A069000808B5054B1BB1054947
:100180000548AFF30080BDE80840FFF7CFBF00BFD0
:100190000000000084010020A069000808B5026882
:1001A000034B9A4200D008BD02F028FDFBE700BFD8
:1001B000002C014072B6FEE700B595B02822002160
:1001C0000DEB020006F0E4FB002305930693079372
:1001D00008930993019302930393049301220A92D3
:1001E0004FF480330B930E920222119212934FF42C
:1001F000801313930AA802F03DFDD0B90F23059395
:1002000002230693002307934FF480620892099318
:10021000012105A802F060FF68B9102301934FF493
:100220008003049301A803F051F830B915B05DF8CC
:1002300004FBFFF7BFFFFFF7BDFFFFF7BBFF08B5EC
:1002400002F0CAFCFFF7B8FF00F010F800F0B2F8B7
:1002500000F0CEF800F054F900F0CBF905F05CF9AD
:1002600000F08CF805F07AF9FEE7000030B589B0AF
:10027000002404940594069407941A4B9A6942F05A
:1002800020029A619A6902F020020192019A9A6909
:1002900042F008029A619A6902F008020292029AF8
:1002A0009A6942F004029A619B6903F00403039384
:1002B000039B0D4D22461021284603F0A1F901228F
:1002C0002021284603F09CF9302304930123059351
:1002D00006940223079304A9284603F083F809B083
:1002E00030BD00BF00100240000C014000B58BB0D3
:1002F00000F0A6FAEC46114C0FCCACE80F000FCC86
:10030000ACE80F0094E803008CE8030008230C4AD3
:100310000021084600F0EEF92821684600F07AFB3B
:100320004FF4FA7005F0B6F90823064A0A21084688
:1003300000F0E0F9C82005F0ADF9E7E7C86900086A
:10034000B8690008C069000808B5C82005F0A2F91E
:100350000823084A0021084600F0CCF94FF4FA704F
:1003600005F098F90823044A0A21084600F0C2F96A
:10037000EBE700BFC0690008B869000808B5074A84
:100380000021074805F010F9064B1860064A0021C5
:10039000064805F009F9064B186008BD206A0008F8
:1003A000ED020008A0010020FC69000849030008D4
:1003B0009C01002008B50B480B4B03600B4B4360BE
:1003C00000238360C3604FF4804202614361836114
:1003D000C361036203F010FB00B908BDFFF7EAFE3A
:1003E000FBE700BFF801002000540040A086010098
:1003F00008B50B480B4B03600B4B43600023836035
:10040000C3604FF48042026143618361C361036250
:1004100003F0F2FA00B908BDFFF7CCFEFBE700BF1E
:10042000A401002000580040A086010010B588B04B
:10043000002304930593069307930368224A93428B
:1004400004D0224A93421FD008B010BD204CA369AB
:1004500043F00803A361A36903F008030093009B22
:10046000C0230493122305930323079304A9194877
:1004700002F0B8FFE36943F40013E361E36903F4B6
:1004800000130193019BDFE7114CA36943F00803BC
:10049000A361A36903F008030293029B4FF4406336
:1004A0000493122305930323079304A9094802F038
:1004B00099FFE36943F48003E361E36903F4800394
:1004C0000393039BC0E700BF005400400058004066
:1004D00000100240000C014000B585B08DF80C10F2
:1004E0008DF80D004FF6FF730093022303AA7821C5
:1004F000024803F05FFB05B05DF804FBF801002043
:1005000008B5642002F08CFB0021AE20FFF7E4FF69
:1005100000212020FFF7E0FF00211020FFF7DCFF83
:100520000021B020FFF7D8FF00210846FFF7D4FFD5
:1005300000211020FFF7D0FF0021C820FFF7CCFFDB
:1005400000214020FFF7C8FF00218120FFF7C4FFF2
:100550000021FF20FFF7C0FF0021A120FFF7BCFF13
:100560000021C820FFF7B8FF0021A620FFF7B4FF45
:100570000021A820FFF7B0FF00213F20FFF7ACFFCC
:100580000021A420FFF7A8FF0021D320FFF7A4FF3C
:1005900000210846FFF7A0FF0021D520FFF79CFFB0
:1005A0000021F020FFF798FF0021D920FFF794FFEA
:1005B00000212220FFF790FF0021DA20FFF78CFFB7
:1005C00000211220FFF788FF0021DB20FFF784FFC6
:1005D00000212020FFF780FF00218D20FFF77CFF06
:1005E00000211420FFF778FF0021AF20FFF774FFF0
:1005F00008BD38B500250AE040210020FFF76CFF58
:100600000134E4B214F0800FF6D00135EDB2072DBD
:100610000FD8A5F150000021C0B2FFF75DFF002107
:100620000846FFF759FF00211020FFF755FF00246F
:10063000E8E738BD10B50446A1F150000021C0B272
:10064000FFF74AFF2009002140F01000FFF744FFA8
:10065000002104F00F00FFF73FFF10BDF8B507467B
:100660000E46203AD5B210F0800F07D1102B09D0DA
:1006700031463846FFF7DEFF002433E00236F6B29B
:100680000027F3E731463846FFF7D4FF002408E09F
:1006900004EB05134021154AD05CFFF71DFF013420
:1006A000E4B2072CF4D9711CC9B23846FFF7C2FF77
:1006B000002409E004EB0513083340210B4AD05C09
:1006C000FFF70AFF0134E4B2072CF3D90CE005EB85
:1006D0004502074B03EB42034021185DFFF7FCFE88
:1006E0000134E4B2052CF2D9F8BD00BF446A000819
:1006F000347000082DE9F04104460E46174698462E
:10070000002501E00135EDB27A5D62B14346314624
:100710002046FFF7A3FF0834E4B2782CF2D9023662
:10072000F6B20024EEE7BDE8F081FEE7FEE7FEE763
:10073000FEE7FEE77047000008B5024801F094F8B4
:1007400008BD00BF7811002008B5024803F028FB5F
:1007500008BD00BF4C02002000B583B0114B9A6960
:1007600042F001029A619A6902F001020092009A35
:10077000DA6942F08052DA61DB6903F08053019359
:10078000019B00220F216FF0010002F085FF064A55
:10079000536823F0E06343F00073536003B05DF8E7
:1007A00004FB00BF001002400000014030B589B0DA
:1007B00004461E4B9A6942F400629A619B6903F4F5
:1007C00000630193019B02A903A802F061FD02F0FE
:1007D0004FFD174AA2FB00239B0C013B1548164A0C
:1007E000026040F2E732C26043600023036183602D
:1007F000836103F0CDFB054610B1284609B030BD3A
:100800000C4803F095FA05460028F6D1192002F0AD
:1008100053FF0F2C01D90125EFE7002221461920B3
:1008200002F03AFF054B1C60E7E700BF00100240F2
:1008300083DE1B434C020020002C0140640000209A
:1008400008B500220F49104805F0E4F970B90F49C6
:100850000D4805F0F6F960B90D490B4805F0F9FFB0
:1008600050B9094805F0F4F948B908BDFFF7A2FCF2
:10087000EDE7FFF79FFCEFE7FFF79CFCF1E7FFF7E1
:1008800099FCF2E734000020940200203C01002093
:100890005000002012230B800048704720000020E9
:1008A00004230B80004870471C0000200023934263
:1008B0001ED200B510E00CF1370C01F813C0000196
:1008C0004FEA430C0CF1010C4FF0000E01F80CE064
:1008D0000133DBB2934209D24FEA107CB0F1204FD2
:1008E000E9D20CF1300C01F813C0E8E75DF804FB25
:1008F0007047000038B50B4BD3F8E807D3F8EC4746
:10090000D3F8F037C01800D138BD074D082229466A
:10091000FFF7CCFF042205F110012046FFF7C6FFC8
:10092000F2E700BF00F0FF1F0200002008B51A2305
:100930000B80FFF7DFFF014808BD00BF000000206B
:1009400008B50A4628B90549054805F0D8FD034809
:1009500008BD0249024805F0D2FDF8E7580500201D
:100960005C72000810B50A46034C2146034805F0A6
:10097000C6FD204610BD00BF580500207472000857
:1009800008B50A4628B90549054805F0B8FD0348E9
:1009900008BD0249024805F0B2FDF8E758050020FD
:1009A0008872000808B50A4628B90549054805F0C7
:1009B000A6FD034808BD0249024805F0A0FDF8E77E
:1009C00058050020947200080020704700207047EE
:1009D00010B50146044C204605F04AFF204605F0BC
:1009E00066FF002010BD00BF9402002010B5064C29
:1009F00000220649204605F033FF0549204605F050
:100A000037FF002010BD00BF9402002058070020CF
:100A1000580B0020094BD3F8B832D3F814320BB17D
:100A20000120704710B5054C0A460146204605F0E6
:100A300017FF204605F022FF10BD00BF94020020E2
:100A4000022805D8DFE800F0050402000120704705
:100A50000220704702680E4B9A4200D0704700B5E2
:100A600083B003F5DA33DA6942F40002DA61DB6954
:100A700003F400030193019B00220521142002F0DE
:100A80000BFE142002F018FE03B05DF804FB00BF5B
:100A9000005C004008B500F52C71D0F8EC0205F0C0
:100AA000EFF808BD08B501EB810300EBC303D3F8F1
:100AB0007C21D0F8EC0205F010F908BD08B501EB77
:100AC000810300EBC303DA6BD0F8EC0205F04BF9BD
:100AD00008BD08B5D0F8EC0205F0ECF908BD10B57A
:100AE00004468368022B09D10121D4F8EC0205F0F9
:100AF000CAF9D4F8EC0205F09EF910BDFFF75AFBD5
:100B0000F2E7000010B50446D0F8EC0205F0BEF99B
:100B1000A36923B1024A136943F00603136110BDB0
:100B200000ED00E008B5D0F8EC0205F0B8F908BD1A
:100B300010B504461D48C0F8EC42C4F8C0021C4B76
:100B40000360082343600223836000238361C36141
:100B5000036200F023F930BB182300221146D4F8B9
:100B6000C00201F088F8582300228021D4F8C00286
:100B700001F081F8C02300228121D4F8C00201F0E5
:100B80007AF84FF4887300220121D4F8C00201F0F2
:100B900072F84FF4807300228221D4F8C00201F071
:100BA0006AF8002010BDFFF705FBD5E7781100209B
:100BB000005C004008B5D0F8C00200F077F9FFF7FC
:100BC0003FFF08BD08B594461A466346D0F8C002F8
:100BD00000F022FFFFF734FF08BD08B5D0F8C002CF
:100BE00000F058FFFFF72CFF08BD08B5D0F8C00291
:100BF00000F0CAFFFFF724FF08BD08B5D0F8C00217
:100C000000F0FEFFFFF71CFF08BDD0F8C03211F066
:100C1000800F08D101F07F0101EB810103EBC103DB
:100C200093F86A01704701F07F01013101EB810106
:100C300003EBC1039878704708B5D0F8C00200F004
:100C4000FFFDFFF7FDFE08BD08B5D0F8C00200F0BB
:100C500079FFFFF7F5FE08BD08B5D0F8C00200F037
:100C60004BFFFFF7EDFE08BD08B5D0F8C00200F05D
:100C700060FF08BD00487047580F0020704770475C
:100C800038B512F4804F44D00468B4F850309BB2A9
:100C900091F800C003EBCC03023304EB4304B4F837
:100CA0000044C4F309048B69A34228D31B1B8B6146
:100CB0008B697BB9056835F82C309BB223F48043EF
:100CC00023F0700383F4005343F4004343F08003A4
:100CD00025F82C3012F0400F0ED002680D7832F853
:100CE00025309BB223F4E04323F0700343F4004328
:100CF00043F0C00322F8253024B9204638BD002334
:100D00008B61D5E723460A894969006801F04CFFE9
:100D1000F3E70468B4F850309BB291F800C003EBDD
:100D2000CC03063304EB4304B4F80044C4F30904D1
:100D30008B69A3422FD31B1B8B618B697BB9056821
:100D400035F82C309BB223F4804323F0700383F4F6
:100D5000005343F4004343F0800325F82C3012F095
:100D6000400F0FD1026891F800C032F82C309BB2CE
:100D700023F4E04323F0700343F4004343F0C00343
:100D800022F82C30002CB8D023464A8949690068E3
:100D900001F00AFFB1E700238B61CEE770B586B0A2
:100DA000002800F08180044690F8A932EBB10323BB
:100DB00084F8A932206800F08AFF254655F8106BA8
:100DC000EC460FCDACE80F002B68CCF80030231DAB
:100DD0000ECB304600F06BFF054658B1022384F875
:100DE000A9320125284606B070BD80F8A832FFF769
:100DF00031FEDCE70021206800F073FF2B4616E08F
:100E00005A1C02EB820104EBC1010120487002EB85
:100E1000820104F8313004EBC1000021C17003EB02
:100E2000830004EBC0008163C1630164D3B26168D5
:100E30008B42E5D316E005EB850304EBC3030022E8
:100E400083F8692183F8685183F86B21C3F878210E
:100E5000C3F87C2105EB850304EBC303C3F88021B1
:100E60000135EDB2A942E6D8254655F8106BEC469F
:100E70000FCDACE80F002B68CCF80030231D0ECB53
:100E8000304600F030FF054620B1022384F8A93235
:100E90000125A7E7002384F82430012384F8A93230
:100EA000206801F07FFA9DE701259BE738B590F8AF
:100EB000A832012B11D00446012580F8A852006801
:100EC00000F0FCFE29462046FFF7D9FE206801F01D
:100ED00067FA002084F8A80238BD0220FCE770B54C
:100EE00005460C46164612F0400F00F00E810268CF
:100EF000B2F850309BB2097803EBC103023302EB26
:100F00004302B2F80024C2F30902A36993424ED906
:100F10009B1AA361A369002B66D16378002B49D18A
:100F20002B68B3F8502092B2134403EB0113B3F8CB
:100F30000424C2F30902A3F80424B3F804246FEADA
:100F400042426FEA524292B2A3F804242B686278BC
:100F5000002A3CD1B3F8502092B21344227803EB1C
:100F60000213B3F80C24C2F30902A3F80C24B3F85B
:100F70000C246FEA42426FEA524292B2A3F80C2468
:100F800021782846FFF79AFD16F4804F41D02A6851
:100F9000217832F821309BB223F4E04323F0700330
:100FA00043F4404343F0800322F8213031E0002332
:100FB000A361AFE7012BC9D12B68B3F8502092B2DF
:100FC000134403EB01130022A3F80424BEE7012A13
:100FD000D6D1B3F8502092B21344227803EB021317
:100FE0000022A3F80C24CBE716F4804F0DD028681C
:100FF00030F821309BB223F4E04323F0700343F434
:10100000404343F0800320F8213094F82430012B32
:1010100012D02A68217832F821309BB223F4E043C1
:1010200023F0400383F0300343F4004343F0800394
:1010300022F82130002070BD636913446361E369C5
:101040001344E361216A2369994224D3C91A2162B6
:101050006278002A44D12A68B2F8501089B20A4452
:10106000217802EB0112B2F80414C1F30901A2F8CD
:1010700004143E2B1BD9580913F01F0F00D101385F
:10108000B2F8041489B2800280B2014341F40041F5
:10109000A2F8041426E021B9002384F82430134672
:1010A000D6E7002384F8243023620B46D0E74BB9FF
:1010B000B2F804146FEA41416FEA514189B2A2F8D3
:1010C00004140FE0590813F0010F00D00131B2F8F9
:1010D000040480B2890289B20143A2F8041401E039
:1010E000012A06D09BB222896169286801F062F961
:1010F0008FE72A68B2F8501089B20A44217802EBCF
:10110000011299B2A2F80414ECE70268B2F8503068
:101110009BB2097803EBC103063302EB4302B2F83A
:101120000024C2F30902A36993424FD39B1AA3611F
:10113000A369002B67D16378002B4AD12B68B3F8E1
:10114000502092B2134403EB0113B3F80424C2F30A
:101150000902A3F80424B3F804246FEA42426FEAB8
:10116000524292B2A3F804242B686278002A3DD13F
:10117000B3F8502092B21344227803EB0213B3F871
:101180000C24C2F30902A3F80C24B3F80C246FEA70
:1011900042426FEA524292B2A3F80C2421782846C8
:1011A000FFF78CFC16F4804F7FF433AF2A68217868
:1011B00032F821309BB223F4E04323F0700343F470
:1011C000404343F0800322F8213022E70023A3614B
:1011D000AEE7012BC8D12B68B3F8502092B213446C
:1011E00003EB01130022A3F80424BDE7012AD5D1A3
:1011F000B3F8502092B21344227803EB021300227A
:10120000A3F80C24CAE716F4804F0DD1286830F8F3
:1012100021309BB223F4E04323F0700343F44043B6
:1012200043F0800320F8213094F82430012B7FF420
:10123000F0AE636913446361E3691344E361216AB7
:101240002369994224D3C91A21622A686178002946
:1012500043D1B2F8501089B20A44217802EB01124E
:10126000B2F80C14C1F30901A2F80C143E2B1BD9DF
:10127000580913F01F0F00D10138B2F80C1489B2CD
:10128000800280B2014341F40041A2F80C1426E030
:1012900021B9002384F824301346D6E700232362C3
:1012A00084F824300B46D0E74BB9B2F80C146FEA3F
:1012B00041416FEA514189B2A2F80C140FE059087C
:1012C00013F0010F00D00131B2F80C0480B2890292
:1012D00089B20143A2F80C1401E0012906D09BB2A7
:1012E00062896169286801F065F892E6B2F85010E9
:1012F00089B20A44217802EB011299B2A2F80C14C7
:10130000EDE72DE9F04105462868B0F8443013F4C4
:10131000004F00F09282B0F84440A3B214F00F04E2
:1013200040F0E28013F0100F6BD003889AB213F4F0
:10133000006F40F09D8012F4004FE5D0038823F049
:1013400070031B051B0D43F0800303802868B0F871
:1013500050309BB295F8682103EBC203063300EBD3
:101360004303B3F80034C3F30903C5F884318BB1E8
:10137000D5F87C1171B1B5F86E2101F015FCD5F8E6
:101380007C31D5F884211344C5F87C3100212846EE
:10139000FFF788FB2A68138899B213F4006FB3D162
:1013A00001F44051B1F5405FAED0B2F850309BB27D
:1013B0001A44B2F80C34C3F30903A2F80C34D5F87C
:1013C00078313E2B77D9590913F01F0F00D101391D
:1013D000B2F80C349BB2890289B20B4343F4004348
:1013E000A2F80C342A6813889BB223F4804323F0BC
:1013F000700383F4405343F4004343F080031380AD
:1014000082E703889BB223F4E14323F070036FEA81
:1014100043436FEA53439BB203802A68B2F85030CB
:101420009BB295F8281003EBC103023302EB430291
:10143000B2F80034C3F309036B64EA6B1A44EA633D
:1014400000212846FFF73AFB95F82430002B3FF4A3
:101450005BAF2B6C002B7FF457AF95F824302A68D4
:1014600043F08003A2F84C30002385F824304BE78A
:10147000B0F850309BB295F8682103EBC2030633F5
:1014800000EB4303B3F80034C3F30903C5F8843118
:10149000B5F86E2105F52C7101F086FB2A681388DA
:1014A00023F070031B051B0D43F0800313802846B7
:1014B000FFF7F0FA28E74BB9B2F80C346FEA434370
:1014C0006FEA53439BB2A2F80C348BE7590813F030
:1014D000010F00D00131B2F80C3498B28B029BB2EC
:1014E0000343A2F80C347DE730F824309EB213F4A5
:1014F000004F4CD116F0800F3FF406AF621C02EB98
:10150000820105EBC101286830F824309BB223F436
:10151000E14323F070036FEA43436FEA53439BB206
:1015200020F82430CB78012B00F0F28016F4807F75
:1015300040F07E812868B0F850309BB2621C02EB0C
:10154000820215F8326003EBC603023300EB43035B
:10155000B3F80034C3F3090304EB840205EBC202C1
:10156000126C9A4240F24C8104EB840705EBC707EA
:10157000D21A3A6404EB840205EBC202126C002A10
:1015800040F0458131462846FFF798FABCE630F82E
:10159000243023F070031B051B0D43F0800320F85B
:1015A000243004EB8401C90001F5B47105EB010896
:1015B00004EB840305EBC30393F87431002B42D191
:1015C0002868B0F850309BB204EB840205EBC202ED
:1015D00092F8682103EBC203063300EB4303B3F830
:1015E0000074C7F3090717BB04EB840305EBC303BF
:1015F000D3F884213A44C3F88421D3F87C213A44B7
:10160000C3F87C21D3F880313BB104EB840305EBB4
:10161000C303D3F878319F4275D204EB840305EB02
:10162000C30393F868112846FFF73CFA62E704EB1E
:10163000840105EBC1013B46B1F86E21D1F87C1164
:1016400001F0B2FAD0E704EB840305EBC30393F88F
:101650006B31022B35D0296804EB840205EBC20202
:1016600092F8680131F820309BB223F4E04323F074
:10167000700343F4004343F0C00321F8203028688E
:1016800092F8682130F8223013F4804F20D0B0F85F
:1016900050309BB203EBC203023300EB4303B3F8B9
:1016A0000074C7F30907002F9ED004EB840105EBFB
:1016B000C1013B46B1F87021D1F87C1101F074FAF8
:1016C00092E7324641462846FFF7DAFA07468BE7AB
:1016D000B0F850309BB203EBC203063300EB430378
:1016E000B3F80074C7F30907002F3FF47DAF04EB94
:1016F000840105EBC1013B46B1F87221D1F87C11A0
:1017000001F052FA70E74146286800F066FEF1E603
:1017100004EB840305EBC30300221A6493F834300E
:10172000FBB116F0400F37D04B781BBB2B68B3F8DA
:10173000502092B21344621C02EB820215F8322050
:1017400003EB0213B3F80424C2F30902A3F8042440
:10175000B3F804246FEA42426FEA524292B2A3F80D
:101760000424013404EB840415F834102846FFF7F0
:10177000A5F9C9E5012BF4D12B68B3F8502092B23A
:101780001344621C02EB820215F8322003EB0213B1
:101790000022A3F80424E4E72A68631C03EB830314
:1017A00005EBC3035B78D3B9B2F850309BB2134456
:1017B000621C02EB820215F8322003EB0213B3F82D
:1017C0000C24C2F30902A3F80C24B3F80C246FEA2A
:1017D00042426FEA524292B2A3F80C24C1E7012BB5
:1017E000BFD1B2F850309BB21344621C02EB8202AC
:1017F00015F8322003EB02130022A3F80C24B0E703
:1018000004EB840205EBC20200271764B2E604EB86
:10181000840205EBC202D66B1E44D663526C04EB05
:10182000840405EBC4041344636400F0D6FD6BE547
:1018300032462846FFF753FB66E50020BDE8F081FD
:1018400090F8A832012B0DD010B50446012380F882
:10185000A83280F82410006800F09CFD002084F875
:10186000A80210BD0220704710B584B0044600687D
:1018700000F09AFD10F4004F20D110F4806F21D1B8
:1018800010F4804F2FD110F4005F37D110F4805F37
:101890003ED110F4006F40F0878010F4007F40F0DC
:1018A000AE8010F4807F27D02268B2F844309BB21B
:1018B00023F480739BB2A2F844301DE02046FFF76A
:1018C00020FD19E02268B2F844309BB223F4806313
:1018D0009BB2A2F844302046FFF701F900212046D0
:1018E000FFF7AEFF08E02268B2F844309BB223F461
:1018F00080439BB2A2F8443004B010BD2268B2F815
:1019000044309BB223F400539BB2A2F84430F3E777
:101910002268B2F840309BB223F004039BB2A2F8D5
:1019200040302268B2F840309BB223F008039BB2EB
:10193000A2F840302046FFF7F5F82268B2F84430AC
:101940009BB223F480539BB2A2F84430D4E72268C0
:1019500032F8231004AA02EB430222F8101C0133D0
:10196000DBB2072BF3D92268B2F840309BB243F0C8
:101970000103A2F840302268B2F840309BB223F055
:1019800001039BB2A2F840302368B3F8442012F45C
:10199000806FF9D0B3F8442092B222F4806292B200
:1019A000A3F8442000230BE00023DAE7226804A90F
:1019B00001EB430131F8101C22F823100133DBB294
:1019C000072BF3D92268B2F840309BB243F00803EA
:1019D000A2F840302268B2F844309BB223F400638E
:1019E0009BB2A2F844302268B2F840309BB243F078
:1019F0000403A2F840302046FFF784F87CE7226811
:101A0000B2F844309BB223F400739BB2A2F8443086
:101A10002046FFF75EF86FE710B50446084611F060
:101A2000800F25D101F0070C0CEB8C01C90001F5EA
:101A3000B47E04EB0E010CEB8C0C04EBCC0C4FF0E1
:101A4000000E8CF869E100F0070008700A61CB70A5
:101A5000022B1AD094F8A832012B19D0012384F854
:101A6000A832206800F050F9002084F8A80210BDC8
:101A700001F0070C0CF1010C0CEB8C0104EBC10123
:101A80004FF0010E81F801E0DDE700230B71E1E783
:101A90000220ECE710B504460B4611F0800F1FD171
:101AA00001F0070202EB8201C90001F5B4710144A3
:101AB00002EB820200EBC202002082F8690103F00F
:101AC00007030B7094F8A832012B13D0012384F87C
:101AD000A832206800F0FDFA002084F8A80210BDAA
:101AE00001F00702013202EB820100EBC10101208B
:101AF0004870E4E70220F2E710B501F0070C0CEBA8
:101B00008C01C90001F5B4710CEB8C0E00EBCE0E0C
:101B1000CEF87C21CEF880310024CEF884418EF8B6
:101B200069418EF868C10144006800F056FC204607
:101B300010BD01F0070101EB810100EBC100D0F8FD
:101B40008401704738B501F0070404F1010C0CEB77
:101B50008C0104EB840E00EBCE0ECEF83C20CEF8C8
:101B6000403001228EF84C20CEF848300025CEF8C7
:101B7000445000EBC1035A7000F831401946006828
:101B800000F02BFC284638BD38B501F00705426847
:101B9000954231D804460B4611F0800F1ED101EB5F
:101BA0008101C90001F5B471014403EB830300EB2B
:101BB000C303002283F8692101238B700D7094F810
:101BC000A832012B1AD0012384F8A832206800F033
:101BD0006BFB5DB1002084F8A80238BD6B1C03EBE1
:101BE000830100EBC10101224A70E5E704F52C7185
:101BF000206800F0DDFBEDE70120EEE70220ECE7D6
:101C00000B4601F00F014268914230D810B50446EE
:101C100013F0800F21D103F0070202EB8201C9000B
:101C200001F5B471014402EB820200EBC202002014
:101C300082F8690100228A7003F007030B7094F8A0
:101C4000A832012B15D0012384F8A832206800F0B7
:101C500050FB002084F8A80210BD03F007020132F7
:101C600002EB820100EBC10101204870E2E7012094
:101C700070470220F0E711F0800F0BD001F0070150
:101C8000013101EB810100EBC10052B90273C38045
:101C90000020704701EB8101C90001F5B4710844CF
:101CA000F3E70122027303811B0C4381F0E784B048
:101CB00001A880E80E00002004B070470346002011
:101CC000A3F844004FF43F42A3F840207047B0F817
:101CD000403023F47C535B045B0CA0F840300020C0
:101CE00070470020704784B0844601A880E80E0049
:101CF0000123ACF840300020ACF84000ACF84400C0
:101D0000ACF8500004B0704710B5034691F800C01D
:101D100030F82C2092B222F4EC4222F0700292B2FF
:101D2000C878032861D8DFE800F0555C025800202D
:101D300048F2800E42EA0E0223F82C2091F800C0EF
:101D400033F82C2092B222F4E04222F0700242EAF0
:101D50000C0242EA0E0223F82C200A7B002A40F0F3
:101D6000DC804A78002A51D0B3F8502092B21A444D
:101D70000C7802EB0412B1F806C04FEA5C0C4FEA93
:101D80004C0CA2F800C40C7833F8242012F0400F59
:101D90000CD033F8242092B222F4E04222F07002F8
:101DA00042F4004242F0C00223F82420CA78012AFB
:101DB0001DD0097833F8212092B222F4E04222F0BB
:101DC000400282F0200242F4004242F0800223F8F6
:101DD000212017E142F40072AAE742F4C062002019
:101DE000A6E742F480620020A2E70120A0E709787C
:101DF00033F8212092B222F4E04222F0400242F471
:101E0000004242F0800223F82120FBE0B3F850208A
:101E100092B21A440C7802EB0412B1F806C04FEAF1
:101E20005C0C4FEA4C0CA2F808C4B3F8502092B2F4
:101E30001A440C7802EB0412B2F80CC4CCF3090C6F
:101E4000A2F80CC40C693E2C39D94FEA541E14F088
:101E50001F0F01D10EF1FF3EB2F80CC41FFA8CFC2B
:101E60004FEA8E2E1FFA8EFE4CEA0E0C4CF4004CFC
:101E7000A2F80CC40C7833F8242012F4804F0CD054
:101E800033F8242092B222F4E04222F0700242F4AD
:101E9000404242F0800223F82420097869BB33F8DD
:101EA000212092B222F4804222F0700282F4405249
:101EB00042F4004242F0800223F82120A2E04CB913
:101EC000B2F80C446FEA44446FEA5444A4B2A2F856
:101ED0000C44CFE74FEA540C14F0010F01D00CF181
:101EE000010CB2F80C44A4B24FEA8C2C1FFA8CFC03
:101EF00044EA0C04A2F80C44BCE733F8212092B267
:101F000022F4804222F0700282F4005242F4004235
:101F100042F0800223F8212074E0CA78022A72D0AD
:101F20000C7833F8242092B222F4E24222F07002BC
:101F300042F4004242F0800223F82420B3F85020FB
:101F400092B21A4491F800C002EB0C12B1F808C02A
:101F50004FEA5C0C4FEA4C0CA2F800C4B3F85020D6
:101F600092B21A4491F800C002EB0C12B1F80AC008
:101F70004FEA5C0C4FEA4C0CA2F808C44A78002ADD
:101F800050D10C7833F8242012F4804F0CD033F861
:101F9000242092B222F4E04222F0700242F4404245
:101FA00042F0800223F824200C7833F8242012F029
:101FB000400F0CD033F8242092B222F4E04222F0F9
:101FC000700242F4004242F0C00223F8242091F84B
:101FD00000C033F82C2092B222F4804222F070022A
:101FE00082F4405248F28004224323F82C200978DE
:101FF00033F8212092B222F4E04222F04002224340
:1020000023F8212010BD0C7833F8242092B222F45A
:10201000E04222F0700242F4014242F0800223F8D2
:1020200024208BE70C7833F8242012F4804F0CD056
:1020300033F8242092B222F4E04222F0700242F4FB
:10204000404242F0800223F824200C7833F8242008
:1020500012F0400F0CD033F8242092B222F4E04268
:1020600022F0700242F4004242F0C00223F8242021
:10207000CA78012A1ED00C7833F8242092B222F4B8
:10208000E04222F0400282F0200242F4004242F09C
:10209000800223F82420097833F8212092B222F418
:1020A000804222F0700242F4004242F0800223F8A3
:1020B0002120A7E70C7833F8242092B222F4E042E2
:1020C00022F0400242F4004242F0800223F8242031
:1020D000E1E70B7B002B46D14B7813B30A7830F83D
:1020E000223013F0400F0CD030F822309BB223F492
:1020F000E04323F0700343F4004343F0C00320F8AF
:1021000022300A7830F822309BB223F4E04323F0E7
:10211000400343F4004343F0800320F822300020C2
:1021200070470A7830F8223013F4804F0CD030F822
:1021300022309BB223F4E04323F0700343F4404386
:1021400043F0800320F822300A7830F822309BB226
:1021500023F4804323F0700343F4004343F08003EF
:1021600020F82230DBE74B78002B4ED10A7830F88C
:10217000223013F4804F0CD030F822309BB223F47D
:10218000E04323F0700343F4404343F0800320F81E
:1021900022300A7830F8223013F0400F0CD030F89B
:1021A00022309BB223F4E04323F0700343F4004356
:1021B00043F0C00320F822300A7830F822309BB276
:1021C00023F4E04323F0700343F4004343F0C003DF
:1021D00020F822300A7830F822309BB223F4804372
:1021E00023F0700348F2800C43EA0C0320F82230FD
:1021F0000A7830F822309BB223F4E04323F0400306
:1022000043EA0C0320F8223089E70A7830F82230BC
:1022100013F4804F0CD030F822309BB223F4E0430B
:1022200023F0700343F4404343F0800320F822304E
:102230000A7830F8223013F0400F0CD030F82230FA
:102240009BB223F4E04323F0700343F4004343F0D4
:10225000C00320F822300A7830F822309BB223F4F1
:10226000E04323F0700343F4404343F0800320F83D
:1022700022300A7830F822309BB223F4E04323F076
:10228000400348F2800C43EA0C0320F822300A781D
:1022900030F822309BB223F4804323F0700343EAEA
:1022A0000C0320F822303AE74B788BB10A7830F8EB
:1022B00022309BB223F4E04323F0400383F0100369
:1022C00043F4004343F0800320F82230002070479D
:1022D0000A7830F822309BB223F4804323F0700355
:1022E00083F4805343F4004343F0800320F822300A
:1022F000ECE70B7B002B4BD14B7833B30A7830F8EB
:10230000223013F0400F0CD030F822309BB223F46F
:10231000E04323F0700343F4004343F0C00320F88C
:102320002230CB78012B33D00A7830F822309BB2A0
:1023300023F4E04323F0400383F0200343F40043FD
:1023400043F0800320F8223022E00A7830F822306F
:1023500013F4804F0CD030F822309BB223F4E043CA
:1023600023F0700343F4404343F0800320F822300D
:102370000A7830F822309BB223F4804323F07003B4
:1023800083F4405343F4004343F0800320F82230A9
:102390000020704711B98023A0F84C30002070470E
:1023A0000020704700207047B0F8440080B27047AA
:1023B0000020704701335B0800EB420000F58060AD
:1023C00008E00A7891F801C042EA0C2220F8042BB8
:1023D0000231013B002BF4D1704770B505460C4625
:1023E0004A78012A3BD00B7B002B40F0A6828B69F8
:1023F0000A69934240F284829B1A8B61B5F850308F
:102400009BB22B44217803EB0113B3F80C14C1F3F6
:102410000901A3F80C143E2A40F27682510912F009
:102420001F0F00D10139B3F80C2492B2890289B28E
:102430000A4342F40042A3F80C24227835F82230F3
:102440009BB223F4804323F0700383F4405343F49E
:10245000004343F0800325F82230002070BD8E69D0
:1024600009698E4200D90E46237B73B3E378022BB1
:102470004DD0236A9B1B2362217835F8213013F05D
:10248000400F00F0F581002A40F0E281B5F85030AD
:102490009BB22B4403EB0113B3F80C24C2F30902E3
:1024A000A3F80C243E2E40F2BA81710916F01F0FDA
:1024B00000D10139B3F80C2492B2890289B20A43DF
:1024C00042F40042A3F80C24CBE1B6B23346E288D2
:1024D00061692846FFF76EFFB5F850309BB22B4478
:1024E000227803EB0213A3F80464227835F8223033
:1024F0009BB223F4E04323F0400383F0300343F422
:10250000004343F0800325F822300020A6E7236A29
:10251000994280F06681227835F822309BB223F40C
:10252000E04323F0700343F4014343F0800325F8B4
:102530002230236A9B1B2362227835F8223013F065
:10254000400F00F0A7806378B3BBB5F850309BB262
:102550002B4403EB0213B3F80C24C2F30902A3F8D3
:102560000C243E2E0FD9710916F01F0F00D101392E
:10257000B3F80C2492B2890289B20A4342F40042B1
:10258000A3F80C241AE04EB9B3F80C246FEA4242C7
:102590006FEA524292B2A3F80C240FE0720816F0D0
:1025A000010F00D00132B3F80C1489B2920292B23A
:1025B0000A43A3F80C2401E0012B30D0B3B26289A6
:1025C00061692846FFF7F6FE636933446361236A55
:1025D000226993422DD99B1B23626378002B45D13E
:1025E000B5F850309BB22B44227803EB0213B3F8BA
:1025F0000424C2F30902A3F804243E2E1DD9710954
:1026000016F01F0F00D10139B3F8042492B28902E9
:1026100089B20A4342F40042A3F8042428E0B5F842
:1026200050309BB22B4403EB0213B2B2A3F80C243C
:10263000C4E7002222621E46CFE74EB9B3F8042455
:102640006FEA42426FEA524292B2A3F804240FE0CA
:10265000720816F0010F00D00132B3F8041489B2E9
:10266000920292B20A43A3F8042401E0012B06D09F
:10267000B3B2228961692846FFF79CFE35E7B5F8B9
:1026800050309BB22B44227803EB0213B2B2A3F872
:102690000424EDE76378B3BBB5F850309BB22B440C
:1026A00003EB0213B3F80424C2F30902A3F80424D1
:1026B0003E2E0FD9710916F01F0F00D10139B3F862
:1026C000042492B2890289B20A4342F40042A3F878
:1026D00004241AE04EB9B3F804246FEA42426FEAC8
:1026E000524292B2A3F804240FE0720816F0010FD0
:1026F00000D00132B3F8041489B2920292B20A43B4
:10270000A3F8042401E0012B30D0B3B2228961691F
:102710002846FFF74FFE636933446361236A2269E9
:1027200093422DD99B1B23626378002B45D1B5F8CA
:1027300050309BB22B44227803EB0213B3F80C24E5
:10274000C2F30902A3F80C243E2E1DD9710916F01C
:102750001F0F00D10139B3F80C2492B2890289B25B
:102760000A4342F40042A3F80C2428E0B5F85030A4
:102770009BB22B4403EB0213B2B2A3F80424C4E7C8
:10278000002222621E46CFE74EB9B3F80C246FEA4E
:1027900042426FEA524292B2A3F80C240FE0720850
:1027A00016F0010F00D00132B3F80C1489B2920276
:1027B00092B20A43A3F80C2401E0012B06D0B3B275
:1027C000628961692846FFF7F5FD8EE6B5F850305D
:1027D0009BB22B44227803EB0213B2B2A3F80C2471
:1027E000EDE7217835F8212092B222F4E24222F07E
:1027F000700242F4004242F0800225F82120B5F830
:10280000502092B22A44217802EB01129BB2A2F826
:102810000434228961692846FFF7CCFD65E64EB98C
:10282000B3F80C246FEA42426FEA524292B2A3F824
:102830000C2416E0720816F0010F00D00132B3F834
:102840000C1489B2920292B20A43A3F80C2408E055
:10285000B5F850309BB22B4403EB0113B2B2A3F88E
:102860000C24B3B2628961692846FFF7A3FD3CE6F8
:10287000B2BBB5F850309BB22B4403EB0113B3F855
:102880000424C2F30902A3F804243E2E0FD97109CF
:1028900016F01F0F00D10139B3F8042492B2890257
:1028A00089B20A4342F40042A3F8042421E04EB95D
:1028B000B3F804246FEA42426FEA524292B2A3F89C
:1028C000042416E0720816F0010F00D00132B3F8AC
:1028D000041489B2920292B20A43A3F8042408E0D5
:1028E000B5F850309BB22B4403EB0113B2B2A3F8FE
:1028F0000424B3B2228961692846FFF75BFDF4E541
:1029000000228A611A4679E54AB9B3F80C246FEAC5
:1029100042426FEA524292B2A3F80C248DE551086C
:1029200012F0010F00D00131B3F80C2492B28902E9
:1029300089B20A43A3F80C247FE5CB78022B4DD053
:10294000012B40F02F8189692369994240F2E6808A
:10295000C91AA161F2B9B5F8502092B22A4421787F
:1029600002EB0112B2F80414C1F30901A2F8041435
:102970003E2B40F2D780580913F01F0F00D10138C9
:10298000B2F8041489B2800280B2014341F40041DC
:10299000A2F804146278002A40F0F680B5F85020BE
:1029A00092B22A44217802EB0112B2F80C14C1F35E
:1029B0000901A2F80C143E2B40F2CD80590913F006
:1029C0001F0F00D10139B2F80C349BB2890289B2D1
:1029D0000B4343F40043A2F80C342EE5F2B9B0F8EF
:1029E00050309BB203440A7803EB0213B3F804247B
:1029F000C2F30902A3F804240A693E2A31D9510915
:102A000012F01F0F00D10139B3F8042492B28902E9
:102A100089B20A4342F40042A3F804246378002BED
:102A200051D1B5F850309BB22B44227803EB0213FE
:102A3000B3F80C24C2F30902A3F80C2422693E2A3D
:102A400028D9510912F01F0F00D10139B3F80C2415
:102A500092B2890289B20A4342F40042A3F80C24DC
:102A600033E04AB9B3F804246FEA42426FEA5242B3
:102A700092B2A3F80424D1E7510812F0010F00D05C
:102A80000131B3F8042490B28A0292B20243A3F84F
:102A90000424C3E74AB9B3F80C246FEA42426FEA50
:102AA000524292B2A3F80C240FE0510812F0010F29
:102AB00000D00131B3F80C2490B28A0292B20243E2
:102AC000A3F80C2401E0012B1DD0E369002B3FF497
:102AD000B4AC227835F8221044F2400303EA010036
:102AE0008B4302D000287FF4A8AC35F822309BB28B
:102AF00023F4E04323F0700343F4004343F0C003A6
:102B000025F8223099E4B5F850309BB22B44227856
:102B100003EB0213228AA3F80C24D6E70023A36157
:102B20000B4617E74BB9B2F804146FEA41416FEA5C
:102B3000514189B2A2F804142CE7590813F0010F8F
:102B400000D00131B2F8040480B2890289B2014395
:102B5000A2F804141EE74BB9B2F80C346FEA4343F1
:102B60006FEA53439BB2A2F80C3466E4590813F0A1
:102B7000010F00D00131B2F80C3498B28B029BB235
:102B80000343A2F80C3458E4012A7FF456ACB5F89C
:102B9000502092B22A44217802EB01129BB2A2F893
:102BA0000C344AE4012059E410B45C0800EB420004
:102BB00000F5806007E030F8042B0A70C2F30722AA
:102BC0004A700231013C002CF5D113F0010F01D005
:102BD00003880B7010BC704708B5074A136843F0B0
:102BE00010031360032000F045FD0F20FDF7DEFD0C
:102BF000FDF7B2FD002008BD00200240034A116825
:102C0000034B1B780B441360704700BF681400200F
:102C100060000020014B1868704700BF6814002056
:102C200038B50446FFF7F6FF0546B4F1FF3F02D082
:102C3000044B1B781C44FFF7EDFF401BA042FAD366
:102C400038BD00BF6000002082B0084B1B68084AF6
:102C5000A2FB03235B0A00FB03F3019300BF019B6C
:102C60005A1E0192002BF9D102B070476800002073
:102C7000D34D6210002800F0F18170B582B0044697
:102C8000036813F0010F2CD0994B5B6803F00C0321
:102C9000042B1DD0964B5B6803F00C03082B12D05D
:102CA0006368B3F5803F41D0002B55D103F18043D9
:102CB00003F504331A6822F480321A601A6822F489
:102CC00080221A6037E08A4B5B6813F4803FE7D0BC
:102CD000874B1B6813F4003F03D06368002B00F0A0
:102CE000BF81236813F0020F75D0814B5B6813F02E
:102CF0000C0F5FD07E4B5B6803F00C03082B54D0A5
:102D00002369002B00F08A807A4B01221A60FFF7BA
:102D100081FF0546764B1B6813F0020F75D1FFF754
:102D200079FF401B0228F5D903209EE1704A136801
:102D300043F480331360636843B3FFF76BFF0546CA
:102D40006B4B1B6813F4003FCBD1FFF763FF401BB5
:102D50006428F5D9032088E1B3F5A02F09D0644B8E
:102D60001A6822F480321A601A6822F480221A60EB
:102D7000E1E703F18043A3F53C331A6842F4802273
:102D80001A601A6842F480321A60D4E7FFF742FFF3
:102D90000546574B1B6813F4003FA2D0FFF73AFFDC
:102DA000401B6428F5D903205FE1514B5B6813F4A5
:102DB000803FA5D14E4B1B6813F0020F03D023694F
:102DC000012B40F04F814A4A136823F0F8036169F0
:102DD00043EAC1031360236813F0080F33D0A369DB
:102DE000002B5CD0434B0122C3F88024FFF712FF75
:102DF00005463F4B5B6A13F0020F21D1FFF70AFF34
:102E0000401B0228F5D903202FE1394A136823F02B
:102E1000F803616943EAC1031360DCE7354B002224
:102E20001A60FFF7F7FE0546314B1B6813F0020FDF
:102E3000D1D0FFF7EFFE401B0228F5D9032014E1A3
:102E40000120FFF701FF236813F0040F00F09680C4
:102E5000274BDB6913F0805F34D1254BDA6942F0F0
:102E60008052DA61DB6903F080530193019B0125F5
:102E7000214B1B6813F4807F26D0E368012B3DD0E3
:102E8000002B53D103F1804303F504331A6A22F077
:102E900001021A621A6A22F004021A6233E0154B28
:102EA0000022C3F88024FFF7B5FE0546104B5B6A8D
:102EB00013F0020FC7D0FFF7ADFE401B0228F5D973
:102EC0000320D2E00025D3E70B4A136843F4807354
:102ED0001360FFF79FFE0646074B1B6813F4807FC5
:102EE000CBD1FFF797FE801B6428F5D90320BCE007
:102EF0000010024000004242007000405F4A136A26
:102F000043F001031362E36833B3FFF783FE064621
:102F10005A4B1B6A13F0020F2FD1FFF77BFE801B69
:102F200041F288339842F3D903209EE0052B09D063
:102F3000524B1A6A22F001021A621A6A22F0040243
:102F40001A62E0E74D4B1A6A42F004021A621A6AEA
:102F500042F001021A62D6E7FFF75CFE0646474BD5
:102F60001B6A13F0020F08D0FFF754FE801B41F2DA
:102F700088339842F3D9032077E0E5B9E369002B61
:102F800072D03E4A526802F00C02082A56D0022B38
:102F900017D03B4B00221A66FFF73CFE0446374B26
:102FA0001B6813F0007F47D0FFF734FE001B022898
:102FB000F5D9032059E0314AD36923F08053D36116
:102FC000DCE72F4B00221A66FFF724FE05462B4B49
:102FD0001B6813F0007F06D0FFF71CFE401B022881
:102FE000F5D9032041E0236AB3F5803F1AD0234985
:102FF0004B6823F47413226A606A024313434B60E4
:103000001F4B01221A66FFF705FE04461B4B1B6887
:1030100013F0007F0ED1FFF7FDFD001B0228F5D94C
:10302000032022E0154A536823F40033A1680B43C0
:103030005360DCE7002018E0002016E0012B16D0DA
:103040000E4B5B6803F48031226A914211D103F484
:103050007013626A93420ED1002006E0012070478F
:10306000012002E0012000E0002002B070BD01203C
:10307000FBE70120F9E70120F7E700BF001002405D
:10308000000042420F4B5B6803F00C02082A01D09B
:103090000D487047C3F383420C49885C13F4803FAA
:1030A0000BD0084B5B68C3F34043094AD35C064A24
:1030B00002FB00F0B0FBF3F07047064B03FB00F09F
:1030C000704700BF0010024000127A00A87200088A
:1030D000A472000800093D00002800F0A08070B52F
:1030E0000D460446524B1B6803F007038B420BD27C
:1030F0004F4A136823F007030B431360136803F070
:1031000007038B4240F08D80236813F0020F17D025
:1031100013F0040F04D0474A536843F4E06353604C
:10312000236813F0080F04D0424A536843F46053F5
:103130005360404A536823F0F003A1680B43536087
:10314000236813F0010F31D06368012B20D0022BCC
:1031500025D0384A126812F0020F64D035494A6807
:1031600022F0030213434B60FFF754FD0646314B38
:103170005B6803F00C036268B3EB820F16D0FFF7B5
:1031800049FD801B41F288339842F0D9032045E085
:10319000284A126812F4003FE0D101203EE0254A9F
:1031A000126812F0007FD9D1012037E0204B1B6854
:1031B00003F00703AB420AD91D4A136823F0070343
:1031C0002B431360136803F00703AB422DD1236830
:1031D00013F0040F06D0174A536823F4E063E16844
:1031E0000B435360236813F0080F07D0114A53684C
:1031F00023F46053216943EAC1035360FFF742FFA0
:103200000C4B5B68C3F303130B4AD35CD8400B4BE6
:1032100018600B4B1868FDF7C9FA002070BD01203B
:1032200070470120FAE70120F8E70120F6E700BF28
:103230000020024000100240C07200086800002018
:1032400064000020014B1868704700BF6800002030
:1032500008B5FFF7F7FF044B5B68C3F30223034A8B
:10326000D35CD84008BD00BF00100240B87200080F
:1032700008B5FFF7E7FF044B5B68C3F3C223034ABB
:10328000D35CD84008BD00BF00100240B8720008EF
:103290000F2303600B4B5A6802F0030242605A6826
:1032A00002F0F00282605A6802F4E062C2605B6879
:1032B000DB0803F4E0630361034B1B6803F00703BF
:1032C0000B607047001002400020024070B582B0D1
:1032D0000446036813F0010F36D03F4BDB6913F04F
:1032E000805F49D13C4BDA6942F08052DA61DB6998
:1032F00003F080530193019B0125384B1B6813F4A5
:10330000807F3BD0344B1B6A13F4407313D0626848
:1033100002F440729A420ED02F4A136A23F440708E
:103320002F490126C1F840640026C1F840641062AC
:1033300013F0010F36D1284A136A23F440736168F1
:103340000B431362002D3ED1236813F0020F06D009
:10335000214A536823F44043A1680B435360236818
:1033600013F0100F34D01C4A536823F48003E16833
:103370000B43536000202CE00025BEE7174A13687A
:1033800043F480731360FFF745FC0646134B1B683C
:1033900013F4807FB6D1FFF73DFC801B6428F5D97C
:1033A000032016E0FFF736FC06460B4B1B6A13F0B2
:1033B000020FC0D1FFF72EFC801B41F288339842E8
:1033C000F3D9032005E0D36923F08053D361BBE731
:1033D000002002B070BD00BF00100240007000402D
:1033E0000000424270B582B00024A446A2E07E4DA7
:1033F000AB4210D007D97D4DAB420CD005F58035DE
:10340000AB4208D013E0A5F58015AB4203D005F51B
:103410007025AB4207D18B68002B55D0012B4ED0C5
:103420004261082403E0A5F58015AB42F3D0BEF15C
:10343000FF0F4BD806464FEA8C0233680F259540A4
:1034400023EA050304FA02F2134333604B6813F0D6
:10345000805F6DD0664B9A6942F001029A619B6968
:1034600003F001030193019B4FEA9C02951C614B01
:1034700053F825600CF00305AD000F23AB4026EA9E
:1034800003065D4B984228D003F58063984200F014
:103490008D8003F58063984200F08A8003F5806395
:1034A000984218D0042319E0CC68C0E7CC680434F3
:1034B000BDE7CC680834BAE7CC680C34B7E70261E2
:1034C0000824B4E70024B2E70424B0E7061DACF1F9
:1034D00008029200B1E7032300E00023AB4033432E
:1034E0000232444D45F822304B6813F4801F61D0FE
:1034F000424A936843EA0E0393604B6813F4001F3B
:103500005ED03E4AD36843EA0E03D3604B6813F49F
:10351000003F5BD0394A536843EA0E0353604B685F
:1035200013F4803F58D0354A136843EA0E03136002
:103530000CF1010C0B6833FA0CF253D0012202FAA1
:103540000CF203EA020E32EA0303F1D14B68122BAC
:103550003FF64DAF122B3FF66AAF01A555F823F0A9
:1035600017340008A9340008B3340008C534000833
:103570002F3400082F3400082F3400082F3400089F
:103580002F3400082F3400082F3400082F3400088F
:103590002F3400082F3400082F3400082F3400087F
:1035A0002F340008AD340008B9340008012395E732
:1035B000022393E7114A936823EA0E0393609CE782
:1035C0000E4AD36823EA0E03D3609FE70B4A536881
:1035D00023EA0E035360A2E7084A136823EA0E03A6
:1035E0001360A5E702B070BD00002210000031108A
:1035F00000100240000001400008014000040140AA
:103600000AB101617047090401617047002808DBB5
:103610000901C9B200F1604000F5614080F8001373
:10362000704700F00F000901C9B2014B19547047EF
:1036300014ED00E000B500F00700C0F1070CBCF18C
:10364000040F28BF4FF0040C031D062B0FD9C31E17
:103650004FF0FF3E0EFA0CF021EA000199400EFAFD
:1036600003FE22EA0E0241EA02005DF804FB002399
:10367000EEE70000074AD36823F4E0631B041B0C49
:10368000000200F4E060034343F0BF6343F40033FF
:10369000D360704700ED00E010B50446054BD868D4
:1036A000C0F30220FFF7C6FF01462046FFF7AEFF3A
:1036B00010BD00BF00ED00E0002807DB00F01F0296
:1036C000400901239340024A42F82030704700BF6E
:1036D00000E100E003685A6912F4806F01D1002014
:1036E00070476FF480625A6100230363202280F8E0
:1036F0003D2080F83E30026C42F00402026480F803
:103700003C30012070472DE9F04106460C46174633
:1037100098463BE0FFF77EFA069BC01A404502D868
:10372000B8F1000F32D1012D18D033689B6924EA1B
:1037300003039BB2B3FA83F35B099F4226D10023B4
:103740003363202286F83D2086F83E30326C42F00A
:103750002002326486F83C30012027E033685B6940
:1037600024EA03039BB2B3FA83F35B09E5E733680A
:103770005B6924EA030C1FFA8CFCBCFA8CFC4FEA50
:103780005C1C674511D1B8F1FF3FC3D1C4F30745B5
:10379000012DECD033689B6924EA030C1FFA8CFCE2
:1037A000BCFA8CFC4FEA5C1CEBE70020BDE8F08122
:1037B0002DE9F84305460E469046994653E01A68AF
:1037C00042F400721A602B686FF480625A61002321
:1037D0002B63202285F83D2085F83E302A6C42F08C
:1037E00004022A6485F83C3001204AE0FFF712FA0F
:1037F000A0EB0900404502D8B8F1000F33D1012FEA
:1038000017D02B689B6926EA03039BB2003B18BFC5
:10381000012343B300232B63202285F83D2085F844
:103820003E302A6C42F020022A6485F83C300120A8
:1038300027E02B685B6926EA03039BB2003B18BFB5
:103840000123E6E72B689C6926EA0404A4B2003C45
:1038500018BF0124A4B12B685A6912F4806FAED14D
:10386000B8F1FF3FC2D1C6F30747012FEAD12B6859
:103870005C6926EA0404A4B2003C18BF0124E9E70D
:103880000020BDE8F8830000F0B583B004460D4683
:1038900016461F46C36A082B0DD0012B0BD013F51B
:1038A000803F08D0036B122B0AD10268136843F4DF
:1038B0008073136004E02268136843F4807313601C
:1038C0000097334600224FF001112046FFF71BFFFF
:1038D00080B92369B3F5804F16D1236805F0FE0542
:1038E0001D613B46324613492046FFF761FFF8B998
:1038F00003B0F0BD23681B6813F4807F02D04FF43F
:10390000007323640320F3E7EB11226803F006033E
:1039100043F0F00313613B46324607492046FFF768
:1039200047FF18B92368EDB21D61DAE70120DFE730
:103930000120DDE7020001000800010070B5044627
:103940000D46164623685B6913F0800F21D120468F
:10395000FFF7C0FEF8B9B5F1FF3FF3D0FFF75AF912
:10396000801BA84201D8002DECD123685B6913F0BD
:10397000800FE7D100232363202284F83D2084F8C0
:103980003E30226C42F02002226484F83C30012058
:1039900000E0002070BD0120FCE770B504460D4634
:1039A000164623685B6913F0040F21D12046FFF708
:1039B00091FEF8B9B5F1FF3FF3D0FFF72BF9801B6B
:1039C000A84201D8002DECD123685B6913F0040FE5
:1039D000E7D100232363202284F83D2084F83E3081
:1039E000226C42F02002226484F83C30012000E086
:1039F000002070BD0120FCE7002800F0CC8070B5ED
:103A0000044690F83D30002B77D0242384F83D30D5
:103A10002268136823F0010313602268136843F4DB
:103A2000004313602268136823F400431360FFF718
:103A30000FFC62685A4B9A4264D85A4B98428CBF2A
:103A400000230123002B40F0A8805749A1FB00313F
:103A50008B0C25686A6822F03F0242EA91426A6054
:103A600021680A6A22F03F0266684D4DAE424FD887
:103A7000013313430B622168CA6922F44F4222F0DA
:103A8000FF026568464B9D424CD8431E6D00B3FB58
:103A9000F5F3013340F6FC70034278D0C3F30B0317
:103AA0001A43CA6121680B6823F0C003E269206AE7
:103AB000024313430B6021688B6823F4034323F014
:103AC000FF032269E068024313438B602168CB68DF
:103AD00023F0FF036269A06902431343CB602268AD
:103AE000136843F00103136000202064202384F84E
:103AF0003D30206384F83E0070BD80F83C30FCF718
:103B000095FC82E7294B98428CBF0023012399E75B
:103B10004FF4967505FB03F3254DA5FB03539B0955
:103B20000133A6E7A668BEB9431E05EB450CB3FBFF
:103B3000FCF30133C3F30B03B3FA83F35B0943BB19
:103B4000C6B9431E05EB4505B3FBF5F30133C3F3DB
:103B50000B0343F40043A3E7431E05EB850C0CEB7A
:103B60008C0CB3FBFCF30133C3F30B03B3FA83F305
:103B70005B09E4E7431E05EB850505EB8505B3FB13
:103B8000F5F30133C3F30B0343F4404388E7042305
:103B900086E7012384E7012070470120ACE700BFDE
:103BA000A08601007F841E0083DE1B43FF083D00CA
:103BB000D34D62102DE9F04385B004460F4691467F
:103BC00098460C9EFFF726F8054694F83D00C0B2D3
:103BD000202804D00227384605B0BDE8F0830095C0
:103BE000192301224F492046FFF78DFD002840F0A0
:103BF000928094F83C30012B00F08F80012384F8F0
:103C00003C3023681A6812F0010F03D11A6842F0A1
:103C100001021A602268136823F4006313602123F1
:103C200084F83D30102384F83E3000232364C4F828
:103C30002490A4F82A80638D23853B4BE3622B46B6
:103C4000324639462046FFF71FFE0746002866D158
:103C50000023039323685A6903929B690393039B90
:103C600011E0236C042B01D00127B4E7226813680C
:103C700043F400731360F7E72A4631462046FFF706
:103C80008CFE00282ED1238D002B36D02A463146BB
:103C90002046FFF753FE0028E3D1626A23681278BA
:103CA0001A61606A431C6362618D89B2013989B20D
:103CB0006185238D013B9BB223852268516911F0F8
:103CC000040FD9D0002BD7D043781361636A013336
:103CD0006362638D9BB2013B9BB26385238D013B85
:103CE0002385C9E7236C042B01D0012773E72268E1
:103CF000136843F400731360F7E72268136843F412
:103D000000731360202384F83D30002384F83E3094
:103D100084F83C305FE702275DE702275BE7012775
:103D200059E700BF020010000000FFFF70470000CD
:103D300090F83D30DBB2012B27D1022380F83D30D3
:103D40000268D36843F00103D3600368114A9342C9
:103D500010D0B3F1804F0DD0A2F59432934209D028
:103D600002F58062934205D01A6842F001021A609F
:103D7000002070479A6802F00702062A07D01A68E6
:103D800042F001021A6000207047012070470020B5
:103D9000704700BF002C0140704770477047704764
:103DA00010B5044603681A6912F0020F11D0DA68E0
:103DB00012F0020F0DD06FF002021A610123037797
:103DC00003689B6913F0030F70D0FFF7E6FF002331
:103DD000237723681A6912F0040F12D0DA6812F000
:103DE000040F0ED06FF004021A61022323772368B8
:103DF0009B6913F4407F5FD02046FFF7CEFF00237E
:103E0000237723681A6912F0080F12D0DA6812F0CB
:103E1000080F0ED06FF008021A610423237723687D
:103E2000DB6913F0030F4ED02046FFF7B6FF0023E7
:103E3000237723681A6912F0100F12D0DA6812F093
:103E4000100F0ED06FF010021A6108232377236839
:103E5000DB6913F4407F3DD02046FFF79EFF00232F
:103E6000237723681A6912F0010F03D0DA6812F081
:103E7000010F36D123681A6912F0800F03D0DA6877
:103E800012F0800F34D123681A6912F0400F03D06A
:103E9000DA6812F0400F32D123681A6912F0200F4D
:103EA00003D0DA6812F0200F30D110BDFFF774FF95
:103EB0002046FFF773FF8AE72046FFF76DFF204695
:103EC000FFF76CFF9BE72046FFF766FF2046FFF7F2
:103ED00065FFACE72046FFF75FFF2046FFF75EFF78
:103EE000BDE76FF001021A612046FCF757F9C1E700
:103EF0006FF080021A61204600F077F8C3E76FF098
:103F000040021A612046FFF74AFFC5E76FF0200222
:103F10001A61204600F068F8C7E7000003681B4AF2
:103F200090420AD0B0F1804F07D0A2F5943290426F
:103F300003D002F58062904203D123F070034A68F7
:103F40001343124A90420AD0B0F1804F07D0A2F535
:103F50009432904203D002F58062904203D123F460
:103F60004073CA68134323F080034A691343036014
:103F70008B68C3620B688362044B984202D00123B2
:103F8000436170470B690363F9E700BF002C0140F0
:103F900040B310B5044690F83D30F3B1022384F8E5
:103FA0003D30214651F8040BFFF7B8FF012384F898
:103FB000463084F83E3084F83F3084F8403084F84E
:103FC000413084F8423084F8433084F8443084F837
:103FD000453084F83D30002010BD80F83C30FFF7BC
:103FE000A5FEDBE70120704770477047704700F17E
:103FF000080343604FF0FF328260C3600361002317
:104000000360704700230361704743684B609A6800
:104010008A605160996008610368013303607047EA
:1040200030B40D68B5F1FF3F11D000F108031C4614
:104030005B681A68AA42FAD963684B6099608C6021
:104040006160086103680133036030BC7047046934
:10405000F2E70369416882688A60416851605A6882
:10406000824206D0002202611A68013A1A6018687A
:10407000704782685A60F5E710B5044601F0B2FC5B
:10408000A26BE36B9A4204D0002401F0CDFC2046E1
:1040900010BD0124F9E710B5044601F0A3FCA36BA1
:1040A00023B9012401F0C0FC204610BD0024F9E72B
:1040B00070B504461546866B026C5AB903681BB18D
:1040C00000200136A66370BD406800F0C7FF0023E2
:1040D0006360F6E76DB9806802F04CFCA368226C5F
:1040E0001344A3606268934219D32368A3602846EF
:1040F000E7E7C06802F03EFCE368226C51429B1A7D
:10410000E3602268934202D263680B44E360022DAD
:1041100001D00020D5E726B1013E0020D1E7284696
:10412000CFE70020CDE708B50346026C62B1084630
:10413000D9681144D960D3F804C0614501D3196826
:10414000D960D96802F016FC08BD38B5054601F003
:1041500049FC95F8454064B201E0013C64B2002C92
:104160000ADD6B6A43B105F1240000F0CDFE0028A2
:10417000F3D000F05DFFF0E7FF2385F8453001F054
:1041800053FC01F02FFC95F8444064B201E0013C7F
:1041900064B2002C0ADD2B6943B105F1100000F078
:1041A000B3FE0028F3D000F043FFF0E7FF2385F8CB
:1041B000443001F039FC38BD38B5E0B10D46044655
:1041C00001F010FC2368E26B216C01FB023060609F
:1041D0000020A063A360013A02FB0133E360FF23E8
:1041E00084F8443084F84530FDB9236963B901F09F
:1041F0001BFC012038BD4FF0500383F31188BFF33F
:104200006F8FBFF34F8FFEE704F1100000F07CFECC
:104210000028ECD04FF0E0234FF08052C3F8042D7B
:10422000BFF34F8FBFF36F8FE1E704F11000FFF78B
:10423000DEFE04F12400FFF7DAFED8E738B51D46AC
:10424000049C0B4649B92460E063236401212046A5
:10425000FFF7B2FF84F84C5038BD2260F4E740B954
:104260004FF0500383F31188BFF36F8FBFF34F8F6D
:10427000FEE710B584B01C46844653B192B189B9AB
:104280004FF0500383F31188BFF36F8FBFF34F8F4D
:10429000FEE74FF0500383F31188BFF36F8FBFF336
:1042A0004F8FFEE76AB150230393039B502B13D02B
:1042B0004FF0500383F31188BFF36F8FBFF34F8F1D
:1042C000FEE70029EFD04FF0500383F31188BFF3CE
:1042D0006F8FBFF34F8FFEE7012384F846300094C1
:1042E0009DF818306046FFF7A9FF204604B010BDC6
:1042F000F0B585B0019288B10F461D460446B1B1B4
:10430000022D20D1E36B012B1DD04FF0500383F31E
:104310001188BFF36F8FBFF34F8FFEE74FF050034D
:1043200083F31188BFF36F8FBFF34F8FFEE7036CEA
:10433000002BE5D04FF0500383F31188BFF36F8F4C
:10434000BFF34F8FFEE700F079FE064658B9019B98
:10435000002B48D04FF0500383F31188BFF36F8FC9
:10436000BFF34F8FFEE700263DE02A463946204640
:10437000FFF79EFE636A7BB948B14FF0E0234FF030
:104380008052C3F8042DBFF34F8FBFF36F8F01F03E
:104390004BFB012005B0F0BD04F1240000F0B4FD9A
:1043A0000028F4D04FF0E0234FF08052C3F8042DE2
:1043B000BFF34F8FBFF36F8FE9E701F035FB0020AC
:1043C000E8E702A800F0E6FD012619E0002384F8E2
:1043D000443021E0002384F8453023E02046FFF7F5
:1043E000B4FE00F06FFC01F0FDFAA26BE36B9A42A1
:1043F000BBD3022DB9D0019B002BDED0002EE0D024
:1044000001F012FB00F0C4FB01F0ECFA94F8442038
:1044100052B2B2F1FF3FD9D094F8452052B2B2F176
:10442000FF3FD7D001F000FB01A902A800F0BEFDBC
:10443000D8B92046FFF720FE0028CFD0019904F11B
:10444000100000F02DFD2046FFF77FFE00F03AFC43
:104450000028C8D14FF0E0234FF08052C3F8042D5C
:10446000BFF34F8FBFF36F8FBDE72046FFF76DFEA1
:1044700000F028FC00208DE72DE9F84390B10F46AD
:1044800016461C460546B1B1022C20D1EB6B012B20
:104490001DD04FF0500383F31188BFF36F8FBFF32C
:1044A0004F8FFEE74FF0500383F31188BFF36F8FF8
:1044B000BFF34F8FFEE7036C002BE5D04FF05003A6
:1044C00083F31188BFF36F8FBFF34F8FFEE701F0C7
:1044D00073FBEFF311884FF0500383F31188BFF3A0
:1044E0006F8FBFF34F8FAA6BEB6B9A4206D3022CF0
:1044F00004D0002088F31188BDE8F88395F8459032
:104500004FFA89F9224639462846FFF7D1FDB9F11D
:10451000FF3F06D009F101035BB285F84530012069
:10452000E8E76B6A0BB90120E4E705F1240000F02D
:10453000EBFC18B126B101203060DBE70120D9E7A0
:104540000120D7E7F0B585B0019290B10F4604463F
:10455000C1B100F073FD064600BB019B002B5ED08D
:104560004FF0500383F31188BFF36F8FBFF34F8F6A
:10457000FEE74FF0500383F31188BFF36F8FBFF353
:104580004F8FFEE7036C002BE3D04FF0500383F313
:104590001188BFF36F8FBFF34F8FFEE700263EE019
:1045A00039462046FFF7BFFD013DA563236923B9C6
:1045B00001F03AFA012005B0F0BD04F1100000F05E
:1045C000A3FC0028F4D04FF0E0234FF08052C3F852
:1045D000042DBFF34F8FBFF36F8FE9E701F024FA8B
:1045E0000020E8E702A800F0D5FC012621E0002326
:1045F00084F8443029E0002384F845302BE020463D
:10460000FFF7A3FD00F05EFB09E02046FFF79DFDEC
:1046100000F058FB2046FFF73EFD00283FD101F097
:10462000E1F9A56B002DBBD1019B002BD6D0002E4C
:10463000D8D001F0F9F900F0ABFA01F0D3F994F811
:1046400044305BB2B3F1FF3FD1D094F845305BB258
:10465000B3F1FF3FCFD001F0E7F901A902A800F0C4
:10466000A5FC0028D1D12046FFF715FD0028C6D0B3
:10467000019904F1240000F013FC2046FFF765FDCA
:1046800000F020FB0028CAD14FF0E0234FF0805209
:10469000C3F8042DBFF34F8FBFF36F8FBFE7002028
:1046A00089E700000023072B0CD8074A52F8332073
:1046B0000AB10133F7E7044A42F8331002EBC302B0
:1046C00050607047704700BF6C14002070B50446FE
:1046D0000D46164601F086F994F844305BB2B3F10A
:1046E000FF3F0DD094F845305BB2B3F1FF3F0BD0E4
:1046F00001F09AF9A36B5BB12046FFF726FD70BD70
:10470000002384F84430EDE7002384F84530EFE7D8
:104710003246294604F1240000F0DAFBECE7000001
:10472000084B1B681B6823B9074B4FF0FF321A6018
:104730007047044B1B68DB68DB685A68024B1A60E1
:10474000704700BF1C150020B41400202DE9F0476D
:1047500080460D4617469946089EDDF824A00A9C1F
:104760009200A521206B02F013F9236B07F1804220
:10477000013A03EB820727F007074FF0000CBCF16A
:104780000F0F09D815F80C3004EB0C0282F8343006
:1047900013B10CF1010CF2E7002384F84330372EFB
:1047A00000D93726E662E66400252565201DFFF75F
:1047B00029FC04F11800FFF725FC2461C6F1380636
:1047C000A6616462656584F858504A464146384699
:1047D00001F0E0F82060BAF1000F01D0CAF8004003
:1047E000BDE8F08738B5002407E004EB84029300AD
:1047F0000E481844FFF7FBFB0134372CF5D90C4D5C
:104800002846FFF7F4FB0B4C2046FFF7F0FB0A4865
:10481000FFF7EDFB0948FFF7EAFB0948FFF7E7FB65
:10482000084B1D60084B1C6038BD00BF48150020B8
:10483000341500202015002004150020F01400205D
:10484000D81400201C1500201815002010B50446AF
:1048500001F0C8F8224A136801331360214B1B682A
:104860005BB1214B1B686BB91E4B1B68DA6AE36AAC
:104870009A4207D81B4B1C6004E01A4B1C6013685B
:10488000012B29D0194A1368013313606364E06A6D
:10489000174B1B68984201D9154B186000EB80003C
:1048A000211D144B03EB8000FFF7AFFB01F0BCF8B8
:1048B0000D4B1B687BB10B4B1B68DA6AE36A9A42AB
:1048C00009D24FF0E0234FF08052C3F8042DBFF31C
:1048D0004F8FBFF36F8F10BDFFF784FFD2E700BF8C
:1048E000D4140020A8190020C8140020B8140020F7
:1048F000CC1400204815002010B5044690F859301B
:1049000063B1012B11D0022B0ED04FF0500383F373
:104910001188BFF36F8FBFF34F8FFEE7006B00F07E
:10492000D1FF204600F0CEFF10BD00F0CBFFFBE72B
:104930000F4B1B68D3B110B501F054F80D4BDB6879
:10494000DC68201DFFF785FB0B4A1368013B1360F1
:10495000074A1368013B136001F066F82046FFF731
:10496000CBFF034B1B68002BE6D110BD704700BF87
:10497000EC140020F0140020D414002008B5FFF738
:10498000D7FF074B1B68012BF9D94FF0E0234FF0FD
:104990008052C3F8042DBFF34F8FBFF36F8FEEE744
:1049A0004815002070B504460D46174B1E68174B7E
:1049B00018680430FFF74DFBB4F1FF3F0DD03444CD
:1049C000124B1B685C60A64210D9114B18680F4B44
:1049D00019680431FFF724FB70BD002DEFD00B4B9D
:1049E000196804310B48FFF710FBF5E70A4B18680C
:1049F000064B19680431FFF713FB084B1B68A342F1
:104A0000EAD9064B1C60E7E7D0140020A819002063
:104A100018150020D81400201C150020B414002004
:104A200030B587B00B9C7CB10C9DB5B15C2504956D
:104A3000049D5C2D1AD04FF0500383F31188BFF30F
:104A40006F8FBFF34F8FFEE74FF0500383F3118852
:104A5000BFF36F8FBFF34F8FFEE74FF0500383F329
:104A60001188BFF36F8FBFF34F8FFEE70C9D2C6350
:104A7000022485F8594000240394029505AC019462
:104A80000A9C0094FFF762FE0C98FFF7DFFE059882
:104A900007B030BD2DE9F04385B00746884614467F
:104AA0001E46900000F092FE08B381465C2000F0A4
:104AB0008DFE0546A8B1C0F83090002380F859302B
:104AC000039302900D9B01930C9B00933346224667
:104AD00041463846FFF73AFE2846FFF7B7FE012069
:104AE00007E0484600F0EEFE4FF0FF3001E04FF0E7
:104AF000FF3005B0BDE8F08310B588B00024059400
:104B0000069407AA06A905A800F0E6FD059B0293F6
:104B1000069B019300942346079A17491748FFF70D
:104B20007FFF174B1860C0B100F04CFB012815D176
:104B30004FF0500383F31188BFF36F8FBFF34F8F94
:104B4000104B4FF0FF321A600F4B01221A600F4BCF
:104B500000221A6000F0D0FF03E00020B0F1FF3F18
:104B600001D008B010BD4FF0500383F31188BFF39C
:104B70006F8FBFF34F8FFEE7D07200087D490008AA
:104B8000B0140020B4140020C8140020D014002059
:104B9000024A136801331360704700BFAC14002051
:104BA000014B1868704700BFD0140020F8B53A4B8D
:104BB0001B68002B64D1394B1D6801351D60C5B9D8
:104BC000374B1B681B6843B14FF0500383F31188C8
:104BD000BFF36F8FBFF34F8FFEE7314A1168314B40
:104BE000186810601960304A136801331360FFF7CA
:104BF00097FD2E4B1B68AB4238D900272C4B1B6806
:104C0000DB6A03EB83039A002A4B9B58012B3CD9A8
:104C100001273AE00127224B1B681B6843B3204B56
:104C20001B68DB68DC6863689D4226D3261D30461E
:104C3000FFF70FFAA36A1BB104F11800FFF709FA96
:104C4000E36A1D4A1268934201D91B4A136003EBC1
:104C500083039A00314617481044FFF7D6F9E26AF9
:104C6000134B1B68DB6A9A42D4D2D4E70027D2E701
:104C70000E4B4FF0FF321A60C0E70C4A1360BDE7DD
:104C80000E4A13680133136000270D4B1B6803B1F4
:104C900001273846F8BD00BFAC140020D014002016
:104CA0001C15002018150020BC140020B41400208E
:104CB000A819002048150020CC140020C41400209E
:104CC000C014002038B5354B1B6843B94FF0500372
:104CD00083F31188BFF36F8FBFF34F8FFEE700F0B0
:104CE00081FE2E4B1A68013A1A601B68002B4FD1C7
:104CF0002B4B1B680BB900244BE00024294B1B688D
:104D00001BB3284BDB68DC6804F11800FFF7A1F93E
:104D1000251D2846FFF79DF9E06A234B1B68984242
:104D200001D9214B186000EB800029461F4B03EB93
:104D30008000FFF76AF9E26A1D4B1B68DB6A9A4242
:104D4000DCD31C4B01221A60D8E70CB1FFF7E8FC5A
:104D5000194B1C6884B9174B1C68D4B14FF0E02381
:104D60004FF08052C3F8042DBFF34F8FBFF36F8F06
:104D700001240EE0013C07D0FFF718FF0028F9D00E
:104D80000C4B01221A60F5E70B4B00221A60E2E798
:104D9000002400F049FE204638BD00BFAC140020BE
:104DA000D414002004150020CC1400204815002045
:104DB000A8190020C0140020C414002010B5A8B108
:104DC0000446104B1B6843B14FF0500383F3118826
:104DD000BFF36F8FBFF34F8FFEE7FFF7D9FE0021C0
:104DE0002046FFF7DFFDFFF76DFF48B94FF0E023E6
:104DF0004FF08052C3F8042DBFF34F8FBFF36F8F76
:104E000010BD00BFAC140020204B1B681BB1204B11
:104E100001221A6070471E4B00221A601D4B1B684E
:104E200003EB83018A001C498A585AB90BB1013B34
:104E3000F6E74FF0500383F31188BFF36F8FBFF392
:104E40004F8FFEE7084603EB83018A000244516856
:104E50004968516003EB830C4FEA8C02083202442C
:104E600091420BD003EB830291000B4A0A44526833
:104E7000D1680A4A1160074A136070474868624661
:104E80009100054A0A445060ECE700BFAC140020D2
:104E9000C0140020CC14002048150020A8190020C0
:104EA00058B110B50C46094A11681831FFF7B8F827
:104EB00001212046FFF776FD10BD4FF0500383F32C
:104EC0001188BFF36F8FBFF34F8FFEE7A819002043
:104ED00038B570B10D4614460A4A11681831FFF70B
:104EE00094F80CB14FF0FF3521462846FFF75AFDE4
:104EF00038BD4FF0500383F31188BFF36F8FBFF3BA
:104F00004F8FFEE7A819002038B5C368DC6824B3CA
:104F100004F118052846FFF79CF8184B1B682BBBBB
:104F2000251D2846FFF795F8E06A154B1B68984247
:104F300001D9134B186000EB80002946114B03EB9D
:104F40008000FFF762F8E26A0F4B1B68DB6A9A4247
:104F500011D901200D4B186038BD4FF0500383F379
:104F60001188BFF36F8FBFF34F8FFEE729460848C4
:104F7000FFF74BF8E7E70020EEE700BFAC14002096
:104F8000CC14002048150020A8190020C0140020CF
:104F900004150020034B1B680360034B1B68436030
:104FA000704700BFBC140020D0140020D8B170B5E9
:104FB0000C46054601B300F015FD1B4B19686B68E4
:104FC000C81A2268B2F1FF3F27D0184E3668D5F8CC
:104FD00000C0B44501D08B4224D9824215D80023A9
:104FE000236001241AE04FF0500383F31188BFF3CC
:104FF0006F8FBFF34F8FFEE74FF0500383F311889D
:10500000BFF36F8FBFF34F8FFEE75B1A134423602C
:105010002846FFF7BFFF002400E0002400F004FD55
:10502000204670BD0124F9E7D0140020BC140020F4
:10503000014B01221A607047C0140020054B1B6809
:1050400033B1054B1B680BB100207047022070473D
:1050500001207047C8140020AC14002000283BD069
:1050600038B504461E4B1B68834208D04FF05003EE
:1050700083F31188BFF36F8FBFF34F8FFEE7036D8C
:1050800043B94FF0500383F31188BFF36F8FBFF321
:105090004F8FFEE7013B0365C16AC26C91421DD090
:1050A0000BB1002038BD051D2846FEF7D2FFE06C8D
:1050B000E062C0F13803A3610A4B1B68984201D932
:1050C000084B186000EB80002946074B03EB80007B
:1050D000FEF79BFF0120E5E7002070470020E1E795
:1050E000A8190020CC14002048150020064B1A688F
:1050F0001368B3FA83F35B09036013B9D3681868C4
:1051000070470020704700BFAC1A002008B541600E
:10511000006191420CD8D21A83699A4201D30120CE
:1051200008BD011D094B1868FEF77AFF0020F7E75C
:105130009A4201D2994206D2011D054B1868FEF72A
:105140006FFF0020ECE70120EAE700BFA81A00206B
:10515000AC1A002030B583B000F044FC114B1B6842
:105160001BB100F061FC03B030BD0F4D2846FEF7C7
:105170003EFF0E4C2046FEF73AFF0D4B1D600D4BD7
:105180001C60002300930C4B0C4A10210A20FFF7EF
:1051900066F8044B18600028E3D00949FFF782FA4B
:1051A000DFE700BFA41A0020C41A0020B01A0020B4
:1051B000AC1A0020A81A0020AC190020FC1900200D
:1051C000D872000810B588B0FFF7C4FF124B1B68F7
:1051D000CBB100240594069407AA06A905A800F0FF
:1051E00087FA059B0293069B0193022300932346B3
:1051F000079A0A490A48FFF713FC0A4B186010B1D6
:10520000012008B010BD4FF0500383F31188BFF3A5
:105210006F8FBFF34F8FFEE7A41A0020E0720008E3
:1052200001550008A01A0020B8B19C460346184852
:10523000006858B300B585B000910192029305292A
:105240001CDCFFF7FBFE022810D000231A4669463B
:105250000F480068FFF74CF815E04FF0500383F358
:105260001188BFF36F8FBFF34F8FFEE70023069ABD
:10527000694607480068FFF73BF804E000236246F0
:105280006946FFF7F9F805B05DF804FB00207047A8
:10529000A41A002070B582B01A4B1B681A6852B36A
:1052A000DB681E68DC68251D2846FEF7D2FE636AAF
:1052B00020469847E369012BEED1A36933449E420F
:1052C00007D26360246129460E4B1868FEF7A8FEDA
:1052D000E2E7002100910B4632462046FFF7A4FF8B
:1052E0000028D9D14FF0500383F31188BFF36F8F9B
:1052F000BFF34F8FFEE7044A10680249086013604D
:1053000002B070BDAC1A0020A81A002038B50546BE
:10531000FFF746FC0446074B1B68834205D8002371
:105320002B60044B1C60204638BDFFF7B3FF012300
:105330002B60F6E79C1A002070B582B006460D4639
:1053400014490968C968CC68201DFEF782FEE1692E
:10535000012904D0636A2046984702B070BDA16954
:1053600033462A4631442046FFF7D0FE0028F1D0CC
:10537000002100910B4632462046FFF755FF0028DA
:10538000E8D14FF0500383F31188BFF36F8FBFF361
:105390004F8FFEE7AC1A002070B582B006460C466F
:1053A000FFF7F6FB01A8FFF7B1FF019B23BB054602
:1053B00044B9B0420CD3FFF785FC29463046FFF7CD
:1053C000BBFF1BE00E4B1B681C68B4FA84F4640935
:1053D0002246711B0B4B1868FFF778F9FFF772FC38
:1053E00060B94FF0E0234FF08052C3F8042DBFF3B3
:1053F0004F8FBFF36F8F01E0FFF764FC02B070BD09
:10540000A81A0020A41A002010B588B002E0049B5E
:10541000002B0FDA002204A9384B1868FFF792F826
:10542000002869D0049B002BF1DA07990698059BA8
:105430009847ECE7069C636913B1201DFEF709FE4F
:1054400003A8FFF763FF049B092BE3D801A252F8DE
:1054500023F000BF7D5400087D5400087D540008EF
:1054600015540008C3540008E95400087D5400088E
:105470007D54000815540008C3540008059BA16919
:10548000024619442046FFF741FE0028C2D0636A55
:1054900020469847E369012BBCD1A2690021009105
:1054A0000B46059802442046FFF7BEFE0028B1D106
:1054B0004FF0500383F31188BFF36F8FBFF34F8F0B
:1054C000FEE70599A16131B1034602460144204639
:1054D000FFF71CFE9EE74FF0500383F31188BFF3E4
:1054E0006F8FBFF34F8FFEE794F82C30002B91D1D4
:1054F000204600F0E7F98DE708B010BDA41A00209F
:1055000000B583B001A8FFF7F1FD0199FFF744FF53
:10551000FFF77AFFF6E70000EFF3058393B9EFF3A7
:10552000108393B90C4B1868022804D080B90A4B39
:1055300001221A607047EFF31183002BF6D06FF051
:10554000050070476FF0050070476FF00500704769
:105550004FF0FF30704700BF9021002008B5EFF3F7
:105560000583B3B9EFF31083B3B90E4B1B68022B5D
:1055700008D0012B13D10B4B02221A60FFF7BCFAA3
:10558000002008BDEFF31182002AF2D06FF0050071
:10559000F7E76FF00500F4E76FF00500F1E74FF073
:1055A000FF30EEE790210020F0B587B0002404948E
:1055B000EFF30584002C43D1EFF31083002B3FD190
:1055C000334B1B68022B16D0002839D000238DF8EE
:1055D000173062B3156895B1936903B918235C1E3F
:1055E000372C51D8546814F0010F4FD156694EB181
:1055F0004FEA960C08E0EFF311830BBBE4E70DF1E3
:105600001705E9E74FF0800C94682CB1D7685B2F41
:1056100002D9176907B1B6B914B14FF0FF340CE0E5
:10562000D46894B914699CB14FF0FF3405E00024AC
:1056300018234FF0800C0DF11705012C0AD0ACB1E6
:10564000049807B0F0BD0124F7E74FF0FF34F4E70A
:105650000024F2E7146992680292019400930B46C9
:1056600062462946FFF7DCF90490E9E704AA0192B3
:1056700000930B461FFA8CF22946FFF70BFA01281C
:10568000DED000230493DBE70020DAE70020D8E730
:105690009021002008B5EFF30583A3B9EFF3108341
:1056A000A3B90C4B1B68022B02D040B9002008BDE7
:1056B000EFF31183002BF8D06FF00500F7E7FFF749
:1056C0007DFB0020F3E76FF00500F0E76FF00500C9
:1056D000EDE700BF90210020034B0360034B0B60FC
:1056E00080231360704700BF34210020341F002046
:1056F000034B0360034B0B604FF4807313607047E0
:10570000D81E0020D81A0020124A12F0070F1ED00F
:10571000D11D21F00701C1F5406313440A460E482C
:105720000260002141601344083B23F007030B484B
:10573000036059601960991A51601360084B196031
:10574000084B1960084B4FF000421A6070474FF445
:105750004063E4E7AC210020A4210020A021002028
:10576000982100209C21002094210020154B1A46EE
:105770001B688342FBD3516802EB010C844509D0BE
:10578000416800EB010C634509D00360904218D0DA
:10579000106070474068014451601046F0E710B453
:1057A000094C2468A3420AD05B681944416013681D
:1057B0001B680360904200D0106010BC704704600A
:1057C000F8E77047A4210020A021002038B5044646
:1057D000FFF7DEF9364B1B68B3B1364B1B681C4232
:1057E0004CD1002C4CD004F1080214F0070F02D069
:1057F00022F007020832002A51D02F4B1B68934237
:105800004FD32E490C6804E0FFF77EFFE5E7214601
:105810001C466368934202D22368002BF7D1244BC5
:105820001B68A3423FD00D68083523680B6063688E
:105830009B1A102B10D9A01810F0070F08D04FF0AA
:10584000500383F31188BFF36F8FBFF34F8FFEE7D1
:1058500043606260FFF78AFF626817490B689B1A12
:105860000B60174909688B4201D215490B60114B37
:105870001B68134363600023236002E0002500E0FF
:105880000025FFF71FFA15F0070F0ED04FF0500359
:1058900083F31188BFF36F8FBFF34F8FFEE70025AF
:1058A000EFE70025EDE70025EBE7284638BD00BF10
:1058B000A0210020942100209C210020A421002070
:1058C0009821002080B338B50446A0F1080550F8AF
:1058D000043C164A1268134208D14FF0500383F378
:1058E0001188BFF36F8FBFF34F8FFEE750F8081C8E
:1058F00041B14FF0500383F31188BFF36F8FBFF3B3
:105900004F8FFEE723EA020340F8043CFFF740F91B
:1059100054F8041C064A13680B4413602846FFF72A
:1059200025FFFFF7CFF938BD704700BF9421002055
:105930009C21002082B0002301930D4B1B68B3F122
:10594000FF3F08D04FF0500383F31188BFF36F8FF0
:10595000BFF34F8FFEE74FF0500383F31188BFF37F
:105960006F8FBFF34F8F019B002BFCD002B07047AD
:105970006C00002006480068006880F3088862B662
:1059800061B6BFF34F8FBFF36F8F00DF00BF000022
:1059900008ED00E04FF0807340F8043C21F0010175
:1059A00040F8081C034B40F80C3C40F8202C4038D1
:1059B000704700BF355900080000000000000000DB
:1059C000074B19680868B0E8F00F80F30988BFF347
:1059D0006F8F4FF0000080F311884EF00D0E70476E
:1059E000A81900204FF0500383F31188BFF36F8F85
:1059F000BFF34F8F0B4A136801331360012B00D0A4
:105A000070474FF0E023D3F8043D13F0FF0FF7D0B9
:105A10004FF0500383F31188BFF36F8FBFF34F8FA5
:105A2000FEE700BF6C000020094B1B6843B94FF034
:105A3000500383F31188BFF36F8FBFF34F8FFEE7DF
:105A4000013B034A13600BB983F31188704700BF11
:105A50006C000020000000000000000000000000BA
:105A6000EFF30980BFF36F8F0D4B1A6820E9F00F39
:105A700010602DE908404FF0500080F31188FFF7C7
:105A8000C3F94FF0000080F31188BDE808401968A1
:105A90000868B0E8F00F80F30988BFF36F8F704794
:105AA000A819002008B54FF0500383F31188BFF305
:105AB0006F8FBFF34F8FFFF779F828B14FF0E023D6
:105AC0004FF08052C3F8042D002383F3118808BDE2
:105AD0004FF0E022002313619361054B1B680549D9
