:020000040800F2
:1000000000500020E53900084307000845070008B4
:1000100047070008490700084B07000800000000D8
:100020000000000000000000000000009137000800
:100030004D0700080000000031380008753800083E
:100040002D3A00082D3A00082D3A00082D3A0008F4
:100050002D3A00082D3A00082D3A00082D3A0008E4
:100060002D3A00082D3A00082D3A00082D3A0008D4
:100070002D3A00082D3A00082D3A00082D3A0008C4
:100080002D3A00082D3A00082D3A00082D3A0008B4
:100090002D3A00082D3A00082D3A00082D3A0008A4
:1000A0002D3A0008510700082D3A00082D3A0008A3
:1000B0002D3A00082D3A00082D3A00082D3A000884
:1000C0002D3A00082D3A00082D3A00082D3A000874
:1000D0002D3A00082D3A00082D3A00082D3A000864
:1000E0002D3A00082D3A00082D3A000800000000C3
:1000F0000000000000000000000000000000000000
:0C01000000000000000000005FF808F1A3
:100110000348044B834202D0034B03B11847704796
:100120001000002010000020000000000548064BD1
:100130001B1AD90F01EBA301491002D0034B03B1E5
:100140001847704710000020100000200000000039
:1001500010B5064C237843B9FFF7DAFF044B13B10F
:100160000448AFF300800123237010BD100000206D
:1001700000000000A43A000808B5054B1BB1054972
:100180000548AFF30080BDE80840FFF7CFBF00BFD0
:100190000000000014000020A43A000808B502681E
:1001A000034B9A4200D008BD00F060FBFBE700BFA4
:1001B000002C014072B6FEE700B595B02822002160
:1001C0000DEB020003F066FC0023059306930793F2
:1001D00008930993019302930393049301220A92D3
:1001E0004FF480330B930E920222119212934FF42C
:1001F000801313930AA800F075FBD0B90F23059361
:1002000002230693002307934FF480620892099318
:10021000012105A800F098FD68B9102301934FF45F
:100220008003049301A800F089FE30B915B05DF891
:1002300004FBFFF7BFFFFFF7BDFFFFF7BBFF08B5EC
:1002400000F002FBFFF7B8FF00F012F800F090F8A2
:1002500000F0ACF800F01EF900F05EF900F0D5F9FE
:1002600003F040F800F068F803F05EF8FEE70000E5
:1002700030B589B0002404940594069407941A4B71
:100280009A6942F020029A619A6902F02002019272
:10029000019A9A6942F008029A619A6902F008028A
:1002A0000292029A9A6942F004029A619B6903F0F1
:1002B00004030393039B0D4D22461021284600F0B2
:1002C000D7FF01222021284600F0D2FF30230493DB
:1002D0000123059306940223079304A9284600F0FE
:1002E000B9FE09B030BD00BF00100240000C014053
:1002F00008B500F08AF908230A4A0021084600F0F0
:1003000005FA4FF4FA7003F0ABF800F07EF9082319
:10031000054A0021084600F0F9F94FF4FA7003F09D
:100320009FF8E6E7BC3A0008C43A000808B54FF465
:10033000FA7003F095F8FAE708B5074A0021074874
:1003400003F018F8064B1860064A0021064803F02F
:1003500011F8064B186008BDFC3A0008F1020008CD
:1003600030000020D83A00082D0300082C0000209F
:1003700008B50B480B4B03600B4B436000238360B5
:10038000C3604FF48042026143618361C3610362D1
:1003900001F06AF900B908BDFFF70CFFFBE700BFE9
:1003A0008800002000540040A086010008B50B48DA
:1003B0000B4B03600B4B436000238360C3604FF41F
:1003C0008042026143618361C361036201F04CF9C1
:1003D00000B908BDFFF7EEFEFBE700BF34000020C8
:1003E00000580040A086010010B588B00023049397
:1003F0000593069307930368224A934204D0224A46
:1004000093421FD008B010BD204CA36943F00803ED
:10041000A361A36903F008030093009BC023049326
:10042000122305930323079304A9194800F012FE31
:10043000E36943F40013E361E36903F400130193F8
:10044000019BDFE7114CA36943F00803A361A36993
:1004500003F008030293029B4FF4406304931223BA
:1004600005930323079304A9094800F0F3FDE3690A
:1004700043F48003E361E36903F480030393039B84
:10048000C0E700BF00540040005800400010024088
:10049000000C014008B50948094B0360082343607C
:1004A0000223836000238361C361036201F0D6FBF2
:1004B00000B908BDFFF77EFEFBE700BFDC000020AF
:1004C000005C00400268094B9A4200D0704782B03D
:1004D00003F5DA33DA6942F40002DA61DB6903F426
:1004E00000030193019B02B0704700BF005C004015
:1004F00000B585B08DF80C108DF80D004FF6FF7328
:100500000093022303AA7821024801F08BF905B079
:100510005DF804FB8800002008B5642000F0B8F9FD
:100520000021AE20FFF7E4FF00212020FFF7E0FFCD
:1005300000211020FFF7DCFF0021B020FFF7D8FFDB
:1005400000210846FFF7D4FF00211020FFF7D0FF5D
:100550000021C820FFF7CCFF00214020FFF7C8FF93
:1005600000218120FFF7C4FF0021FF20FFF7C0FF1B
:100570000021A120FFF7BCFF0021C820FFF7B8FF32
:100580000021A620FFF7B4FF0021A820FFF7B0FF4D
:1005900000213F20FFF7ACFF0021A420FFF7A8FFB8
:1005A0000021D320FFF7A4FF00210846FFF7A0FF9A
:1005B0000021D520FFF79CFF0021F020FFF798FFD6
:1005C0000021D920FFF794FF00212220FFF790FFA0
:1005D0000021DA20FFF78CFF00211220FFF788FFAF
:1005E0000021DB20FFF784FF00212020FFF780FFA0
:1005F00000218D20FFF77CFF00211420FFF778FFFA
:100600000021AF20FFF774FF08BD38B500250AE0D0
:1006100040210020FFF76CFF0134E4B214F0800F9A
:10062000F6D00135EDB2072D0FD8A5F1500000210D
:10063000C0B2FFF75DFF00210846FFF759FF002118
:100640001020FFF755FF0024E8E738BD10B5044639
:10065000A1F150000021C0B2FFF74AFF200900219C
:1006600040F01000FFF744FF002104F00F00FFF7F7
:100670003FFF10BDF8B507460E46203AD5B210F040
:10068000800F07D1102B09D031463846FFF7DEFF27
:10069000002433E00236F6B20027F3E7314638464D
:1006A000FFF7D4FF002408E004EB05134021154AAE
:1006B000D05CFFF71DFF0134E4B2072CF4D9711CA4
:1006C000C9B23846FFF7C2FF002409E004EB051366
:1006D000083340210B4AD05CFFF70AFF0134E4B233
:1006E000072CF3D90CE005EB4502074B03EB420363
:1006F0004021185DFFF7FCFE0134E4B2052CF2D96D
:10070000F8BD00BF203B0008104100082DE9F04172
:1007100004460E4617469846002501E00135EDB225
:100720007A5D62B1434631462046FFF7A3FF0834A5
:10073000E4B2782CF2D90236F6B20024EEE7BDE836
:10074000F081FEE7FEE7FEE7FEE7FEE77047000008
:1007500008B5024801F05CF908BD00BFCC030020D9
:1007600000B583B0114B9A6942F001029A619A690F
:1007700002F001020092009ADA6942F08052DA61D6
:10078000DB6903F080530193019B00220F216FF07E
:10079000010000F0B9FD064A536823F0E06343F01E
:1007A0000073536003B05DF804FB00BF001002400B
:1007B0000000014030B589B004461E4B9A6942F4EE
:1007C00000629A619B6903F400630193019B02A993
:1007D00003A800F095FB00F083FB174AA2FB00235F
:1007E0009B0C013B1548164A026040F2E732C2609A
:1007F0004360002303618360836101F001FA0546D1
:1008000010B1284609B030BD0C4801F0C9F80546C2
:100810000028F6D1192000F087FD0F2C01D9012501
:10082000EFE700222146192000F06EFD054B1C6009
:10083000E7E700BF0010024083DE1B43CC0300202B
:10084000002C01400400002008B5074A136843F05B
:1008500010031360032000F045FD0F20FFF7AAFFEF
:10086000FFF77EFF002008BD00200240034A116808
:10087000034B1B780B441360704700BF1404002027
:1008800000000020014B1868704700BF14040020CE
:1008900038B50446FFF7F6FF0546B4F1FF3F02D036
:1008A000044B1B781C44FFF7EDFF401BA042FAD31A
:1008B00038BD00BF0000002082B0084B1B68084A0A
:1008C000A2FB03235B0A00FB03F3019300BF019B20
:1008D0005A1E0192002BF9D102B070470800002087
:1008E000D34D6210002800F0F18170B582B004464B
:1008F000036813F0010F2CD0994B5B6803F00C03D5
:10090000042B1DD0964B5B6803F00C03082B12D010
:100910006368B3F5803F41D0002B55D103F180438C
:1009200003F504331A6822F480321A601A6822F43C
:1009300080221A6037E08A4B5B6813F4803FE7D06F
:10094000874B1B6813F4003F03D06368002B00F053
:10095000BF81236813F0020F75D0814B5B6813F0E1
:100960000C0F5FD07E4B5B6803F00C03082B54D058
:100970002369002B00F08A807A4B01221A60FFF76E
:1009800081FF0546764B1B6813F0020F75D1FFF708
:1009900079FF401B0228F5D903209EE1704A1368B5
:1009A00043F480331360636843B3FFF76BFF05467E
:1009B0006B4B1B6813F4003FCBD1FFF763FF401B69
:1009C0006428F5D9032088E1B3F5A02F09D0644B42
:1009D0001A6822F480321A601A6822F480221A609F
:1009E000E1E703F18043A3F53C331A6842F4802227
:1009F0001A601A6842F480321A60D4E7FFF742FFA7
:100A00000546574B1B6813F4003FA2D0FFF73AFF8F
:100A1000401B6428F5D903205FE1514B5B6813F458
:100A2000803FA5D14E4B1B6813F0020F03D0236902
:100A3000012B40F04F814A4A136823F0F8036169A3
:100A400043EAC1031360236813F0080F33D0A3698E
:100A5000002B5CD0434B0122C3F88024FFF712FF28
:100A600005463F4B5B6A13F0020F21D1FFF70AFFE7
:100A7000401B0228F5D903202FE1394A136823F0DF
:100A8000F803616943EAC1031360DCE7354B0022D8
:100A90001A60FFF7F7FE0546314B1B6813F0020F93
:100AA000D1D0FFF7EFFE401B0228F5D9032014E157
:100AB0000120FFF701FF236813F0040F00F0968078
:100AC000274BDB6913F0805F34D1254BDA6942F0A4
:100AD0008052DA61DB6903F080530193019B0125A9
:100AE000214B1B6813F4807F26D0E368012B3DD097
:100AF000002B53D103F1804303F504331A6A22F02B
:100B000001021A621A6A22F004021A6233E0154BDB
:100B10000022C3F88024FFF7B5FE0546104B5B6A40
:100B200013F0020FC7D0FFF7ADFE401B0228F5D926
:100B30000320D2E00025D3E70B4A136843F4807307
:100B40001360FFF79FFE0646074B1B6813F4807F78
:100B5000CBD1FFF797FE801B6428F5D90320BCE0BA
:100B60000010024000004242007000405F4A136AD9
:100B700043F001031362E36833B3FFF783FE0646D5
:100B80005A4B1B6A13F0020F2FD1FFF77BFE801B1D
:100B900041F288339842F3D903209EE0052B09D017
:100BA000524B1A6A22F001021A621A6A22F00402F7
:100BB0001A62E0E74D4B1A6A42F004021A621A6A9E
:100BC00042F001021A62D6E7FFF75CFE0646474B89
:100BD0001B6A13F0020F08D0FFF754FE801B41F28E
:100BE00088339842F3D9032077E0E5B9E369002B15
:100BF00072D03E4A526802F00C02082A56D0022BEC
:100C000017D03B4B00221A66FFF73CFE0446374BD9
:100C10001B6813F0007F47D0FFF734FE001B02284B
:100C2000F5D9032059E0314AD36923F08053D361C9
:100C3000DCE72F4B00221A66FFF724FE05462B4BFC
:100C40001B6813F0007F06D0FFF71CFE401B022834
:100C5000F5D9032041E0236AB3F5803F1AD0234938
:100C60004B6823F47413226A606A024313434B6097
:100C70001F4B01221A66FFF705FE04461B4B1B683B
:100C800013F0007F0ED1FFF7FDFD001B0228F5D900
:100C9000032022E0154A536823F40033A1680B4374
:100CA0005360DCE7002018E0002016E0012B16D08E
:100CB0000E4B5B6803F48031226A914211D103F438
:100CC0007013626A93420ED1002006E00120704743
:100CD000012002E0012000E0002002B070BD0120F0
:100CE000FBE70120F9E70120F7E700BF0010024011
:100CF000000042420F4B5B6803F00C02082A01D04F
:100D00000D487047C3F383420C49885C13F4803F5D
:100D10000BD0084B5B68C3F34043094AD35C064AD7
:100D200002FB00F0B0FBF3F07047064B03FB00F052
:100D3000704700BF0010024000127A003C430008D8
:100D40003843000800093D00002800F0A08070B57D
:100D50000D460446524B1B6803F007038B420BD22F
:100D60004F4A136823F007030B431360136803F023
:100D700007038B4240F08D80236813F0020F17D0D9
:100D800013F0040F04D0474A536843F4E063536000
:100D9000236813F0080F04D0424A536843F46053A9
:100DA0005360404A536823F0F003A1680B4353603B
:100DB000236813F0010F31D06368012B20D0022B80
:100DC00025D0384A126812F0020F64D035494A68BB
:100DD00022F0030213434B60FFF754FD0646314BEC
:100DE0005B6803F00C036268B3EB820F16D0FFF769
:100DF00049FD801B41F288339842F0D9032045E039
:100E0000284A126812F4003FE0D101203EE0254A52
:100E1000126812F0007FD9D1012037E0204B1B6807
:100E200003F00703AB420AD91D4A136823F00703F6
:100E30002B431360136803F00703AB422DD12368E3
:100E400013F0040F06D0174A536823F4E063E168F7
:100E50000B435360236813F0080F07D0114A5368FF
:100E600023F46053216943EAC1035360FFF742FF53
:100E70000C4B5B68C3F303130B4AD35CD8400B4B9A
:100E800018600B4B1868FFF795FC002070BD01201F
:100E900070470120FAE70120F8E70120F6E700BFDC
:100EA00000200240001002405443000808000020C7
:100EB00004000020014B1868704700BF08000020A4
:100EC00008B5FFF7F7FF044B5B68C3F30223034A3F
:100ED000D35CD84008BD00BF001002404C4300085E
:100EE00008B5FFF7E7FF044B5B68C3F3C223034A6F
:100EF000D35CD84008BD00BF001002404C4300083E
:100F00000F2303600B4B5A6802F0030242605A68D9
:100F100002F0F00282605A6802F4E062C2605B682C
:100F2000DB0803F4E0630361034B1B6803F0070372
:100F30000B607047001002400020024070B582B084
:100F40000446036813F0010F36D03F4BDB6913F002
:100F5000805F49D13C4BDA6942F08052DA61DB694B
:100F600003F080530193019B0125384B1B6813F458
:100F7000807F3BD0344B1B6A13F4407313D06268FC
:100F800002F440729A420ED02F4A136A23F4407042
:100F90002F490126C1F840640026C1F84064106260
:100FA00013F0010F36D1284A136A23F440736168A5
:100FB0000B431362002D3ED1236813F0020F06D0BD
:100FC000214A536823F44043A1680B4353602368CC
:100FD00013F0100F34D01C4A536823F48003E168E7
:100FE0000B43536000202CE00025BEE7174A13682E
:100FF00043F480731360FFF745FC0646134B1B68F0
:1010000013F4807FB6D1FFF73DFC801B6428F5D92F
:10101000032016E0FFF736FC06460B4B1B6A13F065
:10102000020FC0D1FFF72EFC801B41F2883398429B
:10103000F3D9032005E0D36923F08053D361BBE7E4
:10104000002002B070BD00BF0010024000700040E0
:101050000000424270B582B00024A446A2E07E4D5A
:10106000AB4210D007D97D4DAB420CD005F5803591
:10107000AB4208D013E0A5F58015AB4203D005F5CF
:101080007025AB4207D18B68002B55D0012B4ED079
:101090004261082403E0A5F58015AB42F3D0BEF110
:1010A000FF0F4BD806464FEA8C0233680F25954058
:1010B00023EA050304FA02F2134333604B6813F08A
:1010C000805F6DD0664B9A6942F001029A619B691C
:1010D00003F001030193019B4FEA9C02951C614BB5
:1010E00053F825600CF00305AD000F23AB4026EA52
:1010F00003065D4B984228D003F58063984200F0C8
:101100008D8003F58063984200F08A8003F5806348
:10111000984218D0042319E0CC68C0E7CC680434A6
:10112000BDE7CC680834BAE7CC680C34B7E7026195
:101130000824B4E70024B2E70424B0E7061DACF1AC
:1011400008029200B1E7032300E00023AB403343E1
:101150000232444D45F822304B6813F4801F61D0B1
:10116000424A936843EA0E0393604B6813F4001FEE
:101170005ED03E4AD36843EA0E03D3604B6813F453
:10118000003F5BD0394A536843EA0E0353604B6813
:1011900013F4803F58D0354A136843EA0E031360B6
:1011A0000CF1010C0B6833FA0CF253D0012202FA55
:1011B0000CF203EA020E32EA0303F1D14B68122B60
:1011C0003FF64DAF122B3FF66AAF01A555F823F05D
:1011D00087100008191100082311000835110008B4
:1011E0009F1000089F1000089F1000089F10000823
:1011F0009F1000089F1000089F1000089F10000813
:101200009F1000089F1000089F1000089F10000802
:101210009F1000081D11000829110008012395E7FF
:10122000022393E7114A936823EA0E0393609CE735
:101230000E4AD36823EA0E03D3609FE70B4A536834
:1012400023EA0E035360A2E7084A136823EA0E0359
:101250001360A5E702B070BD00002210000031103D
:10126000001002400000014000080140000401405D
:101270000AB101617047090401617047002808DB69
:101280000901C9B200F1604000F5614080F8001327
:10129000704700F00F000901C9B2014B19547047A3
:1012A00014ED00E000B500F00700C0F1070CBCF140
:1012B000040F28BF4FF0040C031D062B0FD9C31ECB
:1012C0004FF0FF3E0EFA0CF021EA000199400EFAB1
:1012D00003FE22EA0E0241EA02005DF804FB00234D
:1012E000EEE70000074AD36823F4E0631B041B0CFD
:1012F000000200F4E060034343F0BF6343F40033B3
:10130000D360704700ED00E010B50446054BD86887
:10131000C0F30220FFF7C6FF01462046FFF7AEFFED
:1013200010BD00BF00ED00E0002807DB00F01F0249
:10133000400901239340024A42F82030704700BF21
:1013400000E100E003685A6912F4806F01D10020C7
:1013500070476FF480625A6100230363202280F893
:101360003D2080F83E30026C42F00402026480F8B6
:101370003C30012070472DE9F04106460C461746E7
:1013800098463BE0FFF77EFA069BC01A404502D81C
:10139000B8F1000F32D1012D18D033689B6924EACF
:1013A00003039BB2B3FA83F35B099F4226D1002368
:1013B0003363202286F83D2086F83E30326C42F0BE
:1013C0002002326486F83C30012027E033685B69F4
:1013D00024EA03039BB2B3FA83F35B09E5E73368BE
:1013E0005B6924EA030C1FFA8CFCBCFA8CFC4FEA04
:1013F0005C1C674511D1B8F1FF3FC3D1C4F3074569
:10140000012DECD033689B6924EA030C1FFA8CFC95
:10141000BCFA8CFC4FEA5C1CEBE70020BDE8F081D5
:101420002DE9F84305460E469046994653E01A6862
:1014300042F400721A602B686FF480625A610023D4
:101440002B63202285F83D2085F83E302A6C42F03F
:1014500004022A6485F83C3001204AE0FFF712FAC2
:10146000A0EB0900404502D8B8F1000F33D1012F9D
:1014700017D02B689B6926EA03039BB2003B18BF79
:10148000012343B300232B63202285F83D2085F8F8
:101490003E302A6C42F020022A6485F83C3001205C
:1014A00027E02B685B6926EA03039BB2003B18BF69
:1014B0000123E6E72B689C6926EA0404A4B2003CF9
:1014C00018BF0124A4B12B685A6912F4806FAED101
:1014D000B8F1FF3FC2D1C6F30747012FEAD12B680D
:1014E0005C6926EA0404A4B2003C18BF0124E9E7C1
:1014F0000020BDE8F8830000F0B583B004460D4637
:1015000016461F46C36A082B0DD0012B0BD013F5CE
:10151000803F08D0036B122B0AD10268136843F492
:101520008073136004E02268136843F480731360CF
:101530000097334600224FF001112046FFF71BFFB2
:1015400080B92369B3F5804F16D1236805F0FE05F5
:101550001D613B46324613492046FFF761FFF8B94B
:1015600003B0F0BD23681B6813F4807F02D04FF4F2
:10157000007323640320F3E7EB11226803F00603F2
:1015800043F0F00313613B46324607492046FFF71C
:1015900047FF18B92368EDB21D61DAE70120DFE7E4
:1015A0000120DDE7020001000800010070B50446DB
:1015B0000D46164623685B6913F0800F21D1204643
:1015C000FFF7C0FEF8B9B5F1FF3FF3D0FFF75AF9C6
:1015D000801BA84201D8002DECD123685B6913F071
:1015E000800FE7D100232363202284F83D2084F874
:1015F0003E30226C42F02002226484F83C3001200C
:1016000000E0002070BD0120FCE770B504460D46E7
:10161000164623685B6913F0040F21D12046FFF7BB
:1016200091FEF8B9B5F1FF3FF3D0FFF72BF9801B1E
:10163000A84201D8002DECD123685B6913F0040F98
:10164000E7D100232363202284F83D2084F83E3034
:10165000226C42F02002226484F83C30012000E039
:10166000002070BD0120FCE7002800F0CC8070B5A0
:10167000044690F83D30002B77D0242384F83D3089
:101680002268136823F0010313602268136843F48F
:10169000004313602268136823F400431360FFF7CC
:1016A0000FFC62685A4B9A4264D85A4B98428CBFDE
:1016B00000230123002B40F0A8805749A1FB0031F3
:1016C0008B0C25686A6822F03F0242EA91426A6008
:1016D00021680A6A22F03F0266684D4DAE424FD83B
:1016E000013313430B622168CA6922F44F4222F08E
:1016F000FF026568464B9D424CD8431E6D00B3FB0C
:10170000F5F3013340F6FC70034278D0C3F30B03CA
:101710001A43CA6121680B6823F0C003E269206A9A
:10172000024313430B6021688B6823F4034323F0C7
:10173000FF032269E068024313438B602168CB6892
:1017400023F0FF036269A06902431343CB60226860
:10175000136843F00103136000202064202384F801
:101760003D30206384F83E0070BD80F83C30FEF7C9
:101770003BFE82E7294B98428CBF0023012399E767
:101780004FF4967505FB03F3254DA5FB03539B0909
:101790000133A6E7A668BEB9431E05EB450CB3FBB3
:1017A000FCF30133C3F30B03B3FA83F35B0943BBCD
:1017B000C6B9431E05EB4505B3FBF5F30133C3F38F
:1017C0000B0343F40043A3E7431E05EB850C0CEB2E
:1017D0008C0CB3FBFCF30133C3F30B03B3FA83F3B9
:1017E0005B09E4E7431E05EB850505EB8505B3FBC7
:1017F000F5F30133C3F30B0343F4404388E70423B9
:1018000086E7012384E7012070470120ACE700BF91
:10181000A08601007F841E0083DE1B43FF083D007D
:10182000D34D62102DE9F04385B004460F46914632
:1018300098460C9EFFF726F8054694F83D00C0B286
:10184000202804D00227384605B0BDE8F083009573
:10185000192301224F492046FFF78DFD002840F053
:10186000928094F83C30012B00F08F80012384F8A3
:101870003C3023681A6812F0010F03D11A6842F055
:1018800001021A602268136823F4006313602123A5
:1018900084F83D30102384F83E3000232364C4F8DC
:1018A0002490A4F82A80638D23853B4BE3622B466A
:1018B000324639462046FFF71FFE0746002866D10C
:1018C0000023039323685A6903929B690393039B44
:1018D00011E0236C042B01D00127B4E722681368C0
:1018E00043F400731360F7E72A4631462046FFF7BA
:1018F0008CFE00282ED1238D002B36D02A4631466F
:101900002046FFF753FE0028E3D1626A236812786D
:101910001A61606A431C6362618D89B2013989B2C0
:101920006185238D013B9BB223852268516911F0AB
:10193000040FD9D0002BD7D043781361636A0133E9
:101940006362638D9BB2013B9BB26385238D013B38
:101950002385C9E7236C042B01D0012773E7226894
:10196000136843F400731360F7E72268136843F4C5
:1019700000731360202384F83D30002384F83E3048
:1019800084F83C305FE702275DE702275BE7012729
:1019900059E700BF020010000000FFFF7047000081
:1019A00090F83D30DBB2012B27D1022380F83D3087
:1019B0000268D36843F00103D3600368114A93427D
:1019C00010D0B3F1804F0DD0A2F59432934209D0DC
:1019D00002F58062934205D01A6842F001021A6053
:1019E000002070479A6802F00702062A07D01A689A
:1019F00042F001021A600020704701207047002069
:101A0000704700BF002C0140704770477047704717
:101A100010B5044603681A6912F0020F11D0DA6893
:101A200012F0020F0DD06FF002021A61012303774A
:101A300003689B6913F0030F70D0FFF7E6FF0023E4
:101A4000237723681A6912F0040F12D0DA6812F0B3
:101A5000040F0ED06FF004021A610223237723686B
:101A60009B6913F4407F5FD02046FFF7CEFF002331
:101A7000237723681A6912F0080F12D0DA6812F07F
:101A8000080F0ED06FF008021A6104232377236831
:101A9000DB6913F0030F4ED02046FFF7B6FF00239B
:101AA000237723681A6912F0100F12D0DA6812F047
:101AB000100F0ED06FF010021A61082323772368ED
:101AC000DB6913F4407F3DD02046FFF79EFF0023E3
:101AD000237723681A6912F0010F03D0DA6812F035
:101AE000010F36D123681A6912F0800F03D0DA682B
:101AF00012F0800F34D123681A6912F0400F03D01E
:101B0000DA6812F0400F32D123681A6912F0200F00
:101B100003D0DA6812F0200F30D110BDFFF774FF48
:101B20002046FFF773FF8AE72046FFF76DFF204648
:101B3000FFF76CFF9BE72046FFF766FF2046FFF7A5
:101B400065FFACE72046FFF75FFF2046FFF75EFF2B
:101B5000BDE76FF001021A612046FEF71FFBC1E7E7
:101B60006FF080021A61204600F077F8C3E76FF04B
:101B700040021A612046FFF74AFFC5E76FF02002D6
:101B80001A61204600F068F8C7E7000003681B4AA6
:101B900090420AD0B0F1804F07D0A2F59432904223
:101BA00003D002F58062904203D123F070034A68AB
:101BB0001343124A90420AD0B0F1804F07D0A2F5E9
:101BC0009432904203D002F58062904203D123F414
:101BD0004073CA68134323F080034A6913430360C8
:101BE0008B68C3620B688362044B984202D0012366
:101BF000436170470B690363F9E700BF002C0140A4
:101C000040B310B5044690F83D30F3B1022384F898
:101C10003D30214651F8040BFFF7B8FF012384F84B
:101C2000463084F83E3084F83F3084F8403084F801
:101C3000413084F8423084F8433084F8443084F8EA
:101C4000453084F83D30002010BD80F83C30FFF76F
:101C5000A5FEDBE7012070477047704770B586B07E
:101C6000002800F08180044690F8A932EBB10323EC
:101C700084F8A932206800F080F8254655F8106BEA
:101C8000EC460FCDACE80F002B68CCF80030231DDC
:101C90000ECB304600F06AF8054658B1022384F8AE
:101CA000A9320125284606B070BD80F8A832FEF79B
:101CB00009FCDCE70021206800F069F82B4616E0FB
:101CC0005A1C02EB820104EBC1010120487002EBB7
:101CD000820104F8313004EBC1000021C17003EB34
:101CE000830004EBC0008163C1630164D3B2616807
:101CF0008B42E5D316E005EB850304EBC30300221A
:101D000083F8692183F8685183F86B21C3F878213F
:101D1000C3F87C2105EB850304EBC303C3F88021E2
:101D20000135EDB2A942E6D8254655F8106BEC46D0
:101D30000FCDACE80F002B68CCF80030231D0ECB84
:101D4000304600F026F8054620B1022384F8A93277
:101D50000125A7E7002384F82430012384F8A93261
:101D6000206800F027F89DE701259BE784B001A8D3
:101D700080E80E00002004B07047B0F8403023F433
:101D80007C535B045B0CA0F84030002070470020BF
:101D9000704784B0844601A880E80E000123ACF8A7
:101DA00040300020ACF84000ACF84400ACF85000E3
:101DB00004B0704700207047704700F1080343608B
:101DC0004FF0FF328260C3600361002303607047FD
:101DD00000230361704743684B609A688A605160D2
:101DE00099600861036801330360704730B40D687F
:101DF000B5F1FF3F11D000F108031C465B681A687B
:101E0000AA42FAD963684B6099608C60616008618E
:101E100003680133036030BC70470469F2E703696B
:101E2000416882688A60416851605A68824206D07F
:101E3000002202611A68013A1A60186870478268C5
:101E40005A60F5E710B5044601F0B4FCA26BE36BF1
:101E50009A4204D0002401F0CFFC204610BD01249A
:101E6000F9E710B5044601F0A5FCA36B23B90124E2
:101E700001F0C2FC204610BD0024F9E770B504460D
:101E80001546866B026C5AB903681BB100200136F7
:101E9000A66370BD406800F0C7FF00236360F6E7EB
:101EA0006DB9806801F0E8FDA368226C1344A3605B
:101EB0006268934219D32368A3602846E7E7C068A5
:101EC00001F0DAFDE368226C51429B1AE36022685C
:101ED000934202D263680B44E360022D01D00020DC
:101EE000D5E726B1013E0020D1E72846CFE7002004
:101EF000CDE708B50346026C62B10846D9681144C3
:101F0000D960D3F804C0614501D31968D960D96894
:101F100001F0B2FD08BD38B5054601F04BFC95F85F
:101F2000454064B201E0013C64B2002C0ADD6B6AFA
:101F300043B105F1240000F0CDFE0028F3D000F0FD
:101F40005DFFF0E7FF2385F8453001F055FC01F017
:101F500031FC95F8444064B201E0013C64B2002CCD
:101F60000ADD2B6943B105F1100000F0B3FE002833
:101F7000F3D000F043FFF0E7FF2385F8443001F091
:101F80003BFC38BD38B5E0B10D46044601F012FC0B
:101F90002368E26B216C01FB023060600020A063CB
:101FA000A360013A02FB0133E360FF2384F844306D
:101FB00084F84530FDB9236963B901F01DFC0120A7
:101FC00038BD4FF0500383F31188BFF36F8FBFF319
:101FD0004F8FFEE704F1100000F07CFE0028ECD0EB
:101FE0004FF0E0234FF08052C3F8042DBFF34F8F22
:101FF000BFF36F8FE1E704F11000FFF7DEFE04F19D
:102000002400FFF7DAFED8E738B51D46049C0B46DE
:1020100049B92460E063236401212046FFF7B2FF41
:1020200084F84C5038BD2260F4E740B94FF05003BB
:1020300083F31188BFF36F8FBFF34F8FFEE710B5A7
:1020400084B01C46844653B192B189B94FF0500315
:1020500083F31188BFF36F8FBFF34F8FFEE74FF00D
:10206000500383F31188BFF36F8FBFF34F8FFEE7E9
:102070006AB150230393039B502B13D04FF05003AE
:1020800083F31188BFF36F8FBFF34F8FFEE70029F3
:10209000EFD04FF0500383F31188BFF36F8FBFF37E
:1020A0004F8FFEE7012384F8463000949DF81830E6
:1020B0006046FFF7A9FF204604B010BDF0B585B01B
:1020C000019288B10F461D460446B1B1022D20D1C0
:1020D000E36B012B1DD04FF0500383F31188BFF346
:1020E0006F8FBFF34F8FFEE74FF0500383F31188DC
:1020F000BFF36F8FBFF34F8FFEE7036C002BE5D06C
:102100004FF0500383F31188BFF36F8FBFF34F8FEE
:10211000FEE700F079FE064658B9019B002B48D037
:102120004FF0500383F31188BFF36F8FBFF34F8FCE
:10213000FEE700263DE02A4639462046FFF79EFE90
:10214000636A7BB948B14FF0E0234FF08052C3F887
:10215000042DBFF34F8FBFF36F8F01F04DFB0120B4
:1021600005B0F0BD04F1240000F0B4FD0028F4D067
:102170004FF0E0234FF08052C3F8042DBFF34F8F90
:10218000BFF36F8FE9E701F037FB0020E8E702A813
:1021900000F0E6FD012619E0002384F8443021E038
:1021A000002384F8453023E02046FFF7B4FE00F01A
:1021B0006FFC01F0FFFAA26BE36B9A42BBD3022DD6
:1021C000B9D0019B002BDED0002EE0D001F014FB33
:1021D00000F0C4FB01F0EEFA94F8442052B2B2F1E0
:1021E000FF3FD9D094F8452052B2B2F1FF3FD7D08B
:1021F00001F002FB01A902A800F0BEFDD8B92046FB
:10220000FFF720FE0028CFD0019904F1100000F064
:102210002DFD2046FFF77FFE00F03AFC0028C8D1D4
:102220004FF0E0234FF08052C3F8042DBFF34F8FDF
:10223000BFF36F8FBDE72046FFF76DFE00F028FC6F
:1022400000208DE72DE9F84390B10F4616461C4655
:102250000546B1B1022C20D1EB6B012B1DD04FF004
:10226000500383F31188BFF36F8FBFF34F8FFEE7E7
:102270004FF0500383F31188BFF36F8FBFF34F8F7D
:10228000FEE7036C002BE5D04FF0500383F3118879
:10229000BFF36F8FBFF34F8FFEE701F075FBEFF3D6
:1022A00011884FF0500383F31188BFF36F8FBFF392
:1022B0004F8FAA6BEB6B9A4206D3022C04D00020FE
:1022C00088F31188BDE8F88395F845904FFA89F9AD
:1022D000224639462846FFF7D1FDB9F1FF3F06D027
:1022E00009F101035BB285F845300120E8E76B6A2C
:1022F0000BB90120E4E705F1240000F0EBFC18B174
:1023000026B101203060DBE70120D9E70120D7E7C3
:10231000F0B585B0019290B10F460446C1B100F00E
:1023200073FD064600BB019B002B5ED04FF05003AF
:1023300083F31188BFF36F8FBFF34F8FFEE74FF02A
:10234000500383F31188BFF36F8FBFF34F8FFEE706
:10235000036C002BE3D04FF0500383F31188BFF3DD
:102360006F8FBFF34F8FFEE700263EE039462046D1
:10237000FFF7BFFD013DA563236923B901F03CFAD6
:10238000012005B0F0BD04F1100000F0A3FC00280E
:10239000F4D04FF0E0234FF08052C3F8042DBFF388
:1023A0004F8FBFF36F8FE9E701F026FA0020E8E7CF
:1023B00002A800F0D5FC012621E0002384F8443077
:1023C00029E0002384F845302BE02046FFF7A3FDE9
:1023D00000F05EFB09E02046FFF79DFD00F058FB92
:1023E0002046FFF73EFD00283FD101F0E3F9A56B41
:1023F000002DBBD1019B002BD6D0002ED8D001F0F0
:10240000FBF900F0ABFA01F0D5F994F844305BB277
:10241000B3F1FF3FD1D094F845305BB2B3F1FF3F49
:10242000CFD001F0E9F901A902A800F0A5FC00282D
:10243000D1D12046FFF715FD0028C6D0019904F13F
:10244000240000F013FC2046FFF765FD00F020FBA0
:102450000028CAD14FF0E0234FF08052C3F8042D7A
:10246000BFF34F8FBFF36F8FBFE7002089E70000F6
:102470000023072B0CD8074A52F833200AB1013346
:10248000F7E7044A42F8331002EBC302506070478A
:10249000704700BF1804002070B504460D4616466C
:1024A00001F088F994F844305BB2B3F1FF3F0DD0EE
:1024B00094F845305BB2B3F1FF3F0BD001F09CF9CB
:1024C000A36B5BB12046FFF726FD70BD002384F8A7
:1024D0004430EDE7002384F84530EFE732462946E3
:1024E00004F1240000F0DAFBECE70000084B1B6865
:1024F0001B6823B9074B4FF0FF321A607047044B3B
:102500001B68DB68DB685A68024B1A60704700BFC3
:10251000C8040020600400202DE9F04780460D46E5
:1025200017469946089EDDF824A00A9C9200A52132
:10253000206B01F0AFFA236B07F18042013A03EB05
:10254000820727F007074FF0000CBCF10F0F09D8E6
:1025500015F80C3004EB0C0282F8343013B10CF196
:10256000010CF2E7002384F84330372E00D93726D8
:10257000E662E66400252565201DFFF729FC04F1CD
:102580001800FFF725FC2461C6F13806A6616462D5
:10259000656584F858504A464146384601F0E0F8EF
:1025A0002060BAF1000F01D0CAF80040BDE8F08702
:1025B00038B5002407E004EB840293000E48184469
:1025C000FFF7FBFB0134372CF5D90C4D2846FFF7FC
:1025D000F4FB0B4C2046FFF7F0FB0A48FFF7EDFB3E
:1025E0000948FFF7EAFB0948FFF7E7FB084B1D60C6
:1025F000084B1C6038BD00BFF4040020E00400203C
:10260000CC040020B00400209C040020840400209E
:10261000C8040020C404002010B5044601F0CAF824
:10262000224A136801331360214B1B685BB1214BB5
:102630001B686BB91E4B1B68DA6AE36A9A4207D8BB
:102640001B4B1C6004E01A4B1C601368012B29D043
:10265000194A1368013313606364E06A174B1B68FF
:10266000984201D9154B186000EB8000211D144BD6
:1026700003EB8000FFF7AFFB01F0BEF80D4B1B68CA
:102680007BB10B4B1B68DA6AE36A9A4209D24FF0BE
:10269000E0234FF08052C3F8042DBFF34F8FBFF3F8
:1026A0006F8F10BDFFF784FFD2E700BF80040020CA
:1026B00054090020740400206404002078040020E1
:1026C000F404002010B5044690F8593063B1012B92
:1026D00011D0022B0ED04FF0500383F31188BFF3BB
:1026E0006F8FBFF34F8FFEE7006B00F0D1FF2046E6
:1026F00000F0CEFF10BD00F0CBFFFBE70F4B1B68D7
:10270000D3B110B501F056F80D4BDB68DC68201D25
:10271000FFF785FB0B4A1368013B1360074A1368F8
:10272000013B136001F068F82046FFF7CBFF034B35
:102730001B68002BE6D110BD704700BF9804002035
:102740009C0400208004002008B5FFF7D7FF074B4A
:102750001B68012BF9D94FF0E0234FF08052C3F8EA
:10276000042DBFF34F8FBFF36F8FEEE7F40400200B
:1027700070B504460D46174B1E68174B1868043099
:10278000FFF74DFBB4F1FF3F0DD03444124B1B68F3
:102790005C60A64210D9114B18680F4B19680431C0
:1027A000FFF724FB70BD002DEFD00B4B19680431EF
:1027B0000B48FFF710FBF5E70A4B1868064B196842
:1027C0000431FFF713FB084B1B68A342EAD9064B01
:1027D0001C60E7E77C04002054090020C4040020AA
:1027E00084040020C80400206004002030B587B0B5
:1027F0000B9C7CB10C9DB5B15C250495049D5C2DB2
:102800001AD04FF0500383F31188BFF36F8FBFF3DB
:102810004F8FFEE74FF0500383F31188BFF36F8FA4
:10282000BFF34F8FFEE74FF0500383F31188BFF3E0
:102830006F8FBFF34F8FFEE70C9D2C63022485F84A
:10284000594000240394029505AC01940A9C00941D
:10285000FFF762FE0C98FFF7DFFE059807B030BD6A
:102860002DE9F04385B00746884614461E46900081
:1028700000F092FE08B381465C2000F08DFE054614
:10288000A8B1C0F83090002380F85930039302902B
:102890000D9B01930C9B00933346224641463846DC
:1028A000FFF73AFE2846FFF7B7FE012007E048464B
:1028B00000F0EEFE4FF0FF3001E04FF0FF3005B0CA
:1028C000BDE8F08310B588B000240594069407AAEB
:1028D00006A905A800F0E6FD059B0293069B01935F
:1028E00000942346079A17491748FFF77FFF174BB5
:1028F0001860C0B100F04CFB012815D14FF0500317
:1029000083F31188BFF36F8FBFF34F8F104B4FF0DE
:10291000FF321A600F4B01221A600F4B00221A601F
:1029200000F0D2FF03E00020B0F1FF3F01D008B07B
:1029300010BD4FF0500383F31188BFF36F8FBFF3C7
:102940004F8FFEE764430008492700085C0400201D
:1029500060040020740400207C040020024A1368F4
:1029600001331360704700BF58040020014B186802
:10297000704700BF7C040020F8B53A4B1B68002B61
:1029800064D1394B1D6801351D60C5B9374B1B68D3
:102990001B6843B14FF0500383F31188BFF36F8F6F
:1029A000BFF34F8FFEE7314A1168314B1868106052
:1029B0001960304A136801331360FFF797FD2E4BFF
:1029C0001B68AB4238D900272C4B1B68DB6A03EB32
:1029D00083039A002A4B9B58012B3CD901273AE0EC
:1029E0000127224B1B681B6843B3204B1B68DB6825
:1029F000DC6863689D4226D3261D3046FFF70FFA38
:102A0000A36A1BB104F11800FFF709FAE36A1D4A33
:102A10001268934201D91B4A136003EB83039A00A7
:102A2000314617481044FFF7D6F9E26A134B1B688A
:102A3000DB6A9A42D4D2D4E70027D2E70E4B4FF09C
:102A4000FF321A60C0E70C4A1360BDE70E4A1368F4
:102A50000133136000270D4B1B6803B10127384673
:102A6000F8BD00BF580400207C040020C8040020EA
:102A7000C4040020680400206004002054090020E1
:102A8000F404002078040020700400206C0400206E
:102A900038B5354B1B6843B94FF0500383F31188A9
:102AA000BFF36F8FBFF34F8FFEE700F083FE2E4B17
:102AB0001A68013A1A601B68002B4FD12B4B1B6818
:102AC0000BB900244BE00024294B1B681BB3284B97
:102AD000DB68DC6804F11800FFF7A1F9251D284622
:102AE000FFF79DF9E06A234B1B68984201D9214BFF
:102AF000186000EB800029461F4B03EB8000FFF7B6
:102B00006AF9E26A1D4B1B68DB6A9A42DCD31C4BF4
:102B100001221A60D8E70CB1FFF7E8FC194B1C68DA
:102B200084B9174B1C68D4B14FF0E0234FF08052AA
:102B3000C3F8042DBFF34F8FBFF36F8F01240EE056
:102B4000013C07D0FFF718FF0028F9D00C4B0122F9
:102B50001A60F5E70B4B00221A60E2E7002400F050
:102B60004BFE204638BD00BF5804002080040020E2
:102B7000B004002078040020F40400205409002050
:102B80006C0400207004002010B5A8B10446104B5E
:102B90001B6843B14FF0500383F31188BFF36F8F6D
:102BA000BFF34F8FFEE7FFF7D9FE00212046FFF766
:102BB000DFFDFFF76DFF48B94FF0E0234FF0805283
:102BC000C3F8042DBFF34F8FBFF36F8F10BD00BF4D
:102BD00058040020204B1B681BB1204B01221A60B7
:102BE00070471E4B00221A601D4B1B6803EB8301CC
:102BF0008A001C498A585AB90BB1013BF6E74FF0DD
:102C0000500383F31188BFF36F8FBFF34F8FFEE73D
:102C1000084603EB83018A00024451684968516009
:102C200003EB830C4FEA8C020832024491420BD032
:102C300003EB830291000B4A0A445268D1680A4AA6
:102C40001160074A13607047486862469100054A60
:102C50000A445060ECE700BF580400206C040020D8
:102C600078040020F40400205409002058B110B565
:102C70000C46094A11681831FFF7B8F801212046BF
:102C8000FFF776FD10BD4FF0500383F31188BFF3BB
:102C90006F8FBFF34F8FFEE75409002038B570B136
:102CA0000D4614460A4A11681831FFF794F80CB122
:102CB0004FF0FF3521462846FFF75AFD38BD4FF04B
:102CC000500383F31188BFF36F8FBFF34F8FFEE77D
:102CD0005409002038B5C368DC6824B304F1180532
:102CE0002846FFF79CF8184B1B682BBB251D284670
:102CF000FFF795F8E06A154B1B68984201D9134B12
:102D0000186000EB80002946114B03EB8000FFF7B1
:102D100062F8E26A0F4B1B68DB6A9A4211D9012004
:102D20000D4B186038BD4FF0500383F31188BFF38B
:102D30006F8FBFF34F8FFEE729460848FFF74BF828
:102D4000E7E70020EEE700BF5804002078040020E9
:102D5000F4040020540900206C040020B00400207A
:102D6000034B1B680360034B1B684360704700BF45
:102D7000680400207C040020D8B170B50C460546DC
:102D800001B300F017FD1B4B19686B68C81A226865
:102D9000B2F1FF3F27D0184E3668D5F800C0B445D1
:102DA00001D08B4224D9824215D80023236001240C
:102DB0001AE04FF0500383F31188BFF36F8FBFF316
:102DC0004F8FFEE74FF0500383F31188BFF36F8FEF
:102DD000BFF34F8FFEE75B1A134423602846FFF7CB
:102DE000BFFF002400E0002400F006FD204670BD77
:102DF0000124F9E77C04002068040020014B012233
:102E00001A6070476C040020054B1B6833B1054BFA
:102E10001B680BB1002070470220704701207047EB
:102E2000740400205804002000283BD038B5044624
:102E30001E4B1B68834208D04FF0500383F3118868
:102E4000BFF36F8FBFF34F8FFEE7036D43B94FF0B2
:102E5000500383F31188BFF36F8FBFF34F8FFEE7EB
:102E6000013B0365C16AC26C91421DD00BB10020C9
:102E700038BD051D2846FEF7D2FFE06CE062C0F1C8
:102E80003803A3610A4B1B68984201D9084B1860AC
:102E900000EB80002946074B03EB8000FEF79BFF09
:102EA0000120E5E7002070470020E1E754090020F9
:102EB00078040020F4040020064B1A681368B3FA63
:102EC00083F35B09036013B9D36818687047002067
:102ED000704700BF580A002008B541600061914268
:102EE0000CD8D21A83699A4201D3012008BD011D72
:102EF000094B1868FEF77AFF0020F7E79A4201D2E3
:102F0000994206D2011D054B1868FEF76FFF00209D
:102F1000ECE70120EAE700BF540A0020580A00202D
:102F200030B583B000F046FC114B1B681BB100F0BC
:102F300063FC03B030BD0F4D2846FEF73EFF0E4C3C
:102F40002046FEF73AFF0D4B1D600D4B1C60002321
:102F500000930C4B0C4A10210A20FFF766F8044B33
:102F600018600028E3D00949FFF782FADFE700BFC5
:102F7000500A0020700A00205C0A0020580A002035
:102F8000540A002058090020A80900206C430008BA
:102F900010B588B0FFF7C4FF124B1B68CBB10024FB
:102FA0000594069407AA06A905A800F087FA059BD0
:102FB0000293069B0193022300932346079A0A4932
:102FC0000A48FFF713FC0A4B186010B1012008B043
:102FD00010BD4FF0500383F31188BFF36F8FBFF321
:102FE0004F8FFEE7500A002074430008CD320008DE
:102FF0004C0A0020B8B19C4603461848006858B3F4
:1030000000B585B000910192029305291CDCFFF701
:10301000FBFE022810D000231A4669460F480068BC
:10302000FFF74CF815E04FF0500383F31188BFF31E
:103030006F8FBFF34F8FFEE70023069A694607485C
:103040000068FFF73BF804E0002362466946FFF79B
:10305000F9F805B05DF804FB00207047500A002025
:1030600070B582B01A4B1B681A6852B3DB681E68D1
:10307000DC68251D2846FEF7D2FE636A2046984785
:10308000E369012BEED1A36933449E4207D263600A
:10309000246129460E4B1868FEF7A8FEE2E70021DE
:1030A00000910B4632462046FFF7A4FF0028D9D1F5
:1030B0004FF0500383F31188BFF36F8FBFF34F8F2F
:1030C000FEE7044A106802490860136002B070BD50
:1030D000580A0020540A002038B50546FFF746FC80
:1030E0000446074B1B68834205D800232B60044B22
:1030F0001C60204638BDFFF7B3FF01232B60F6E7C5
:10310000480A002070B582B006460D461449096889
:10311000C968CC68201DFEF782FEE169012904D050
:10312000636A2046984702B070BDA16933462A46BB
:1031300031442046FFF7D0FE0028F1D00021009155
:103140000B4632462046FFF755FF0028E8D14FF0E6
:10315000500383F31188BFF36F8FBFF34F8FFEE7E8
:10316000580A002070B582B006460C46FFF7F6FB01
:1031700001A8FFF7B1FF019B23BB054644B9B0424C
:103180000CD3FFF785FC29463046FFF7BBFF1BE059
:103190000E4B1B681C68B4FA84F464092246711B48
:1031A0000B4B1868FFF778F9FFF772FC60B94FF026
:1031B000E0234FF08052C3F8042DBFF34F8FBFF3CD
:1031C0006F8F01E0FFF764FC02B070BD540A00206D
:1031D000500A002010B588B002E0049B002B0FDAE3
:1031E000002204A9384B1868FFF792F8002869D02C
:1031F000049B002BF1DA07990698059B9847ECE7AA
:10320000069C636913B1201DFEF709FE03A8FFF7B2
:1032100063FF049B092BE3D801A252F823F000BFFF
:10322000493200084932000849320008E1310008FB
:103230008F320008B53200084932000849320008D0
:10324000E13100088F320008059BA169024619444C
:103250002046FFF741FE0028C2D0636A2046984707
:10326000E369012BBCD1A269002100910B460598AE
:1032700002442046FFF7BEFE0028B1D14FF05003B4
:1032800083F31188BFF36F8FBFF34F8FFEE705996C
:10329000A16131B10346024601442046FFF71CFEFE
:1032A0009EE74FF0500383F31188BFF36F8FBFF396
:1032B0004F8FFEE794F82C30002B91D1204600F080
:1032C000E7F98DE708B010BD500A002000B583B0C3
:1032D00001A8FFF7F1FD0199FFF744FFFFF77AFF1F
:1032E000F6E70000EFF3058393B9EFF3108393B98A
:1032F0000C4B1868022804D080B90A4B01221A60CE
:103300007047EFF31183002BF6D06FF00500704784
:103310006FF0050070476FF0050070474FF0FF3009
:10332000704700BF3C11002008B5EFF30583B3B927
:10333000EFF31083B3B90E4B1B68022B08D0012B9F
:1033400013D10B4B02221A60FFF7BCFA002008BD14
:10335000EFF31182002AF2D06FF00500F7E76FF06B
:103360000500F4E76FF00500F1E74FF0FF30EEE7FE
:103370003C110020F0B587B000240494EFF30584DD
:10338000002C43D1EFF31083002B3FD1334B1B684C
:10339000022B16D0002839D000238DF8173062B3E5
:1033A000156895B1936903B918235C1E372C51D861
:1033B000546814F0010F4FD156694EB14FEA960C84
:1033C00008E0EFF311830BBBE4E70DF11705E9E724
:1033D0004FF0800C94682CB1D7685B2F02D9176925
:1033E00007B1B6B914B14FF0FF340CE0D46894B90A
:1033F00014699CB14FF0FF3405E0002418234FF00E
:10340000800C0DF11705012C0AD0ACB1049807B05F
:10341000F0BD0124F7E74FF0FF34F4E70024F2E7B2
:10342000146992680292019400930B466246294601
:10343000FFF7DCF90490E9E704AA019200930B4638
:103440001FFA8CF22946FFF70BFA0128DED0002381
:103450000493DBE70020DAE70020D8E73C110020E6
:1034600008B5EFF30583A3B9EFF31083A3B90C4BB1
:103470001B68022B02D040B9002008BDEFF3118376
:10348000002BF8D06FF00500F7E7FFF77DFB002079
:10349000F3E76FF00500F0E76FF00500EDE700BF20
:1034A0003C110020034B0360034B0B60802313602F
:1034B000704700BFE0100020E00E0020034B0360C7
:1034C000034B0B604FF4807313607047840E002031
:1034D000840A0020124A12F0070F1ED0D11D21F0DD
:1034E0000701C1F5406313440A460E4802600021FB
:1034F00041601344083B23F007030B480360596005
:103500001960991A51601360084B1960084B1960D3
:10351000084B4FF000421A6070474FF44063E4E7F5
:1035200058110020501100204C110020441100209F
:103530004811002040110020154B1A461B68834299
:10354000FBD3516802EB010C844509D0416800EBC4
:10355000010C634509D00360904218D01060704799
:103560004068014451601046F0E710B4094C2468EB
:10357000A3420AD05B681944416013681B6803606A
:10358000904200D0106010BC70470460F8E77047AC
:10359000501100204C11002038B50446FFF7DEF929
:1035A000364B1B68B3B1364B1B681C424CD1002C08
:1035B0004CD004F1080214F0070F02D022F00702E9
:1035C0000832002A51D02F4B1B6893424FD32E490B
:1035D0000C6804E0FFF77EFFE5E721461C466368C0
:1035E000934202D22368002BF7D1244B1B68A342DD
:1035F0003FD00D68083523680B6063689B1A102B59
:1036000010D9A01810F0070F08D04FF0500383F323
:103610001188BFF36F8FBFF34F8FFEE74360626087
:10362000FFF78AFF626817490B689B1A0B601749FE
:1036300009688B4201D215490B60114B1B6813437B
:1036400063600023236002E0002500E00025FFF70F
:103650001FFA15F0070F0ED04FF0500383F31188B7
:10366000BFF36F8FBFF34F8FFEE70025EFE7002515
:10367000EDE70025EBE7284638BD00BF4C110020E0
:10368000401100204811002050110020441100205A
:1036900080B338B50446A0F1080550F8043C164A3A
:1036A0001268134208D14FF0500383F31188BFF31F
:1036B0006F8FBFF34F8FFEE750F8081C41B14FF0FA
:1036C000500383F31188BFF36F8FBFF34F8FFEE773
:1036D00023EA020340F8043CFFF740F954F8041CC5
:1036E000064A13680B4413602846FFF725FFFFF7CF
:1036F000CFF938BD704700BF4011002048110020AD
:1037000082B0002301930D4B1B68B3F1FF3F08D03B
:103710004FF0500383F31188BFF36F8FBFF34F8FC8
:10372000FEE74FF0500383F31188BFF36F8FBFF3B1
:103730004F8F019B002BFCD002B070470C00002083
:1037400006480068006880F3088862B661B6BFF377
:103750004F8FBFF36F8F00DF00BF000008ED00E068
:103760004FF0807340F8043C21F0010140F8081C40
:10377000034B40F80C3C40F8202C4038704700BF09
:1037800001370008000000000000000000000000F9
:10379000074B19680868B0E8F00F80F30988BFF399
:1037A0006F8F4FF0000080F311884EF00D0E7047C0
:1037B000540900204FF0500383F31188BFF36F8F3B
:1037C000BFF34F8F0B4A136801331360012B00D0F6
:1037D00070474FF0E023D3F8043D13F0FF0FF7D00C
:1037E0004FF0500383F31188BFF36F8FBFF34F8FF8
:1037F000FEE700BF0C000020094B1B6843B94FF0E7
:10380000500383F31188BFF36F8FBFF34F8FFEE731
:10381000013B034A13600BB983F31188704700BF63
:103820000C0000200000000000000000000000006C
:10383000EFF30980BFF36F8F0D4B1A6820E9F00F8B
:1038400010602DE908404FF0500080F31188FFF719
:10385000C1F94FF0000080F31188BDE808401968F5
:103860000868B0E8F00F80F30988BFF36F8F7047E6
:103870005409002008B54FF0500383F31188BFF3BB
:103880006F8FBFF34F8FFFF777F828B14FF0E0232A
:103890004FF08052C3F8042D002383F3118808BD34
:1038A0004FF0E022002313619361054B1B6805492B
:1038B000A1FB03139B09013B53610723136170476D
:1038C00008000020D34D621010B582B02A4B1A7840
:1038D000D2B20192FF221A701B78DBB28DF803304E
:1038E0009DF8033003F05003244A1370244B072241
:1038F0001A6009E0224A1368013B13609DF8033007
:103900005B00DBB28DF803309DF8033013F0800FBD
:10391000F0D11B4B1B68032B08D04FF0500383F3EF
:103920001188BFF36F8FBFF34F8FFEE71B02144A5E
:10393000136003F4E0631360019BDBB20E4A137063
:103940004FF0E023D3F8202D42F47002C3F8202D6D
:10395000D3F8202D42F07042C3F8202DFFF7A0FFCE
:103960000024084B1C60FFF7EBFEFFF733F9FFF76D
:10397000C7FE204602B010BD00E400E05C1D002040
:10398000581D00200C000020EFF305830F2B0FD9EA
:10399000114A9B5CDBB2114A12789A4208D94FF067
:1039A000500383F31188BFF36F8FBFF34F8FFEE790
:1039B0004FF0E023D3F80C3D03F4E063084A1268AB
:1039C000934208D94FF0500383F31188BFF36F8FF0
:1039D000BFF34F8FFEE77047F0E300E05C1D00206F
:1039E000581D0020FEF7E8F90B480C490C4A00234B
:1039F00002E0D458C4500433C4188C42F9D3094AA5
:103A0000094C002301E013600432A242FBD300F012
:103A10000FF8FCF714FC7047000000201000002095
:103A20008443000810000020601D0020FEE7000015
:103A300070B500260C4D0D4C641BA410A64209D194
:103A400000F030F800260A4D0A4C641BA410A64270
:103A500005D170BD55F8043B98470136EEE755F89F
:103A6000043B98470136F2E77C4300087C4300089A
:103A70007C430008804300080A44914200F1FF3370
:103A800000D1704710B511F8014B914203F8014F76
:103A9000F9D110BD03460244934200D1704703F8A8
:103AA000011BF9E7F8B500BFF8BC08BC9E4670479B
:0C3AB000F8B500BFF8BC08BC9E4670478B
:103ABC0068656C6C6F000000776F726C64000000BE
:103ACC004D6178004F6C656400000000CC3A000832
:103ADC0000000000000000000000000000000000DA
:103AEC0000020000080000000000000000000000C0
:103AFC00D03A0008000000000000000000000000A8
:103B0C00000000000002000018000000000000008F
:103B1C000000000000000000000000000000000099
:103B2C0000000000000000F800000000000000335E
:103B3C003000000000100C06100C06000000000005
:103B4C000000000040C07840C0784000043F0404EE
:103B5C003F040400007088FC08300000001820FFAF
:103B6C00211E0000F008F000E018000000211C03EA
:103B7C001E211E0000F00888700000001E21232466
:103B8C001927211010160E00000000000000000084
:103B9C0000000000000000E0180402000000000714
:103BAC001820400000020418E0000000004020181B
:103BBC0007000000404080F0804040000202010FEE
:103BCC0001020200000000F0000000000101011FD2
:103BDC0001010100000000000000000080B0700036
:103BEC0000000000000000000000000000010101C6
:103BFC000101010100000000000000000030300055
:103C0C00000000000000000080601804006018062E
:103C1C000100000000E010080810E000000F102068
:103C2C0020100F00001010F8000000000020203FB2
:103C3C00202000000070080808887000003028243C
:103C4C0022213000003008888848300000182020DD
:103C5C0020110E000000C02010F800000007042402
:103C6C00243F240000F80888880808000019212047
:103C7C0020110E0000E0108888180000000F1120A1
:103C8C0020110E0000380808C83808000000003F5A
:103C9C00000000000070880808887000001C2221B9
:103CAC0021221C0000E010080810E0000000312266
:103CBC0022110F00000000C0C00000000000003006
:103CCC003000000000000080000000000000806058
:103CDC0000000000000080402010080000010204D9
:103CEC0008102000404040404040400004040404C0
:103CFC00040404000008102040800000002010087C
:103D0C0004020100007048080808F00000000030B0
:103D1C0036010000C030C828E810E000071827243E
:103D2C0023140B000000C038E0000000203C2302EC
:103D3C000227382008F8888888700000203F20204F
:103D4C0020110E00C0300808080838000718202081
:103D5C002010080008F808080810E000203F202078
:103D6C0020100F0008F88888E8081000203F202059
:103D7C002320180008F88888E8081000203F20004D
:103D8C0003000000C0300808083800000718202085
:103D9C00221E020008F808000008F808203F210144
:103DAC0001213F20000808F8080800000020203FEF
:103DBC002020000000000808F8080800C08080805F
:103DCC007F00000008F888C028180800203F200158
:103DDC002638200008F8080000000000203F2020B2
:103DEC002020300008F8F800F8F80800203F003FC9
:103DFC00003F200008F830C00008F808203F2000E1
:103E0C0007183F00E01008080810E0000F102020F1
:103E1C0020100F0008F808080808F000203F2101C6
:103E2C0001010000E01008080810E0000F1824241D
:103E3C0038504F0008F8888888887000203F200090
:103E4C00030C302000708808080838000038202146
:103E5C0021221C00180808F8080818000000203F50
:103E6C002000000008F808000008F808001F2020B7
:103E7C0020201F000878880000C838080000073888
:103E8C000E010000F80800F80008F800033C0700D9
:103E9C00073C0300081868808068180820302C0341
:103EAC00032C30200838C800C83808000000203F18
:103EBC002000000010080808C83808002038262107
:103ECC0020201800000000FE020202000000007F0B
:103EDC0040404000000C30C0000000000000000119
:103EEC000638C00000020202FE0000000040404004
:103EFC007F00000000000402020204000000000029
:103F0C0000000000000000000000000080808080A5
:103F1C00808080800002020400000000000000008D
:103F2C000000000000008080808000000019242226
:103F3C0022223F2008F8008080000000003F112062
:103F4C0020110E000000008080800000000E112067
:103F5C0020201100000000808088F800000E112045
:103F6C0020103F200000808080800000001F222253
:103F7C0022221300008080F0888888180020203FBF
:103F8C00202000000000808080808000006B9494D2
:103F9C009493600008F8008080800000203F21008E
:103FAC0000203F2000809898000000000020203F57
:103FBC0020200000000000809898000000C0808045
:103FCC00807F000008F8000080808000203F2402E1
:103FDC002D302000000808F8000000000020203FD1
:103FEC00202000008080808080808000203F200086
:103FFC003F20003F8080008080800000203F210017
:10400C0000203F200000808080800000001F2020C6
:10401C0020201F00808000808000000080FFA120F5
:10402C0020110E000000008080808000000E112006
:10403C0020A0FF80808080008080800020203F2195
:10404C002000010000008080808080000033242448
:10405C0024241900008080E0808000000000001FF4
:10406C00202000008080000000808000001F2020A5
:10407C0020103F20808080000080808000010E3066
:10408C000806010080800080008080800F300C03C7
:10409C000C300F0000808000808080000020312ECA
:1040AC000E312000808080000080808080818E70A6
:1040BC001806010000808080808080000021302C58
:1040CC002221300000000000807C02020000000071
:1040DC00003F404000000000FF0000000000000016
:1040EC00FF0000000002027C800000000040403F06
:1040FC0000000000000601010202040400000000A0
:10410C00000000000000000000000000002F000074
:10411C0000000700070000147F147F1400242A7F7E
:10412C002A120062640813230036495522500000FD
:10413C000503000000001C224100000041221C006D
:10414C000014083E08140008083E0808000000A0EF
:10415C0060000008080808080000606000000020EB
:10416C0010080402003E5149453E0000427F4000C9
:10417C00004261514946002141454B31001814124F
:10418C007F10002745454539003C4A49493000011C
:10419C007109050300364949493600064949291E6B
:1041AC0000003636000000005636000000081422CD
:1041BC0041000014141414140000412214080002CD
:1041CC000151090600324959513E007C1211127CF2
:1041DC00007F49494936003E41414122007F41411F
:1041EC00221C007F49494941007F09090901003E11
:1041FC004149497A007F0808087F0000417F41004F
:10420C00002040413F01007F08142241007F4040C4
:10421C004040007F020C027F007F0408107F003EAC
:10422C004141413E007F09090906003E4151215E92
:10423C00007F091929460046494949310001017F8F
:10424C000101003F4040403F001F2040201F003F25
:10425C004038403F006314081463000708700807D7
:10426C0000615149454300007F41410000552A55EA
:10427C002A55000041417F00000402010204004065
:10428C004040404000000102040000205454547887
:10429C00007F4844443800384444442000384444A7
:1042AC00487F00385454541800087E090102001845
:1042BC00A4A4A47C007F080404780000447D400082
:1042CC00004080847D00007F102844000000417F66
:1042DC004000007C04180478007C08040478003842
:1042EC004444443800FC242424180018242418FCCA
:1042FC00007C0804040800485454542000043F4433
:10430C004020003C4040207C001C2040201C003CF5
:10431C004030403C004428102844001CA0A0A07C45
:10432C00004464544C44141414141414010200007A
:10433C0002030405060708090A0B0C0D0E0F1010DA
:10434C000000000001020304000000000000000057
:10435C00010203040607080949444C45000000000B
:10436C00546D725100000000546D7220537663003E
:04437C0079010008BB
:0443800051010008DF
:1043840001000000100000000024F400AAAAAAAA58
:04000005080039E5D1
:00000001FF
