:020000040800F2
:1000000000500020752A0008B5140008B714000835
:10001000B9140008BB140008BD140008000000005B
:10002000000000000000000000000000BF140008F5
:10003000C114000800000000C3140008C514000823
:10004000BD2A0008BD2A0008BD2A0008BD2A0008F4
:10005000BD2A0008BD2A0008BD2A0008BD2A0008E4
:10006000BD2A0008BD2A0008BD2A0008BD2A0008D4
:10007000BD2A0008BD2A0008BD2A0008BD2A0008C4
:10008000BD2A0008BD2A0008BD2A0008BD2A0008B4
:10009000BD2A0008BD2A0008BD2A0008BD2A0008A4
:1000A000BD2A0008BD2A0008BD2A0008BD2A000894
:1000B000BD2A0008BD2A0008BD2A0008BD2A000884
:1000C000BD2A0008BD2A0008BD2A0008BD2A000874
:1000D000BD2A0008BD2A0008BD2A0008BD2A000864
:1000E000BD2A0008BD2A0008BD2A00080000000043
:1000F0000000000000000000000000000000000000
:0C01000000000000000000005FF808F1A3
:10010C0080F0004002E000BF81F0004142001FBFC0
:10011C005FEA410392EA030F7FEA226C7FEA236CC9
:10012C006AD04FEA1262D2EB1363C1BFD2184140BE
:10013C0048404140B8BF5B42192B88BF704710F054
:10014C00004F40F4000020F07F4018BF404211F0F7
:10015C00004F41F4000121F07F4118BF494292EA5F
:10016C00030F3FD0A2F1010241FA03FC10EB0C008B
:10017C00C3F1200301FA03F100F0004302D5494218
:10018C0060EB4000B0F5000F13D3B0F1807F06D3C5
:10019C0040084FEA310102F10102FE2A51D2B1F1BD
:1001AC00004F40EBC25008BF20F0010040EA0300B2
:1001BC007047490040EB0000013A28BFB0F5000F32
:1001CC00EDD2B0FA80FCACF1080CB2EB0C0200FAE8
:1001DC000CF0AABF00EBC25052421843BCBFD04037
:1001EC001843704792F0000F81F4000106BF80F4B1
:1001FC0000000132013BB5E74FEA41037FEA226C74
:10020C0018BF7FEA236C21D092EA030F04D092F03E
:10021C00000F08BF0846704790EA010F1CBF002072
:10022C00704712F07F4F04D1400028BF40F00040CF
:10023C00704712F100723CBF00F50000704700F0EF
:10024C00004343F0FE4040F4000070477FEA226216
:10025C0016BF08467FEA23630146420206BF5FEAE7
:10026C00412390EA010F40F4800070474FF00003E7
:10027C0004E000BF10F0004348BF40425FEA000CAE
:10028C0008BF704743F0964301464FF000001CE056
:10029C0050EA010208BF70474FF000030AE000BFAC
:1002AC0050EA010208BF704711F0004302D54042EA
:1002BC0061EB41015FEA010C02BF8446014600205C
:1002CC0043F0B64308BFA3F18053A3F50003BCFA77
:1002DC008CF2083AA3EBC25310DB01FA02FC634424
:1002EC0000FA02FCC2F12002BCF1004F20FA02F22B
:1002FC0043EB020008BF20F00100704702F120021E
:10030C0001FA02FCC2F1200250EA4C0021FA02F27E
:10031C0043EB020008BF20EADC7070474FF0FF0C83
:10032C001CEAD0521EBF1CEAD15392EA0C0F93EA7E
:10033C000C0F6FD01A4480EA010C400218BF5FEA20
:10034C0041211ED04FF0006343EA501043EA511193
:10035C00A0FB01310CF00040B1F5000F3EBF49008D
:10036C0041EAD3715B0040EA010062F17F02FD2A91
:10037C001DD8B3F1004F40EBC25008BF20F0010074
:10038C00704790F0000F0CF0004C08BF49024CEA8B
:10039C00502040EA51207F3AC2BFD2F1FF0340EA1D
:1003AC00C250704740F400004FF00003013A5DDC8E
:1003BC0012F1190FDCBF00F000407047C2F10002CF
:1003CC00410021FA02F1C2F1200200FA02FC5FEABC
:1003DC00310040F1000053EA4C0308BF20EADC7006
:1003EC00704792F0000F00F0004C02BF400010F478
:1003FC00000F013AF9D040EA0C0093F0000F01F025
:10040C00004C02BF490011F4000F013BF9D041EA46
:10041C000C018FE70CEAD15392EA0C0F18BF93EA48
:10042C000C0F0AD030F0004C18BF31F0004CD8D172
:10043C0080EA010000F00040704790F0000F17BFF9
:10044C0090F0004F084691F0000F91F0004F14D03F
:10045C0092EA0C0F01D142020FD193EA0C0F03D197
:10046C004B0218BF084608D180EA010000F000409A
:10047C0040F0FE4040F40000704740F0FE4040F475
:10048C00400070474FF0FF0C1CEAD0521EBF1CEA14
:10049C00D15392EA0C0F93EA0C0F69D0A2EB030232
:1004AC0080EA010C49024FEA402037D04FF08053CC
:1004BC0043EA111143EA10130CF000408B4238BF91
:1004CC005B0042F17D024FF4000C8B4224BF5B1A9F
:1004DC0040EA0C00B3EB510F24BFA3EB510340EAED
:1004EC005C00B3EB910F24BFA3EB910340EA9C009B
:1004FC00B3EBD10F24BFA3EBD10340EADC001B010B
:10050C0018BF5FEA1C1CE0D1FD2A3FF650AF8B42AE
:10051C0040EBC25008BF20F0010070470CF0004CBB
:10052C004CEA50207F32C2BFD2F1FF0340EAC250E6
:10053C00704740F400004FF00003013A37E792F0A7
:10054C00000F00F0004C02BF400010F4000F013A05
:10055C00F9D040EA0C0093F0000F01F0004C02BF00
:10056C00490011F4000F013BF9D041EA0C0195E769
:10057C000CEAD15392EA0C0F08D142027FF47DAF02
:10058C0093EA0C0F7FF470AF084676E793EA0C0FF2
:10059C0004D14B023FF44CAF08466EE730F0004CF0
:1005AC0018BF31F0004CCAD130F000427FF45CAF80
:1005BC0031F000437FF43CAF5FE700BF4FEA4002ED
:1005CC00B2F1FE4F0FD34FF09E03B3EB12620DD975
:1005DC004FEA002343F0004310F0004F23FA02F0DF
:1005EC0018BF404270474FF00000704712F1610F86
:1005FC0001D1420205D110F0004008BF6FF000405D
:10060C0070474FF0000070470348044B834202D000
:10061C00034B03B11847704714000020140000204E
:10062C00000000000548064B1B1AD90F01EBA30173
:10063C00491002D0034B03B1184770471400002037
:10064C00140000200000000010B5064C237843B9BC
:10065C00FFF7DAFF044B13B10448AFF3008001231A
:10066C00237010BD1400002000000000182B00089F
:10067C0008B5054B1BB105490548AFF30080BDE833
:10068C000840FFF7CFBF00BF00000000180000209B
:10069C00182B000872B6FEE700B591B02822002195
:1006AC0006A802F02BFA0023019302930393049300
:1006BC000593012206924FF4803307930A9202228B
:1006CC000D920E934FF4E0130F9306A801F04CFD1E
:1006DC0080B90F23019302210291002303934FF45D
:1006EC0080620492059301A801F070FF20B911B04B
:1006FC005DF804FBFFF7CEFFFFF7CCFF08B501F068
:10070C00E5FCFFF7C9FF00F015F800F045F800F024
:10071C0061F800F09BF900F06DFB054A0121042003
:10072C0000F050F900F01EFA00F0A0FBFCE700BF4F
:10073C00302B000800B589B0002304930593069371
:10074C00079303F1804303F504339A6942F02002C6
:10075C009A619A6902F020020192019A9A6942F018
:10076C0004029A619A6902F004020292029A9A694E
:10077C0042F008029A619B6903F008030393039B00
:10078C008023049304A9034801F0ECFF09B05DF841
:10079C0004FB00BF0008014008B50B480B4B03607D
:1007AC000B4B436000238360C3604FF480420261B3
:1007BC0043618361C361036201F02EF900B908BD86
:1007CC00FFF768FFFBE700BF8400002000540040E7
:1007DC00A086010008B50B480B4B03600B4B436024
:1007EC0000238360C3604FF48042026143618361E4
:1007FC00C361036201F010F900B908BDFFF74AFFAD
:10080C00FBE700BF3000002000580040A08601002C
:10081C0010B588B0002304930593069307930368DF
:10082C00224A934204D0224A93421FD008B010BDF2
:10083C00204CA36943F00803A361A36903F00803E8
:10084C000093009BC0230493122305930323079367
:10085C0004A9194801F086FFE36943F40013E3612E
:10086C00E36903F400130193019BDFE7114CA369C7
:10087C0043F00803A361A36903F008030293029BEE
:10088C004FF440630493122305930323079304A9A5
:10089C00094801F067FFE36943F48003E361E3690E
:1008AC0003F480030393039BC0E700BF0054004094
:1008BC000058004000100240000C014000B587B009
:1008CC008DF8170064230293012301930DF1170295
:1008DC00009200227821034801F07CF907B05DF802
:1008EC0004FB00BF8400002000B587B08DF8170012
:1008FC0064230293012301930DF11702009240220D
:10090C007821034801F066F907B05DF804FB00BFDD
:10091C008400002010B50C4640F0B000FFF7CEFF6D
:10092C00200940F01000FFF7C9FF04F00F00FFF79B
:10093C00C5FF10BD38B5002509E00020FFF7D4FF36
:10094C000134E4B214F0800FF7D00135EDB2072D6D
:10095C0005D800212846FFF7DDFF0024F2E738BD5B
:10096C00F8B51546461E7600F6B24F1EFF00FFB2D4
:10097C0039463046FFF7CEFF002409E0A5F12002EE
:10098C000F4B03EB0213185DFFF7AEFF0134E4B21B
:10099C00072CF3D9701C3946C0B2FFF7BBFF0024FB
:1009AC000BE0A5F1200104F10802054B03EB011348
:1009BC00985CFFF799FF0134E4B2072CF1D9F8BD2C
:1009CC00382B0008F8B507460E461546002406E0FD
:1009DC00A119C9B23846FFF7C3FF0134E4B22A5D4E
:1009EC00002AF5D1F8BD0246012002E002FB00F01E
:1009FC0019464B1E0029F9D1704700002DE9F84328
:100A0C008146884617461E46002419E004EB08056B
:100A1C00EDB2311B01390A20FFF7E5FFB7FBF0F00F
:100A2C00094AA2FB0032D20802EB8202A0EB42027E
:100A3C003032D2B229464846FFF792FF0134E4B275
:100A4C00B442E3D3BDE8F883CDCCCCCC08B564205C
:100A5C0001F060FBAE20FFF731FFD520FFF72EFF32
:100A6C008020FFF72BFFA820FFF728FF3F20FFF780
:100A7C0025FFD320FFF722FF0020FFF71FFF4020A8
:100A8C00FFF71CFFA120FFF719FFC820FFF716FF87
:100A9C00DA20FFF713FF1220FFF710FF8120FFF77A
:100AAC000DFFCF20FFF70AFFD920FFF707FFF1203A
:100ABC00FFF704FFDB20FFF701FF3020FFF7FEFEFE
:100ACC00A420FFF7FBFEA620FFF7F8FE8D20FFF712
:100ADC00F5FE1420FFF7F2FEAF20FFF7EFFEFFF755
:100AEC0029FF08BD00B587B08DF817106423029359
:100AFC0001920DF11703009301230246AE21034826
:100B0C0001F068F807B05DF804FB00BF300000206E
:100B1C0000B585B064230293019200910123024633
:100B2C00AF21034801F008F905B05DF804FB00BFE4
:100B3C003000002070B582B004460D4616460122E6
:100B4C000DF107010020FFF7E3FF01220DF1070172
:100B5C001046FFF7DDFF324629462046FFF7D8FF47
:100B6C0002B070BD30B585B0002400E00134214BDB
:100B7C001968A14230DD80211F4801F001FF0128D6
:100B8C00F9D01E4D062229460720FFF7D3FF2B78FC
:100B9C001B0403F440336A7843EA0223AA78134314
:100BAC00174A42F82430EA78120402F440322979C8
:100BBC0042EA012269790A43124941F82420124A77
:100BCC001268934201D2104A1360104A1268934281
:100BDC00CCD90E4A1360C9E70D4B02930D4B019310
:100BEC000D4B00930D4B064A064800F037FA05B042
:100BFC0030BD00BF04000020000801409810002008
:100C0C00C8080020F800002000000020E4000020AC
:100C1C00E8000020EC000020F0000020F400002090
:100C2C002DE9F04385B005460E46174698466423D9
:100C3C0000E00133B3F5FA7F18DAA3F164015848E8
:100C4C0050F8232040F82120564C54F8230044F847
:100C5C002100554909688A4201D253490A60534917
:100C6C0009688A42E5D951490A60E2E74FF4C87431
:100C7C002DE0C01AFFF7FAFA81464C4B18684A4B24
:100C8C001B68C01AFFF7F2FA01464846FFF7FAFB59
:100C9C004749FFF743FB474B1860FFF78FFC464B68
:100CAC001A6810441860FF2801DDFF221A60434BBC
:100CBC001B682B60424B93F900303370414B1B681F
:100CCC003B60414B93F9003088F800300134B4F5A7
:100CDC00FA7F54DA631E324A52F823203B4B1A60D7
:100CEC0080213B4801F04CFE0128F9D0DFF8E4905C
:100CFC00062249460720FFF71DFF99F800301B0418
:100D0C0003F4403399F8012043EA022399F80220B6
:100D1C001343234A42F8243099F80320120402F4B6
:100D2C00403299F8041042EA012299F805100A435E
:100D3C001C4941F82420254A1068834299D9181A75
:100D4C00FFF794FA8146194B1868174B1B68C01AA9
:100D5C00FFF78CFA01464846FFF794FB1449FFF75E
:100D6C00DDFA144B1860FFF729FC134A1368181AA4
:100D7C00106000289BDA134600221A6097E7104B8C
:100D8C0002930E4B0193104B00930E4B044A1249E5
:100D9C000968044800F062F905B0BDE8F08300BFB3
:100DAC00C8080020F800002000000020E40000200B
:100DBC0000007F43DC000020D8000020EC00002065
:100DCC00E8000020F4000020F0000020E0000020EB
:100DDC0000080140981000200400002008B50122F2
:100DEC0040210920FFF77EFE012240210920FFF758
:100DFC0079FE08BD08B5FFF7F1FF0122C0210220E2
:100E0C00FFF770FE012200210320FFF76BFE012289
:100E1C0000210420FFF766FE012200210520FFF7C8
:100E2C0061FE012200210620FFF75CFE01220F214A
:100E3C000820FFF757FE012203210920FFF752FE7D
:100E4C00012227210A20FFF74DFE012224210C202C
:100E5C00FFF748FE012224210D20FFF743FE01225B
:100E6C007F211020FFF73EFE08BD000000B585B0C5
:100E7C000DF1060302AA0DF1070103A8FFF7D0FE3E
:100E8C009DF90730012B02D005B05DF804FB9DF9EC
:100E9C000630012BF8D10B4A01210846FFF792FDD1
:100EAC00094A01210220FFF78DFD0323039A052136
:100EBC000120FFF7A3FD0323029A05210220FFF76F
:100ECC009DFDE1E7283100082C310008F0B5059EA6
:100EDC0000240C60012419E00EF1010E04EB0E0C41
:100EEC009C4503DA52F82C70BD42F5D052F82C70A8
:100EFC00BD421DDD0D680E2D1CDC6F1C0F6040F813
:100F0C0025400EF1010E744400E001345D1EA54233
:100F1C0012DD52F82450B542F7DD04F1804C0CF18F
:100F2C00FF3C52F82C70BD42EFDD4FF0010ED5E7BF
:100F3C006446EBE76446E9E7F0BD00B58E464FF03A
:100F4C00010C0FE040F82320013B002B06DD03F1E0
:100F5C008042013A50F822208A42F3DC40F82310F8
:100F6C000CF1010CF44503DA50F82C106346ECE755
:100F7C005DF804FB70B515464FF0010E14E041F816
:100F8C002320013B002B0BDD03F1804C0CF1FF3CCB
:100F9C0051F82C2050F824C050F82260B445EEDCF7
:100FAC0041F823400EF1010EAE4503DA51F82E4004
:100FBC007346E7E770BD2DE9F04104460D46104637
:100FCC001E460A682146FFF7D5FF4FF0FF301DE0A3
:100FDC00074612E02B685F1C2F6054F80E7044F823
:100FEC0023700132914210DD4FEA820E54F8223008
:100FFC00B0F1FF3FECD054F82070A3EB070CB445D4
:10100C00E8DC73426345ECDDE4E740462968814245
:10101C0005DD00F10108C5F800804246E2E72046F4
:10102C00FFF78BFFBDE8F08170B582B005460C462A
:10103C001646DDF818C0CDF800C0FFF747FF079B38
:10104C00324621462846FFF7B6FF2368089A93429A
:10105C00A8BF1346236002B070BD00002DE9F04F0D
:10106C00BBB080460C4691461E46449FDDF818B135
:10107C0000231A4603E058F823100A440133A34214
:10108C00F9DBB2FBF4F1002306E058F82320521AE6
:10109C00B74840F823200133A342F6DB0022A446D4
:1010AC0004E09B10B24840F822300A46B2F5F87FB3
:1010BC0011DAAF4C54F82230511C54F8210003447F
:1010CC00901C54F820000344D01C54F820001B182A
:1010DC00E7D50333E5E764460023B3F5F77F0BDC74
:1010EC00591CA34850F8212050F82300121AA1488B
:1010FC0040F823200B46F0E70022B2F5F77F0DDA1B
:10110C009C4951F82230501C51F820C0634403EB29
:10111C00D3735B1041F822300246EEE7002118E051
:10112C00944850F82300A3EB010EDFF84CC23CF8B6
:10113C001EC00CFB10220133081D9842F0DA8F4BB5
:10114C0083FB0203D217C2EB63228A4B43F82120A4
:10115C000131B1F5F47F02DC0B460022ECE70021F3
:10116C000B46B3F5F77F08DC824A52F82320002A9D
:10117C00B8BF524211440133F3E7814A82FB01327A
:10118C00CB17C3EBA2130522029208220192009303
:10119C0040F2EF13774A39A90CA8FFF745FFDDF8A9
:1011AC00E4C0BCF1010F22DD002001239C450FDDC2
:1011BC003AAA02EB830252F8B82C591E0DF1E80E34
:1011CC000EEB810151F8B81C521A10440133EDE7B3
:1011DC000CF1FF3C90FBFCF041F2707393FBF0F3CD
:1011EC00459A136001238BF8003000230FE0654B08
:1011FC00459A136000238BF80030F6E73AAA02EB0D
:10120C00830151F8B82C023241F8402C0133399A41
:10121C009A42F3DC944600230AE058F82310544A0F
:10122C0042F8231059F82310574A42F8231001337F
:10123C00A342F2DB00200146804617E00DF1E80ED8
:10124C000EEB810E4EF87C3C96460133221D9A42E1
:10125C0008DB474A52F823207245F6DA0028EDD015
:10126C000020EBE708B908F1010801318C450DDDD0
:10127C003AAB03EB810353F8404CA31FB3F5F27F59
:10128C00F3D2631F4FF0807E0120DFE74046012838
:10129C0001DD00220BE03B4B336000233B704BE045
:1012AC00033319E09B10384C44F822300A46B2F54F
:1012BC00F87F24DA2E4850F82230511C50F8214087
:1012CC00234402F1020E50F82E40234402F1030C89
:1012DC0050F82C401B19E3D49B10254C44F82230B9
:1012EC00294850F8223050F82140234450F82E4021
:1012FC00234450F82C401B19D4D50333D2E7404675
:10130C00002306E03AAA02EB8302002142F8CC1C2F
:10131C000133042BF6DD0023834210DA3AAA02EBE8
:10132C00830252F87C2CB2F5FA7F01DC0133F3E72F
:10133C00144B336000233B703BB0BDE8F08F0024AE
:10134C002346D1460596BA465EE00137BA421DDD0A
:10135C00074B53F82730434501DDB94698460A4BF5
:10136C0053F827308B42F0DD3D461946EDE700BFC0
:10137C007018002040200020E8310008ED9B5F72BF
:10138C006757192119FCFFFFA01000204346424F5C
:10139C0057F8228057F826B0A8EB0B08A5EB060BE4
:1013AC000BFB08F898FBFEF857F826B0D84457F812
:1013BC002570A7EB080B394F57F8222057F82680D9
:1013CC00A2EB0802A9EB060606FB02F292FBFEF268
:1013DC00904457F82520A2EB08020BFB03F3DB111A
:1013EC0001FB02F2D211002A0DDD042C0BDC53B1EF
:1013FC0003EB83039B0093FBF2F33AAA02EB840208
:10140C0042F8CC3C01346346421E9A4216DD03F18D
:10141C00010C3AAA02EB8C0252F87C2C3AA901EB93
:10142C00830353F87C6CA2EB060EBEF10A0FEADDC7
:10143C0037464FF07F431946984687E7059E574637
:10144C00214607A8FFF779FD04EBD4725210032C48
:10145C0016DD531E3AA901EB830353F8CC3C01EB88
:10146C00820252F8CC2C134403EBD3735B10DA1EBC
:10147C00B42A0BD80A4AD35C336001233B705BE778
:10148C003AAB03EB820252F8CC3CF0E7054B3360ED
:10149C0000233B7050E700BFA01000207018002004
:1014AC003031000819FCFFFFFEE7FEE7FEE7FEE720
:1014BC00FEE770477047704708B500F019FE08BD8D
:1014CC0082B00E4B9A6942F001029A619A6902F05D
:1014DC0001020092009ADA6942F08052DA61DB690B
:1014EC0003F080530193019B054A536823F0E0639A
:1014FC0043F00073536002B0704700BF001002400D
:10150C000000014003685A6912F4806F01D1002079
:10151C0070476FF480625A6100230363202280F8C5
:10152C003D2080F83E30026C42F00402026480F8E8
:10153C003C30012070472DE9F04106460C46174619
:10154C0098463BE000F0E0FD069BC01A404502D8EF
:10155C00B8F1000F32D1012D18D033689B6924EA01
:10156C0003039BB2B3FA83F35B099F4226D100239A
:10157C003363202286F83D2086F83E30326C42F0F0
:10158C002002326486F83C30012027E033685B6926
:10159C0024EA03039BB2B3FA83F35B09E5E73368F0
:1015AC005B6924EA030C1FFA8CFCBCFA8CFC4FEA36
:1015BC005C1C674511D1B8F1FF3FC3D1C4F307459B
:1015CC00012DECD033689B6924EA030C1FFA8CFCC8
:1015DC00BCFA8CFC4FEA5C1CEBE70020BDE8F08108
:1015EC002DE9F84305460E469046994653E01A6895
:1015FC0042F400721A602B686FF480625A61002307
:10160C002B63202285F83D2085F83E302A6C42F071
:10161C0004022A6485F83C3001204AE000F074FD95
:10162C00A0EB0900404502D8B8F1000F33D1012FCF
:10163C0017D02B689B6926EA03039BB2003B18BFAB
:10164C00012343B300232B63202285F83D2085F82A
:10165C003E302A6C42F020022A6485F83C3001208E
:10166C0027E02B685B6926EA03039BB2003B18BF9B
:10167C000123E6E72B689C6926EA0404A4B2003C2B
:10168C0018BF0124A4B12B685A6912F4806FAED133
:10169C00B8F1FF3FC2D1C6F30747012FEAD12B683F
:1016AC005C6926EA0404A4B2003C18BF0124E9E7F3
:1016BC000020BDE8F88370B504460D461646236835
:1016CC005B6913F0800F21D12046FFF71BFFF8B99F
:1016DC00B5F1FF3FF3D000F017FD801BA84201D8F5
:1016EC00002DECD123685B6913F0800FE7D1002348
:1016FC002363202284F83D2084F83E30226C42F093
:10170C002002226484F83C30012000E0002070BDEF
:10171C000120FCE72DE9F04385B004460D469146C7
:10172C001F46DDF830800D9E0368196841F4807106
:10173C0019600096434600224FF00111FFF7FBFEA3
:10174C0060B9236805F0FE051D6133464246264903
:10175C002046FFF745FF68B1012008E023681B68AD
:10176C0013F4807F02D04FF400732364032005B080
:10177C00BDE8F0830023039323685A6903929B69A5
:10178C000393039B324641462046FFF794FF30B942
:10179C00012F0FD123685FFA89F61E61E7E7236CEE
:1017AC00042B01D00120E2E72268136843F4007394
:1017BC001360F7E723684FEA19221A613246414653
:1017CC002046FFF778FF20B923685FFA89F61E617F
:1017DC00CDE7236C042B01D00120C8E722681368E5
:1017EC0043F400731360F7E7020001002DE9F047A2
:1017FC0084B004460D46164699460C9FDDF834809D
:10180C000268136843F4806313600368196841F439
:10181C0080711960CDF800803B4600224FF0011119
:10182C00FFF789FE70B95FFA85FA236805F0FE05AB
:10183C001D6143463A4641492046FFF7D1FE68B147
:10184C00012008E023681B6813F4807F02D04FF45A
:10185C0000732364032004B0BDE8F08700230393D6
:10186C0023685A6903929B690393039B424639464A
:10187C002046FFF720FF80B9B9F1010F18D123687A
:10188C00F6B21E61424639462046FFF714FF68B394
:10189C00236C042B24D00120DDE7236C042B01D016
:1018AC000120D8E72268136843F400731360F7E74C
:1018BC002368320A1A61424639462046FFF7FBFE7E
:1018CC0018B92368F6B21E61DCE7236C042B01D037
:1018DC000120C0E72268136843F400731360F7E734
:1018EC002268136843F400731360D4E7226813680A
:1018FC0043F480731360CDF800803B4600224FF018
:10190C0001112046FFF717FE68B922684AF001035F
:10191C00136143463A4609492046FFF761FE002809
:10192C0099D0012097E723681B6813F4807F02D0BD
:10193C004FF40073236403208DE700BF0200010005
:10194C0070B504460D46164623685B6913F0040F08
:10195C0021D12046FFF7D6FDF8B9B5F1FF3FF3D002
:10196C0000F0D2FB801BA84201D8002DECD12368DB
:10197C005B6913F0040FE7D100232363202284F862
:10198C003D2084F83E30226C42F02002226484F820
:10199C003C30012000E0002070BD0120FCE770B558
:1019AC0004460D46164614E06FF010025A610023EF
:1019BC002363202284F83D2084F83E30226C22647C
:1019CC0084F83C30012025E023685B6913F0400F5C
:1019DC0010D02368586910F0400F1AD1586910F0D4
:1019EC00100FE1D100F090FB801BA842ECD8002D29
:1019FC00EFD1E9E700232363202284F83D2084F80B
:101A0C003E30226C42F02002226484F83C300120EB
:101A1C0000E0002070BD0000002800F0CC8070B504
:101A2C00044690F83D30002B77D0242384F83D30C9
:101A3C002268136823F0010313602268136843F4CF
:101A4C00004313602268136823F40043136000F012
:101A5C0079FE62685A4B9A4264D85A4B98428CBFB2
:101A6C0000230123002B40F0A8805749A1FB003133
:101A7C008B0C25686A6822F03F0242EA91426A6048
:101A8C0021680A6A22F03F0266684D4DAE424FD87B
:101A9C00013313430B622168CA6922F44F4222F0CE
:101AAC00FF026568464B9D424CD8431E6D00B3FB4C
:101ABC00F5F3013340F6FC70034278D0C3F30B030B
:101ACC001A43CA6121680B6823F0C003E269206ADB
:101ADC00024313430B6021688B6823F4034323F008
:101AEC00FF032269E068024313438B602168CB68D3
:101AFC0023F0FF036269A06902431343CB602268A1
:101B0C00136843F00103136000202064202384F841
:101B1C003D30206384F83E0070BD80F83C30FEF709
:101B2C0077FE82E7294B98428CBF0023012399E76B
:101B3C004FF4967505FB03F3254DA5FB03539B0949
:101B4C000133A6E7A668BEB9431E05EB450CB3FBF3
:101B5C00FCF30133C3F30B03B3FA83F35B0943BB0D
:101B6C00C6B9431E05EB4505B3FBF5F30133C3F3CF
:101B7C000B0343F40043A3E7431E05EB850C0CEB6E
:101B8C008C0CB3FBFCF30133C3F30B03B3FA83F3F9
:101B9C005B09E4E7431E05EB850505EB8505B3FB07
:101BAC00F5F30133C3F30B0343F4404388E70423F9
:101BBC0086E7012384E7012070470120ACE700BFD2
:101BCC00A08601007F841E0083DE1B43FF083D00BE
:101BDC00D34D62102DE9F04383B004460F46904676
:101BEC0099460C9E00F090FA054694F83D00C0B260
:101BFC00202803D0022003B0BDE8F0830095192300
:101C0C0001224B492046FFF796FC002840F08980C2
:101C1C0094F83C30012B00F08680012384F83C3092
:101C2C0023681A6812F0010F03D11A6842F00102FE
:101C3C001A602268136823F400631360212384F86C
:101C4C003D30402384F83E30002323640A9B6362BA
:101C5C00BDF82C306385638D2385364BE36201958B
:101C6C0000964B46424639462046FFF753FD002866
:101C7C005BD1238D002B35D02A4631462046FFF709
:101C8C001AFD20BB626A236812781A61626A531CBF
:101C9C006362218D013989B22185638D9BB2013B31
:101CAC009BB263852368586910F0040FE1D00029BA
:101CBC00DFD052781A61636A01336362238D013B72
:101CCC002385638D9BB2013B9BB26385D1E7236C6B
:101CDC00042B01D001208EE72268136843F40073B3
:101CEC001360F7E72A4631462046FFF729FE50B12C
:101CFC00236C042B01D001207DE72268136843F488
:101D0C0000731360F7E72268136843F400731360E1
:101D1C00202384F83D30002384F83E3084F83C3096
:101D2C0069E7022067E7022065E7012063E700BF4F
:101D3C00020010000000FFFF2DE9F04389B00446BB
:101D4C000F4690469946129E0023079300F0DCF94B
:101D5C00054694F83D00C0B2202804D0022738462E
:101D6C0009B0BDE8F0830095192301228149204672
:101D7C00FFF7E1FB002840F0728194F83C30012B16
:101D8C0000F06F81012384F83C3023681A6812F04C
:101D9C00010F03D11A6842F001021A60226813681D
:101DAC0023F400631360222384F83D30402384F82D
:101DBC003E3000232364109B6362BDF8443063857E
:101DCC00638D23856C4BE362019500964B4642462E
:101DDC0039462046FFF70AFD0746002840F04381AC
:101DEC00238D5BB9039323685A6903929A69039212
:101DFC00039A1A6842F400721A60EDE0012B0FD0BE
:101E0C00022B21D02268136843F4806313600023F3
:101E1C00069323685A6906929B690693069BDBE03E
:101E2C002268136823F48063136072B60023049352
:101E3C0023685A6904929A690492049A1A6842F4C3
:101E4C0000721A6062B6C7E02268136843F400633C
:101E5C00136072B60023059323685A6905929A6938
:101E6C000592059A1A6822F480621A6062B6B3E091
:101E7C002A4631462046FFF792FD002840F0F580B7
:101E8C0023681A69636A1A70636A01336362238D6B
:101E9C00013B2385638D9BB2013B9BB263859BE029
:101EAC0000953346002235492046FFF744FB0028B5
:101EBC0040F0DF802268136823F48063136072B6ED
:101ECC0023681A69636A1A70636A01336362238D2B
:101EDC00013B2385638D9BB2013B9BB26385284BF1
:101EEC001B68DB08274AA2FB03231B0A03EB8303B3
:101EFC00C3EBC3030793079B013B0793079B002B83
:101F0C0028D023685A6912F0040FF4D01A6842F4EE
:101F1C0000721A6023681A69636A1A70636A013363
:101F2C006362238D013B2385638D9BB2013B9BB286
:101F3C00638562B623681A69636A1A70636A01332F
:101F4C006362238D013B2385638D9BB2013B9BB266
:101F5C00638541E02363202284F83D2084F83E30E1
:101F6C00226C42F02002226462B684F83C300127D5
:101F7C00F5E600BF020010000000FFFF04000100A6
:101F8C001000002089B5F8142A4631462046FFF788
:101F9C0006FD00286FD123681A69636A1A70626A99
:101FAC00531C6362238D013B2385638D9BB2013BE4
:101FBC009BB263852368596911F0040F0CD01B691F
:101FCC005370636A01336362238D013B2385638DF8
:101FDC009BB2013B9BB26385238D002B36D0032B28
:101FEC00D2D8012B3FF444AF022B7FF459AF0095AC
:101FFC003346002221492046FFF79DFA002836D1AE
:10200C0072B62268136843F40073136023681A696C
:10201C00636A1A70636A01336362238D013B238503
:10202C00638D9BB2013B9BB2638562B623681A69D0
:10203C00636A1A70636A01336362238D013B2385E3
:10204C00638D9BB2013B9BB26385C5E7202384F86B
:10205C003D30002384F83E3084F83C307FE6022784
:10206C007DE602277BE6012779E6012777E6012743
:10207C0075E6012773E6012771E600BF0400010035
:10208C0010B504460E4B1A784FF47A73B3FBF2F387
:10209C000C4A1068B0FBF3F000F0D0FC68B90F2CC0
:1020AC0001D901200AE0002221464FF0FF3000F058
:1020BC00B5FC054B1C60002000E0012010BD00BFEA
:1020CC0008000020100000200C00002008B5074A72
:1020DC00136843F010031360032000F08DFC0F20F5
:1020EC00FFF7CEFFFFF7ECF9002008BD00200240FF
:1020FC00034A1168034B1B780B441360704700BFF5
:10210C000028002008000020014B1868704700BF11
:10211C000028002038B50446FFF7F6FF0546B4F159
:10212C00FF3F02D0044B1B781C44FFF7EDFF401B14
:10213C00A042FAD338BD00BF0800002082B0084B83
:10214C001B68084AA2FB03235B0A00FB03F3019301
:10215C0000BF019B5A1E0192002BF9D102B07047AF
:10216C0010000020D34D6210002800F0F18170B5F2
:10217C0082B00446036813F0010F2CD0994B5B68B6
:10218C0003F00C03042B1DD0964B5B6803F00C037F
:10219C00082B12D06368B3F5803F41D0002B55D18A
:1021AC0003F1804303F504331A6822F480321A6079
:1021BC001A6822F480221A6037E08A4B5B6813F4A9
:1021CC00803FE7D0874B1B6813F4003F03D0636854
:1021DC00002B00F0BF81236813F0020F75D0814BE8
:1021EC005B6813F00C0F5FD07E4B5B6803F00C0345
:1021FC00082B54D02369002B00F08A807A4B0122E3
:10220C001A60FFF781FF0546764B1B6813F0020F2F
:10221C0075D1FFF779FF401B0228F5D903209EE109
:10222C00704A136843F480331360636843B3FFF759
:10223C006BFF05466B4B1B6813F4003FCBD1FFF7CC
:10224C0063FF401B6428F5D9032088E1B3F5A02F68
:10225C0009D0644B1A6822F480321A601A6822F48E
:10226C0080221A60E1E703F18043A3F53C331A683E
:10227C0042F480221A601A6842F480321A60D4E761
:10228C00FFF742FF0546574B1B6813F4003FA2D0E3
:10229C00FFF73AFF401B6428F5D903205FE1514B4F
:1022AC005B6813F4803FA5D14E4B1B6813F0020FF3
:1022BC0003D02369012B40F04F814A4A136823F065
:1022CC00F803616943EAC1031360236813F0080F34
:1022DC0033D0A369002B5CD0434B0122C3F880247C
:1022EC00FFF712FF05463F4B5B6A13F0020F21D13B
:1022FC00FFF70AFF401B0228F5D903202FE1394ACA
:10230C00136823F0F803616943EAC1031360DCE747
:10231C00354B00221A60FFF7F7FE0546314B1B6860
:10232C0013F0020FD1D0FFF7EFFE401B0228F5D9B6
:10233C00032014E10120FFF701FF236813F0040FC1
:10234C0000F09680274BDB6913F0805F34D1254B6E
:10235C00DA6942F08052DA61DB6903F08053019351
:10236C00019B0125214B1B6813F4807F26D0E36869
:10237C00012B3DD0002B53D103F1804303F50433E3
:10238C001A6A22F001021A621A6A22F004021A6214
:10239C0033E0154B0022C3F88024FFF7B5FE054649
:1023AC00104B5B6A13F0020FC7D0FFF7ADFE401B5A
:1023BC000228F5D90320D2E00025D3E70B4A136895
:1023CC0043F480731360FFF79FFE0646074B1B68B0
:1023DC0013F4807FCBD1FFF797FE801B6428F5D9CF
:1023EC000320BCE00010024000004242007000409C
:1023FC005F4A136A43F001031362E36833B3FFF7D8
:10240C0083FE06465A4B1B6A13F0020F2FD1FFF7BF
:10241C007BFE801B41F288339842F3D903209EE067
:10242C00052B09D0524B1A6A22F001021A621A6A61
:10243C0022F004021A62E0E74D4B1A6A42F00402E1
:10244C001A621A6A42F001021A62D6E7FFF75CFEC2
:10245C000646474B1B6A13F0020F08D0FFF754FED9
:10246C00801B41F288339842F3D9032077E0E5B919
:10247C00E369002B72D03E4A526802F00C02082A23
:10248C0056D0022B17D03B4B00221A66FFF73CFEAE
:10249C000446374B1B6813F0007F47D0FFF734FE20
:1024AC00001B0228F5D9032059E0314AD36923F0E7
:1024BC008053D361DCE72F4B00221A66FFF724FE12
:1024CC0005462B4B1B6813F0007F06D0FFF71CFE54
:1024DC00401B0228F5D9032041E0236AB3F5803F65
:1024EC001AD023494B6823F47413226A606A02439E
:1024FC0013434B601F4B01221A66FFF705FE04467F
:10250C001B4B1B6813F0007F0ED1FFF7FDFD001B6A
:10251C000228F5D9032022E0154A536823F400332E
:10252C00A1680B435360DCE7002018E0002016E0A4
:10253C00012B16D00E4B5B6803F48031226A91425A
:10254C0011D103F47013626A93420ED1002006E09D
:10255C0001207047012002E0012000E0002002B0C1
:10256C0070BD0120FBE70120F9E70120F7E700BF70
:10257C0000100240000042420F4B5B6803F00C025B
:10258C00082A01D00D487047C3F383420C49885C7C
:10259C0013F4803F0BD0084B5B68C3F34043094AEC
:1025AC00D35C064A02FB00F0B0FBF3F07047064B1D
:1025BC0003FB00F0704700BF0010024000127A00CD
:1025CC002C3200082832000800093D00002800F0D9
:1025DC00A08070B50D460446524B1B6803F00703F0
:1025EC008B420BD24F4A136823F007030B43136043
:1025FC00136803F007038B4240F08D80236813F0BF
:10260C00020F17D013F0040F04D0474A536843F459
:10261C00E0635360236813F0080F04D0424A5368F8
:10262C0043F460535360404A536823F0F003A168AD
:10263C000B435360236813F0010F31D06368012BF7
:10264C0020D0022B25D0384A126812F0020F64D029
:10265C0035494A6822F0030213434B60FFF754FDDF
:10266C000646314B5B6803F00C036268B3EB820FD8
:10267C0016D0FFF749FD801B41F288339842F0D900
:10268C00032045E0284A126812F4003FE0D10120F3
:10269C003EE0254A126812F0007FD9D1012037E0C4
:1026AC00204B1B6803F00703AB420AD91D4A136881
:1026BC0023F007032B431360136803F00703AB42AB
:1026CC002DD1236813F0040F06D0174A536823F456
:1026DC00E063E1680B435360236813F0080F07D0E5
:1026EC00114A536823F46053216943EAC1035360D0
:1026FC00FFF742FF0C4B5B68C3F303130B4AD35C2D
:10270C00D8400B4B18600B4B1868FFF7B9FC002036
:10271C0070BD012070470120FAE70120F8E7012085
:10272C00F6E700BF002002400010024044320008CF
:10273C00100000200C000020014B1868704700BFEF
:10274C001000002008B5FFF7F7FF044B5B68C3F3DC
:10275C000223034AD35CD84008BD00BF00100240DE
:10276C003C32000870B582B00024A446A2E07E4D35
:10277C00AB4210D007D97D4DAB420CD005F580355E
:10278C00AB4208D013E0A5F58015AB4203D005F59C
:10279C007025AB4207D18B68002B55D0012B4ED046
:1027AC004261082403E0A5F58015AB42F3D0BEF1DD
:1027BC00FF0F4BD806464FEA8C0233680F25954025
:1027CC0023EA050304FA02F2134333604B6813F057
:1027DC00805F6DD0664B9A6942F001029A619B69E9
:1027EC0003F001030193019B4FEA9C02951C614B82
:1027FC0053F825600CF00305AD000F23AB4026EA1F
:10280C0003065D4B984228D003F58063984200F094
:10281C008D8003F58063984200F08A8003F5806315
:10282C00984218D0042319E0CC68C0E7CC68043473
:10283C00BDE7CC680834BAE7CC680C34B7E7026162
:10284C000824B4E70024B2E70424B0E7061DACF179
:10285C0008029200B1E7032300E00023AB403343AE
:10286C000232444D45F822304B6813F4801F61D07E
:10287C00424A936843EA0E0393604B6813F4001FBB
:10288C005ED03E4AD36843EA0E03D3604B6813F420
:10289C00003F5BD0394A536843EA0E0353604B68E0
:1028AC0013F4803F58D0354A136843EA0E03136083
:1028BC000CF1010C0B6833FA0CF253D0012202FA22
:1028CC000CF203EA020E32EA0303F1D14B68122B2D
:1028DC003FF64DAF122B3FF66AAF01A555F823F02A
:1028EC00A3270008352800083F28000851280008B5
:1028FC00BB270008BB270008BB270008BB27000824
:10290C00BB270008BB270008BB270008BB27000813
:10291C00BB270008BB270008BB270008BB27000803
:10292C00BB2700083928000845280008012395E733
:10293C00022393E7114A936823EA0E0393609CE702
:10294C000E4AD36823EA0E03D3609FE70B4A536801
:10295C0023EA0E035360A2E7084A136823EA0E0326
:10296C001360A5E702B070BD00002210000031100A
:10297C00001002400000014000080140000401402A
:10298C008368194201D00120704700207047000075
:10299C00002808DB0901C9B200F1604000F5614074
:1029AC0080F80013704700F00F000901C9B2014B09
:1029BC001954704714ED00E000B500F00700C0F1A9
:1029CC00070CBCF1040F28BF4FF0040C031D062BA1
:1029DC000FD9C31E4FF0FF3E0EFA0CF021EA000196
:1029EC0099400EFA03FE22EA0E0241EA02005DF85B
:1029FC0004FB0023EEE70000074AD36823F4E063EE
:102A0C001B041B0C000200F4E060034343F0BF63A3
:102A1C0043F40033D360704700ED00E010B504467A
:102A2C00054BD868C0F30220FFF7C6FF01462046CD
:102A3C00FFF7AEFF10BD00BF00ED00E00138B0F1B4
:102A4C00807F0BD24FF0E0235861054AF02182F8C9
:102A5C0023100020986107221A61704701207047EB
:102A6C0000ED00E070470000FFF7FCFF0B480C493D
:102A7C000C4A002302E0D458C4500433C4188C42CE
:102A8C00F9D3094A094C002301E013600432A24235
:102A9C00FBD300F00FF8FDF731FE7047000000206B
:102AAC00140000205C3200081400002004280020D0
:102ABC00FEE7000070B500260C4D0D4C641BA410F5
:102ACC00A64209D100F022F800260A4D0A4C641BDC
:102ADC00A410A64205D170BD55F8043B98470136A9
:102AEC00EEE755F8043B98470136F2E754320008FC
:102AFC00543200085432000858320008034602448D
:102B0C00934200D1704703F8011BF9E7F8B500BFF9
:102B1C00F8BC08BC9E467047F8B500BFF8BC08BCB2
:042B2C009E4670470A
:102B30006A696B6C69000000000000000000000082
:102B40000000000000000000000000F8000000008D
:102B5000000000333000000000100C06100C0600CE
:102B6000000000000000000040C07840C078400035
:102B7000043F04043F040400007088FC0830000097
:102B8000001820FF211E0000F008F000E0180000EF
:102B900000211C031E211E0000F0088870000000A8
:102BA0001E2123241927211010160E0000000000FA
:102BB0000000000000000000000000E01804020017
:102BC000000000071820400000020418E000000088
:102BD0000040201807000000404080F08040400086
:102BE0000202010F01020200000000F000000000DC
:102BF0000101011F010101000000000000000000B0
:102C000080B0700000000000000000000000000024
:102C100000010101010101010000000000000000AD
:102C20000030300000000000000000008060180448
:102C3000006018060100000000E010080810E00025
:102C4000000F102020100F00001010F800000000EE
:102C50000020203F20200000007008080888700035
:102C600000302824222130000030088888483000B5
:102C70000018202020110E000000C02010F80000D5
:102C800000070424243F240000F80888880808006E
:102C90000019212020110E0000E010888818000083
:102CA000000F112020110E0000380808C838080055
:102CB0000000003F000000000070880808887000D5
:102CC000001C222121221C0000E010080810E00056
:102CD0000000312222110F00000000C0C0000000DF
:102CE0000000003030000000000000800000000004
:102CF00000008060000000000000804020100800FC
:102D000000010204081020004040404040404000C4
:102D1000040404040404040000081020408000009F
:102D20000020100804020100007048080808F000A4
:102D30000000003036010000C030C828E810E00074
:102D40000718272423140B000000C038E0000000FF
:102D5000203C23020227382008F888888870000069
:102D6000203F202020110E00C0300808080838003D
:102D7000071820202010080008F808080810E000B4
:102D8000203F202020100F0008F88888E808100055
:102D9000203F20202320180008F88888E808100029
:102DA000203F200003000000C03008080838000061
:102DB00007182020221E020008F808000008F80862
:102DC000203F210101213F20000808F808080000E9
:102DD0000020203F2020000000000808F80808001C
:102DE000C08080807F00000008F888C02818080094
:102DF000203F20012638200008F8080000000000CD
:102E0000203F20202020300008F8F800F8F80800C3
:102E1000203F003F003F200008F830C00008F808BD
:102E2000203F200007183F00E01008080810E000CD
:102E30000F10202020100F0008F808080808F000E4
:102E4000203F210101010000E01008080810E00007
:102E50000F18242438504F0008F88888888870009C
:102E6000203F2000030C302000708808080838003C
:102E70000038202121221C00180808F80808180032
:102E80000000203F2000000008F808000008F808B3
:102E9000001F202020201F000878880000C8380864
:102EA000000007380E010000F80800F80008F800DC
:102EB000033C0700073C0300081868808068180876
:102EC00020302C03032C30200838C800C8380800F4
:102ED0000000203F2000000010080808C838080043
:102EE0002038262120201800000000FE02020200E7
:102EF0000000007F40404000000C30C00000000097
:102F0000000000010638C00000020202FE000000BE
:102F1000004040407F000000000004020202040064
:102F200000000000000000000000000000000000A1
:102F30008080808080808080000202040000000089
:102F40000000000000000000000080808080000081
:102F50000019242222223F2008F80080800000006F
:102F6000003F112020110E00000000808080000032
:102F7000000E112020201100000000808088F80041
:102F8000000E112020103F20000080808080000073
:102F9000001F222222221300008080F088888818D7
:102FA0000020203F202000000000808080808000E2
:102FB000006B94949493600008F800808080000077
:102FC000203F210000203F20008098980000000052
:102FD0000020203F20200000000000809898000082
:102FE00000C08080807F000008F8000080808000A2
:102FF000203F24022D302000000808F800000000C7
:103000000020203F20200000808080808080800081
:10301000203F20003F20003F808000808080000013
:10302000203F210000203F200000808080800000A1
:10303000001F202020201F008080008080000000D2
:1030400080FFA12020110E00000000808080800001
:10305000000E112020A0FF808080800080808000F2
:1030600020203F212000010000008080808080001F
:103070000033242424241900008080E08080000094
:103080000000001F202000008080000000808000E1
:10309000001F202020103F20808080000080808042
:1030A00000010E30080601008080008000808080D2
:1030B0000F300C030C300F000080800080808000F7
:1030C0000020312E0E312000808080000080808022
:1030D00080818E70180601000080808080808000D2
:1030E0000021302C2221300000000000807C0202F0
:1030F00000000000003F404000000000FF00000012
:1031000000000000FF0000000002027C80000000C0
:103110000040403F000000000006010102020404DC
:10312000000000000000000048523A00424F3A0000
:103130005F5F5F6060606161616161626262626283
:103140006363636363636363646464646464646447
:103150006464646464646464646464646363636333
:103160006363636362626262626261616161606043
:1031700060605F5F5F5E5E5E5D5D5D5C5C5C5B5B77
:103180005A5A5959595858575756565555545453D1
:103190005252515150504F4E4E4D4C4C4B4A4A4951
:1031A0004848474645454443424241403F3E3E3DF4
:1031B0003C3B3A39383837363534333231302F2EBC
:1031C0002D2C2B2A2928272625242322211F1E1DAA
:1031D0001C1B1A19171615141311100F0E0C0B0ABD
:1031E0000907060503020100290014010002140169
:1031F00029000000000000000000000000000000A6
:1032000000000000000000000000000000000000BE
:1032100000000000000000000000000000000000AE
:10322000000000000000000001020000020304058D
:10323000060708090A0B0C0D0E0F10100000000005
:10324000010203040000000000000000010203046A
:04325000060708095C
:043254007D060008EB
:04325800550600080F
:10325C00FFFF0300F401000001000000100000005B
:04326C000024F40046
:0400000508002A7550
:00000001FF
