:020000040800F2
:1000000000500020A15C0008391500083B150008CD
:100010003D1500083F1500084115000800000000CC
:100020000000000000000000000000004315000870
:100030004515000800000000471500084915000894
:10004000E95C0008E95C0008E95C0008E95C00087C
:10005000E95C0008E95C0008E95C0008E95C00086C
:10006000E95C0008E95C0008E95C0008E95C00085C
:10007000E95C0008E95C0008E95C0008E95C00084C
:10008000E95C0008E95C0008E95C0008E95C00083C
:1000900051150008E95C0008E95C0008E95C00080B
:1000A000E95C0008E95C0008E95C0008E95C00081C
:1000B000E95C0008E95C0008E95C0008E95C00080C
:1000C000E95C0008E95C0008E95C0008E95C0008FC
:1000D000E95C0008E95C0008E95C0008E95C0008EC
:1000E000E95C0008E95C0008E95C00080000000029
:1000F0000000000000000000000000000000000000
:0C01000000000000000000005FF808F1A3
:10010C0080F0004002E000BF81F0004142001FBFC0
:10011C005FEA410392EA030F7FEA226C7FEA236CC9
:10012C006AD04FEA1262D2EB1363C1BFD2184140BE
:10013C0048404140B8BF5B42192B88BF704710F054
:10014C00004F40F4000020F07F4018BF404211F0F7
:10015C00004F41F4000121F07F4118BF494292EA5F
:10016C00030F3FD0A2F1010241FA03FC10EB0C008B
:10017C00C3F1200301FA03F100F0004302D5494218
:10018C0060EB4000B0F5000F13D3B0F1807F06D3C5
:10019C0040084FEA310102F10102FE2A51D2B1F1BD
:1001AC00004F40EBC25008BF20F0010040EA0300B2
:1001BC007047490040EB0000013A28BFB0F5000F32
:1001CC00EDD2B0FA80FCACF1080CB2EB0C0200FAE8
:1001DC000CF0AABF00EBC25052421843BCBFD04037
:1001EC001843704792F0000F81F4000106BF80F4B1
:1001FC0000000132013BB5E74FEA41037FEA226C74
:10020C0018BF7FEA236C21D092EA030F04D092F03E
:10021C00000F08BF0846704790EA010F1CBF002072
:10022C00704712F07F4F04D1400028BF40F00040CF
:10023C00704712F100723CBF00F50000704700F0EF
:10024C00004343F0FE4040F4000070477FEA226216
:10025C0016BF08467FEA23630146420206BF5FEAE7
:10026C00412390EA010F40F4800070474FF00003E7
:10027C0004E000BF10F0004348BF40425FEA000CAE
:10028C0008BF704743F0964301464FF000001CE056
:10029C0050EA010208BF70474FF000030AE000BFAC
:1002AC0050EA010208BF704711F0004302D54042EA
:1002BC0061EB41015FEA010C02BF8446014600205C
:1002CC0043F0B64308BFA3F18053A3F50003BCFA77
:1002DC008CF2083AA3EBC25310DB01FA02FC634424
:1002EC0000FA02FCC2F12002BCF1004F20FA02F22B
:1002FC0043EB020008BF20F00100704702F120021E
:10030C0001FA02FCC2F1200250EA4C0021FA02F27E
:10031C0043EB020008BF20EADC7070474FF0FF0C83
:10032C001CEAD0521EBF1CEAD15392EA0C0F93EA7E
:10033C000C0F6FD01A4480EA010C400218BF5FEA20
:10034C0041211ED04FF0006343EA501043EA511193
:10035C00A0FB01310CF00040B1F5000F3EBF49008D
:10036C0041EAD3715B0040EA010062F17F02FD2A91
:10037C001DD8B3F1004F40EBC25008BF20F0010074
:10038C00704790F0000F0CF0004C08BF49024CEA8B
:10039C00502040EA51207F3AC2BFD2F1FF0340EA1D
:1003AC00C250704740F400004FF00003013A5DDC8E
:1003BC0012F1190FDCBF00F000407047C2F10002CF
:1003CC00410021FA02F1C2F1200200FA02FC5FEABC
:1003DC00310040F1000053EA4C0308BF20EADC7006
:1003EC00704792F0000F00F0004C02BF400010F478
:1003FC00000F013AF9D040EA0C0093F0000F01F025
:10040C00004C02BF490011F4000F013BF9D041EA46
:10041C000C018FE70CEAD15392EA0C0F18BF93EA48
:10042C000C0F0AD030F0004C18BF31F0004CD8D172
:10043C0080EA010000F00040704790F0000F17BFF9
:10044C0090F0004F084691F0000F91F0004F14D03F
:10045C0092EA0C0F01D142020FD193EA0C0F03D197
:10046C004B0218BF084608D180EA010000F000409A
:10047C0040F0FE4040F40000704740F0FE4040F475
:10048C00400070474FF0FF0C1CEAD0521EBF1CEA14
:10049C00D15392EA0C0F93EA0C0F69D0A2EB030232
:1004AC0080EA010C49024FEA402037D04FF08053CC
:1004BC0043EA111143EA10130CF000408B4238BF91
:1004CC005B0042F17D024FF4000C8B4224BF5B1A9F
:1004DC0040EA0C00B3EB510F24BFA3EB510340EAED
:1004EC005C00B3EB910F24BFA3EB910340EA9C009B
:1004FC00B3EBD10F24BFA3EBD10340EADC001B010B
:10050C0018BF5FEA1C1CE0D1FD2A3FF650AF8B42AE
:10051C0040EBC25008BF20F0010070470CF0004CBB
:10052C004CEA50207F32C2BFD2F1FF0340EAC250E6
:10053C00704740F400004FF00003013A37E792F0A7
:10054C00000F00F0004C02BF400010F4000F013A05
:10055C00F9D040EA0C0093F0000F01F0004C02BF00
:10056C00490011F4000F013BF9D041EA0C0195E769
:10057C000CEAD15392EA0C0F08D142027FF47DAF02
:10058C0093EA0C0F7FF470AF084676E793EA0C0FF2
:10059C0004D14B023FF44CAF08466EE730F0004CF0
:1005AC0018BF31F0004CCAD130F000427FF45CAF80
:1005BC0031F000437FF43CAF5FE700BF4FEA4002ED
:1005CC00B2F1FE4F0FD34FF09E03B3EB12620DD975
:1005DC004FEA002343F0004310F0004F23FA02F0DF
:1005EC0018BF404270474FF00000704712F1610F86
:1005FC0001D1420205D110F0004008BF6FF000405D
:10060C0070474FF0000070470348044B834202D000
:10061C00034B03B11847704784010020840100206C
:10062C00000000000548064B1B1AD90F01EBA30173
:10063C00491002D0034B03B11847704784010020C6
:10064C00840100200000000010B5064C237843B94B
:10065C00FFF7DAFF044B13B10448AFF3008001231A
:10066C00237010BD8401002000000000445D0008D0
:10067C0008B5054B1BB105490548AFF30080BDE833
:10068C000840FFF7CFBF00BF00000000880100202A
:10069C00445D000872B6FEE700B595B02822002133
:1006AC000DEB020005F040FB002305930693079326
:1006BC0008930993019302930393049301220A92E2
:1006CC004FF480330B930E920222119212934FF43B
:1006DC00801313930AA801F091FDD0B90F23059351
:1006EC0002230693002307934FF480620892099328
:1006FC00012105A801F0B4FF68B9102301934FF450
:10070C008003049301A802F077F830B915B05DF8B6
:10071C0004FBFFF7BFFFFFF7BDFFFFF7BBFF0000B8
:10072C0000B585B001F01CFDFFF7B6FF00F03CF8FA
:10073C0000F074F800F090F802F07AFA00F0C8F9C2
:10074C0000F09AFB164B6C460FCB07C42380154A5E
:10075C000121042000F078F900F046FA00F0C8FB03
:10076C00104C22460321042000F06EF90E2168463D
:10077C0002F048FB0E21684602F044FB0E2168464D
:10078C0002F040FB0E21684602F03CFB0E2168464D
:10079C0002F038FB22460621042000F055F9DDE773
:1007AC00645D00085C5D000800B589B0002304930B
:1007BC0005930693079303F1804303F504339A6979
:1007CC0042F010029A619A6902F010020092009AAB
:1007DC009A6942F020029A619A6902F02002019211
:1007EC00019A9A6942F004029A619A6902F0040231
:1007FC000292029A9A6942F008029A619B6903F08C
:10080C0008030393039B8023049304A9024802F07A
:10081C007FF809B05DF804FB0008014008B50B48EF
:10082C000B4B03600B4B436000238360C3604FF49E
:10083C008042026143618361C361036201F036F956
:10084C0000B908BDFFF726FFFBE700BFF40100204D
:10085C0000540040A086010008B50B480B4B036008
:10086C000B4B436000238360C3604FF480420261F2
:10087C0043618361C361036201F018F900B908BDDB
:10088C00FFF708FFFBE700BFA00100200058004065
:10089C00A086010010B588B000230493059306933D
:1008AC0007930368224A934204D0224A93421FD0F2
:1008BC0008B010BD204CA36943F00803A361A369E1
:1008CC0003F008030093009BC023049312230593A9
:1008DC000323079304A9194802F01AF8E36943F4B7
:1008EC000013E361E36903F400130193019BDFE759
:1008FC00114CA36943F00803A361A36903F0080337
:10090C000293029B4FF44063049312230593032339
:10091C00079304A9094801F0FBFFE36943F4800342
:10092C00E361E36903F480030393039BC0E700BF17
:10093C00005400400058004000100240000C0140E0
:10094C0000B587B08DF8170064230293012301933F
:10095C000DF11702009200227821034801F084F96E
:10096C0007B05DF804FB00BFF401002000B587B0B0
:10097C008DF8170064230293012301930DF11702E4
:10098C00009240227821034801F06EF907B05DF81F
:10099C0004FB00BFF401002010B50C4640F0B00081
:1009AC00FFF7CEFF200940F01000FFF7C9FF04F05D
:1009BC000F00FFF7C5FF10BD38B5002509E000207A
:1009CC00FFF7D4FF0134E4B214F0800FF7D00135F7
:1009DC00EDB2072D05D800212846FFF7DDFF0024D6
:1009EC00F2E738BDF8B51546461E7600F6B24F1E36
:1009FC00FF00FFB239463046FFF7CEFF002409E076
:100A0C00A5F120020F4B03EB0213185DFFF7AEFFAD
:100A1C000134E4B2072CF3D9701C3946C0B2FFF78D
:100A2C00BBFF00240BE0A5F1200104F10802054BEB
:100A3C0003EB0113985CFFF799FF0134E4B2072C28
:100A4C00F1D9F8BD745D0008F8B507460E46154699
:100A5C00002406E0A119C9B23846FFF7C3FF0134E0
:100A6C00E4B22A5D002AF5D1F8BD0246012002E06D
:100A7C0002FB00F019464B1E0029F9D1704700000B
:100A8C002DE9F8438146884617461E46002419E096
:100A9C0004EB0805EDB2311B01390A20FFF7E5FF25
:100AAC00B7FBF0F0094AA2FB0032D20802EB82023B
:100ABC00A0EB42023032D2B229464846FFF792FFF1
:100ACC000134E4B2B442E3D3BDE8F883CDCCCCCC52
:100ADC0008B5642001F068FBAE20FFF731FFD5208C
:100AEC00FFF72EFF8020FFF72BFFA820FFF728FF32
:100AFC003F20FFF725FFD320FFF722FF0020FFF751
:100B0C001FFF4020FFF71CFFA120FFF719FFC82093
:100B1C00FFF716FFDA20FFF713FF1220FFF710FF85
:100B2C008120FFF70DFFCF20FFF70AFFD920FFF739
:100B3C0007FFF120FFF704FFDB20FFF701FF302058
:100B4C00FFF7FEFEA420FFF7FBFEA620FFF7F8FE42
:100B5C008D20FFF7F5FE1420FFF7F2FEAF20FFF714
:100B6C00EFFEFFF729FF08BD00B587B08DF8171011
:100B7C006423029301920DF11703009301230246A3
:100B8C00AE21034801F070F807B05DF804FB00BF1C
:100B9C00A001002000B585B064230293019200915E
:100BAC0001230246AF21034801F010F905B05DF8AE
:100BBC0004FB00BFA001002070B582B004460D46B6
:100BCC00164601220DF107010020FFF7E3FF012279
:100BDC000DF107011046FFF7DDFF3246294620468E
:100BEC00FFF7D8FF02B070BD30B585B0002400E02F
:100BFC000134214B1968A14230DD80211F4801F0DE
:100C0C0095FF0128F9D01E4D062229460720FFF733
:100C1C00D3FF2B781B0403F440336A7843EA022396
:100C2C00AA781343174A42F82430EA78120402F4E3
:100C3C004032297942EA012269790A43124941F882
:100C4C002420124A1268934201D2104A1360104AAF
:100C5C0012689342CCD90E4A1360C9E70D4B02932C
:100C6C000D4B01930D4B00930D4B064A064800F0BB
:100C7C0037FA05B030BD00BF040000200008014069
:100C8C0008120020380A0020680200200000002012
:100C9C0054020020580200205C0200206002002058
:100CAC00640200202DE9F04385B005460E46174638
:100CBC009846642300E00133B3F5FA7F18DAA3F108
:100CCC006401584850F8232040F82120564C54F821
:100CDC00230044F82100554909688A4201D253493E
:100CEC000A60534909688A42E5D951490A60E2E72A
:100CFC004FF4C8742DE0C01AFFF7B8FA81464C4B7C
:100D0C0018684A4B1B68C01AFFF7B0FA01464846F0
:100D1C00FFF7B8FB4749FFF701FB474B1860FFF79C
:100D2C004DFC464B1A6810441860FF2801DDFF2269
:100D3C001A60434B1B682B60424B93F900303370A5
:100D4C00414B1B683B60414B93F9003088F80030F5
:100D5C000134B4F5FA7F54DA631E324A52F8232078
:100D6C003B4B1A6080213B4801F0E0FE0128F9D092
:100D7C00DFF8E490062249460720FFF71DFF99F89B
:100D8C0000301B0403F4403399F8012043EA02239A
:100D9C0099F802201343234A42F8243099F803208F
:100DAC00120402F4403299F8041042EA012299F834
:100DBC0005100A431C4941F82420254A1068834237
:100DCC0099D9181AFFF752FA8146194B1868174B24
:100DDC001B68C01AFFF74AFA01464846FFF752FB58
:100DEC001449FFF79BFA144B1860FFF7E7FB134A03
:100DFC001368181A106000289BDA134600221A6038
:100E0C0097E7104B02930E4B0193104B00930E4B34
:100E1C00044A12490968044800F062F905B0BDE8BB
:100E2C00F08300BF380A0020680200200000002078
:100E3C005402002000007F434C0200204802002096
:100E4C005C02002058020020640200206002002096
:100E5C00500200200008014008120020040000206D
:100E6C0008B5012240210920FFF77EFE0122402116
:100E7C000920FFF779FE08BD08B5FFF7F1FF012245
:100E8C00C0210220FFF770FE012200210320FFF792
:100E9C006BFE012200210420FFF766FE01220021D7
:100EAC000520FFF761FE012200210620FFF75CFE02
:100EBC0001220F210820FFF757FE012203210920F0
:100ECC00FFF752FE012227210A20FFF74DFE0122D7
:100EDC0024210C20FFF748FE012224210D20FFF7CE
:100EEC0043FE01227F211020FFF73EFE08BD0000CB
:100EFC0000B585B00DF1060302AA0DF1070103A898
:100F0C00FFF7D0FE9DF90730012B02D005B05DF83C
:100F1C0004FB9DF90630012BF8D10B4A0121084640
:100F2C00FFF792FD094A01210220FFF78DFD0323F3
:100F3C00039A05210120FFF7A3FD0323029A052143
:100F4C000220FFF79DFDE1E7646300086863000879
:100F5C00F0B5059E00240C60012419E00EF1010E81
:100F6C0004EB0E0C9C4503DA52F82C70BD42F5D004
:100F7C0052F82C70BD421DDD0D680E2D1CDC6F1C53
:100F8C000F6040F825400EF1010E744400E001346E
:100F9C005D1EA54212DD52F82450B542F7DD04F176
:100FAC00804C0CF1FF3C52F82C70BD42EFDD4FF041
:100FBC00010ED5E76446EBE76446E9E7F0BD00B502
:100FCC008E464FF0010C0FE040F82320013B002B24
:100FDC0006DD03F18042013A50F822208A42F3DC0C
:100FEC0040F823100CF1010CF44503DA50F82C10E6
:100FFC006346ECE75DF804FB70B515464FF0010E47
:10100C0014E041F82320013B002B0BDD03F1804C55
:10101C000CF1FF3C51F82C2050F824C050F8226001
:10102C00B445EEDC41F823400EF1010EAE4503DA77
:10103C0051F82E407346E7E770BD2DE9F0410446A8
:10104C000D4610461E460A682146FFF7D5FF4FF0A5
:10105C00FF301DE0074612E02B685F1C2F6054F830
:10106C000E7044F823700132914210DD4FEA820E6B
:10107C0054F82230B0F1FF3FECD054F82070A3EBC1
:10108C00070CB445E8DC73426345ECDDE4E740460D
:10109C002968814205DD00F10108C5F8008042464F
:1010AC00E2E72046FFF78BFFBDE8F08170B582B018
:1010BC0005460C461646DDF818C0CDF800C0FFF703
:1010CC0047FF079B324621462846FFF7B6FF2368A9
:1010DC00089A9342A8BF1346236002B070BD00006B
:1010EC002DE9F04FBBB080460C4691461E46449FFE
:1010FC00DDF818B100231A4603E058F823100A440F
:10110C000133A342F9DBB2FBF4F1002306E058F8FB
:10111C002320521AB74840F823200133A342F6DBB0
:10112C000022A44604E09B10B24840F822300A4644
:10113C00B2F5F87F11DAAF4C54F82230511C54F848
:10114C0021000344901C54F820000344D01C54F894
:10115C0020001B18E7D50333E5E764460023B3F5FD
:10116C00F77F0BDC591CA34850F8212050F82300C2
:10117C00121AA14840F823200B46F0E70022B2F5E2
:10118C00F77F0DDA9C4951F82230501C51F820C0E1
:10119C00634403EBD3735B1041F822300246EEE755
:1011AC00002118E0944850F82300A3EB010EDFF85F
:1011BC004CC23CF81EC00CFB10220133081D984297
:1011CC00F0DA8F4B83FB0203D217C2EB63228A4BFC
:1011DC0043F821200131B1F5F47F02DC0B460022EB
:1011EC00ECE700210B46B3F5F77F08DC824A52F896
:1011FC002320002AB8BF524211440133F3E7814A3D
:10120C0082FB0132CB17C3EBA213052202920822F8
:10121C000192009340F2EF13774A39A90CA8FFF71B
:10122C0045FFDDF8E4C0BCF1010F22DD00200123F5
:10123C009C450FDD3AAA02EB830252F8B82C591EDA
:10124C000DF1E80E0EEB810151F8B81C521A104446
:10125C000133EDE70CF1FF3C90FBFCF041F27073B5
:10126C0093FBF0F3459A136001238BF800300023B5
:10127C000FE0654B459A136000238BF80030F6E7BE
:10128C003AAA02EB830151F8B82C023241F8402CF7
:10129C000133399A9A42F3DC944600230AE058F859
:1012AC002310544A42F8231059F82310574A42F895
:1012BC0023100133A342F2DB00200146804617E0E5
:1012CC000DF1E80E0EEB810E4EF87C3C9646013388
:1012DC00221D9A4208DB474A52F823207245F6DA5F
:1012EC000028EDD00020EBE708B908F10108013126
:1012FC008C450DDD3AAB03EB810353F8404CA31F37
:10130C00B3F5F27FF3D2631F4FF0807E0120DFE74D
:10131C004046012801DD00220BE03B4B33600023EB
:10132C003B704BE0033319E09B10384C44F82230EF
:10133C000A46B2F5F87F24DA2E4850F82230511CB8
:10134C0050F82140234402F1020E50F82E40234461
:10135C0002F1030C50F82C401B19E3D49B10254CC4
:10136C0044F82230294850F8223050F821402344C8
:10137C0050F82E40234450F82C401B19D4D503337D
:10138C00D2E74046002306E03AAA02EB8302002192
:10139C0042F8CC1C0133042BF6DD0023834210DA17
:1013AC003AAA02EB830252F87C2CB2F5FA7F01DCEC
:1013BC000133F3E7144B336000233B703BB0BDE8C3
:1013CC00F08F00242346D1460596BA465EE00137DD
:1013DC00BA421DDD074B53F82730434501DDB946B2
:1013EC0098460A4B53F827308B42F0DD3D461946A0
:1013FC00EDE700BFE0190020B021002024640008B4
:10140C00ED9B5F726757192119FCFFFF101200202A
:10141C004346424F57F8228057F826B0A8EB0B08EA
:10142C00A5EB060B0BFB08F898FBFEF857F826B05B
:10143C00D84457F82570A7EB080B394F57F82220E2
:10144C0057F82680A2EB0802A9EB060606FB02F26F
:10145C0092FBFEF2904457F82520A2EB08020BFBFE
:10146C0003F3DB1101FB02F2D211002A0DDD042C77
:10147C000BDC53B103EB83039B0093FBF2F33AAA0F
:10148C0002EB840242F8CC3C01346346421E9A4281
:10149C0016DD03F1010C3AAA02EB8C0252F87C2CFB
:1014AC003AA901EB830353F87C6CA2EB060EBEF158
:1014BC000A0FEADD37464FF07F431946984687E717
:1014CC00059E5746214607A8FFF779FD04EBD47219
:1014DC005210032C16DD531E3AA901EB830353F86B
:1014EC00CC3C01EB820252F8CC2C134403EBD373AB
:1014FC005B10DA1EB42A0BD80A4AD35C3360012382
:10150C003B705BE73AAB03EB820252F8CC3CF0E762
:10151C00054B336000233B7050E700BF10120020D6
:10152C00E01900206C63000819FCFFFFFEE7FEE7E2
:10153C00FEE7FEE7FEE770477047704708B500F01E
:10154C0021FE08BD08B5024802F086FB08BD00BFAD
:10155C005838002082B00E4B9A6942F001029A6111
:10156C009A6902F001020092009ADA6942F0805204
:10157C00DA61DB6903F080530193019B054A5368E0
:10158C0023F0E06343F00073536002B0704700BF78
:10159C00001002400000014003685A6912F4806F89
:1015AC0001D1002070476FF480625A6100230363FD
:1015BC00202280F83D2080F83E30026C42F004027C
:1015CC00026480F83C30012070472DE9F04106465A
:1015DC000C46174698463BE000F0E0FD069BC01A0F
:1015EC00404502D8B8F1000F32D1012D18D0336824
:1015FC009B6924EA03039BB2B3FA83F35B099F4212
:10160C0026D100233363202286F83D2086F83E3015
:10161C00326C42F02002326486F83C30012027E024
:10162C0033685B6924EA03039BB2B3FA83F35B0967
:10163C00E5E733685B6924EA030C1FFA8CFCBCFAFF
:10164C008CFC4FEA5C1C674511D1B8F1FF3FC3D14C
:10165C00C4F30745012DECD033689B6924EA030CD5
:10166C001FFA8CFCBCFA8CFC4FEA5C1CEBE70020EC
:10167C00BDE8F0812DE9F84305460E4690469946A3
:10168C0053E01A6842F400721A602B686FF480629F
:10169C005A6100232B63202285F83D2085F83E30CB
:1016AC002A6C42F004022A6485F83C3001204AE09E
:1016BC0000F074FDA0EB0900404502D8B8F1000F12
:1016CC0033D1012F17D02B689B6926EA03039BB2F9
:1016DC00003B18BF012343B300232B63202285F862
:1016EC003D2085F83E302A6C42F020022A6485F8B1
:1016FC003C30012027E02B685B6926EA03039BB290
:10170C00003B18BF0123E6E72B689C6926EA04041A
:10171C00A4B2003C18BF0124A4B12B685A6912F47E
:10172C00806FAED1B8F1FF3FC2D1C6F30747012F8E
:10173C00EAD12B685C6926EA0404A4B2003C18BF09
:10174C000124E9E70020BDE8F88370B504460D4696
:10175C00164623685B6913F0800F21D12046FFF7F2
:10176C001BFFF8B9B5F1FF3FF3D000F017FD801B5C
:10177C00A84201D8002DECD123685B6913F0800FCF
:10178C00E7D100232363202284F83D2084F83E30E7
:10179C00226C42F02002226484F83C30012000E0EC
:1017AC00002070BD0120FCE72DE9F04385B0044614
:1017BC000D4691461F46DDF830800D9E0368196872
:1017CC0041F4807119600096434600224FF00111DC
:1017DC00FFF7FBFE60B9236805F0FE051D6133467B
:1017EC00424626492046FFF745FF68B1012008E034
:1017FC0023681B6813F4807F02D04FF400732364BA
:10180C00032005B0BDE8F0830023039323685A69D5
:10181C0003929B690393039B324641462046FFF794
:10182C0094FF30B9012F0FD123685FFA89F61E613E
:10183C00E7E7236C042B01D00120E2E72268136850
:10184C0043F400731360F7E723684FEA19221A6117
:10185C00324641462046FFF778FF20B923685FFAED
:10186C0089F61E61CDE7236C042B01D00120C8E75B
:10187C002268136843F400731360F7E70200010059
:10188C002DE9F04784B004460D46164699460C9F48
:10189C00DDF834800268136843F4806313600368D6
:1018AC00196841F480711960CDF800803B46002224
:1018BC004FF00111FFF789FE70B95FFA85FA2368C2
:1018CC0005F0FE051D6143463A4641492046FFF7A7
:1018DC00D1FE68B1012008E023681B6813F4807FF7
:1018EC0002D04FF400732364032004B0BDE8F087EA
:1018FC000023039323685A6903929B690393039B08
:10190C00424639462046FFF720FF80B9B9F1010F56
:10191C0018D12368F6B21E61424639462046FFF7BD
:10192C0014FF68B3236C042B24D00120DDE7236C57
:10193C00042B01D00120D8E72268136843F400730C
:10194C001360F7E72368320A1A614246394620468B
:10195C00FFF7FBFE18B92368F6B21E61DCE7236CB7
:10196C00042B01D00120C0E72268136843F40073F4
:10197C001360F7E72268136843F400731360D4E72D
:10198C002268136843F480731360CDF800803B46E3
:10199C0000224FF001112046FFF717FE68B92268AC
:1019AC004AF00103136143463A4609492046FFF7C2
:1019BC0061FE002899D0012097E723681B6813F477
:1019CC00807F02D04FF40073236403208DE700BFA7
:1019DC000200010070B504460D46164623685B698B
:1019EC0013F0040F21D12046FFF7D6FDF8B9B5F15D
:1019FC00FF3FF3D000F0D2FB801BA84201D8002D92
:101A0C00ECD123685B6913F0040FE7D10023236347
:101A1C00202284F83D2084F83E30226C42F02002D3
:101A2C00226484F83C30012000E0002070BD0120CD
:101A3C00FCE770B504460D46164614E06FF0100234
:101A4C005A6100232363202284F83D2084F83E3021
:101A5C00226C226484F83C30012025E023685B6909
:101A6C0013F0400F10D02368586910F0400F1AD1B2
:101A7C00586910F0100FE1D100F090FB801BA842C8
:101A8C00ECD8002DEFD1E9E700232363202284F862
:101A9C003D2084F83E30226C42F02002226484F80F
:101AAC003C30012000E0002070BD0000002800F058
:101ABC00CC8070B5044690F83D30002B77D02423B1
:101ACC0084F83D302268136823F001031360226808
:101ADC00136843F4004313602268136823F4004333
:101AEC00136000F079FE62685A4B9A4264D85A4BE4
:101AFC0098428CBF00230123002B40F0A88057494B
:101B0C00A1FB00318B0C25686A6822F03F0242EA87
:101B1C0091426A6021680A6A22F03F0266684D4D64
:101B2C00AE424FD8013313430B622168CA6922F4C9
:101B3C004F4222F0FF026568464B9D424CD8431E33
:101B4C006D00B3FBF5F3013340F6FC70034278D023
:101B5C00C3F30B031A43CA6121680B6823F0C0035B
:101B6C00E269206A024313430B6021688B6823F4FB
:101B7C00034323F0FF032269E068024313438B60A5
:101B8C002168CB6823F0FF036269A0690243134309
:101B9C00CB602268136843F00103136000202064BB
:101BAC00202384F83D30206384F83E0070BD80F81B
:101BBC003C30FEF76FFE82E7294B98428CBF002326
:101BCC00012399E74FF4967505FB03F3254DA5FB0F
:101BDC0003539B090133A6E7A668BEB9431E05EB68
:101BEC00450CB3FBFCF30133C3F30B03B3FA83F3E0
:101BFC005B0943BBC6B9431E05EB4505B3FBF5F3C7
:101C0C000133C3F30B0343F40043A3E7431E05EB7B
:101C1C00850C0CEB8C0CB3FBFCF30133C3F30B0303
:101C2C00B3FA83F35B09E4E7431E05EB850505EB8B
:101C3C008505B3FBF5F30133C3F30B0343F44043C6
:101C4C0088E7042386E7012384E7012070470120FD
:101C5C00ACE700BFA08601007F841E0083DE1B431F
:101C6C00FF083D00D34D62102DE9F04383B00446CC
:101C7C000F46904699460C9E00F090FA054694F853
:101C8C003D00C0B2202803D0022003B0BDE8F08391
:101C9C000095192301224B492046FFF796FC00289A
:101CAC0040F0898094F83C30012B00F086800123B1
:101CBC0084F83C3023681A6812F0010F03D11A68BB
:101CCC0042F001021A602268136823F40063136067
:101CDC00212384F83D30402384F83E3000232364D4
:101CEC000A9B6362BDF82C306385638D2385364B6C
:101CFC00E362019500964B46424639462046FFF773
:101D0C0053FD00285BD1238D002B35D02A4631465C
:101D1C002046FFF71AFD20BB626A236812781A610D
:101D2C00626A531C6362218D013989B22185638DEE
:101D3C009BB2013B9BB263852368586910F0040F7A
:101D4C00E1D00029DFD052781A61636A01336362F3
:101D5C00238D013B2385638D9BB2013B9BB2638535
:101D6C00D1E7236C042B01D001208EE72268136885
:101D7C0043F400731360F7E72A4631462046FFF719
:101D8C0029FE50B1236C042B01D001207DE7226881
:101D9C00136843F400731360F7E72268136843F485
:101DAC0000731360202384F83D30002384F83E3008
:101DBC0084F83C3069E7022067E7022065E70120E0
:101DCC0063E700BF020010000000FFFF2DE9F043A5
:101DDC0089B004460F4690469946129E00230793FD
:101DEC0000F0DCF9054694F83D00C0B2202804D080
:101DFC000227384609B0BDE8F0830095192301226B
:101E0C0081492046FFF7E1FB002840F0728194F8ED
:101E1C003C30012B00F06F81012384F83C302368A7
:101E2C001A6812F0010F03D11A6842F001021A600D
:101E3C002268136823F400631360222384F83D3076
:101E4C00402384F83E3000232364109B6362BDF86A
:101E5C0044306385638D23856C4BE362019500965A
:101E6C004B46424639462046FFF70AFD07460028F6
:101E7C0040F04381238D5BB9039323685A69039225
:101E8C009A690392039A1A6842F400721A60EDE0A0
:101E9C00012B0FD0022B21D02268136843F48063EE
:101EAC0013600023069323685A6906929B69069374
:101EBC00069BDBE02268136823F48063136072B620
:101ECC000023049323685A6904929A690492049A31
:101EDC001A6842F400721A6062B6C7E0226813688E
:101EEC0043F40063136072B60023059323685A69A8
:101EFC0005929A690592059A1A6822F480621A6012
:101F0C0062B6B3E02A4631462046FFF792FD002820
:101F1C0040F0F58023681A69636A1A70636A0133AA
:101F2C006362238D013B2385638D9BB2013B9BB286
:101F3C0063859BE000953346002235492046FFF728
:101F4C0044FB002840F0DF802268136823F4806390
:101F5C00136072B623681A69636A1A70636A013374
:101F6C006362238D013B2385638D9BB2013B9BB246
:101F7C006385284B1B68DB08274AA2FB03231B0A3B
:101F8C0003EB8303C3EBC3030793079B013B07934B
:101F9C00079B002B28D023685A6912F0040FF4D049
:101FAC001A6842F400721A6023681A69636A1A701C
:101FBC00636A01336362238D013B2385638D9BB27E
:101FCC00013B9BB2638562B623681A69636A1A7017
:101FDC00636A01336362238D013B2385638D9BB25E
:101FEC00013B9BB2638541E02363202284F83D20B2
:101FFC0084F83E30226C42F02002226462B684F8EF
:10200C003C300127F5E600BF020010000000FFFF86
:10201C00040001001000002089B5F8142A4631464E
:10202C002046FFF706FD00286FD123681A69636A02
:10203C001A70626A531C6362238D013B2385638D86
:10204C009BB2013B9BB263852368596911F0040F65
:10205C000CD01B695370636A01336362238D013B9F
:10206C002385638D9BB2013B9BB26385238D002B33
:10207C0036D0032BD2D8012B3FF444AF022B7FF484
:10208C0059AF00953346002221492046FFF79DFAAF
:10209C00002836D172B62268136843F400731360BB
:1020AC0023681A69636A1A70636A01336362238D49
:1020BC00013B2385638D9BB2013B9BB2638562B66A
:1020CC0023681A69636A1A70636A01336362238D29
:1020DC00013B2385638D9BB2013B9BB26385C5E7B6
:1020EC00202384F83D30002384F83E3084F83C30C3
:1020FC007FE602277DE602277BE6012779E60127AA
:10210C0077E6012775E6012773E6012771E600BF24
:10211C000400010010B504460E4B1A784FF47A7384
:10212C00B3FBF2F30C4A1068B0FBF3F000F06AFD5D
:10213C0068B90F2C01D901200AE0002221464FF08A
:10214C00FF3000F041FD054B1C60002000E0012039
:10215C0010BD00BF08000020100000200C00002063
:10216C0008B5074A136843F010031360032000F00E
:10217C0019FD0F20FFF7CEFFFFF7ECF9002008BD8B
:10218C0000200240034A1168034B1B780B44136078
:10219C00704700BF7029002008000020014B186810
:1021AC00704700BF7029002038B50446FFF7F6FFD2
:1021BC000546B4F1FF3F02D0044B1B781C44FFF7DB
:1021CC00EDFF401BA042FAD338BD00BF0800002031
:1021DC0082B0084B1B68084AA2FB03235B0A00FB76
:1021EC0003F3019300BF019B5A1E0192002BF9D1FE
:1021FC0002B0704710000020D34D6210002800F090
:10220C00F18170B582B00446036813F0010F2CD035
:10221C00994B5B6803F00C03042B1DD0964B5B6849
:10222C0003F00C03082B12D06368B3F5803F41D048
:10223C00002B55D103F1804303F504331A6822F4C3
:10224C0080321A601A6822F480221A6037E08A4BB6
:10225C005B6813F4803FE7D0874B1B6813F4003F97
:10226C0003D06368002B00F0BF81236813F0020FCA
:10227C0075D0814B5B6813F00C0F5FD07E4B5B68A5
:10228C0003F00C03082B54D02369002B00F08A8038
:10229C007A4B01221A60FFF781FF0546764B1B68CB
:1022AC0013F0020F75D1FFF779FF401B0228F5D907
:1022BC0003209EE1704A136843F480331360636813
:1022CC0043B3FFF76BFF05466B4B1B6813F4003FE2
:1022DC00CBD1FFF763FF401B6428F5D9032088E1BD
:1022EC00B3F5A02F09D0644B1A6822F480321A601F
:1022FC001A6822F480221A60E1E703F18043A3F507
:10230C003C331A6842F480221A601A6842F4803214
:10231C001A60D4E7FFF742FF0546574B1B6813F4CE
:10232C00003FA2D0FFF73AFF401B6428F5D90320E9
:10233C005FE1514B5B6813F4803FA5D14E4B1B689A
:10234C0013F0020F03D02369012B40F04F814A4A4E
:10235C00136823F0F803616943EAC103136023682F
:10236C0013F0080F33D0A369002B5CD0434B012230
:10237C00C3F88024FFF712FF05463F4B5B6A13F04E
:10238C00020F21D1FFF70AFF401B0228F5D90320C9
:10239C002FE1394A136823F0F803616943EAC1035A
:1023AC001360DCE7354B00221A60FFF7F7FE054699
:1023BC00314B1B6813F0020FD1D0FFF7EFFE401B1F
:1023CC000228F5D9032014E10120FFF701FF23684F
:1023DC0013F0040F00F09680274BDB6913F0805F3D
:1023EC0034D1254BDA6942F08052DA61DB6903F0B3
:1023FC0080530193019B0125214B1B6813F4807FB3
:10240C0026D0E368012B3DD0002B53D103F1804340
:10241C0003F504331A6A22F001021A621A6A22F0D6
:10242C0004021A6233E0154B0022C3F88024FFF734
:10243C00B5FE0546104B5B6A13F0020FC7D0FFF7D1
:10244C00ADFE401B0228F5D90320D2E00025D3E7CE
:10245C000B4A136843F480731360FFF79FFE064624
:10246C00074B1B6813F4807FCBD1FFF797FE801BC3
:10247C006428F5D90320BCE0001002400000424261
:10248C00007000405F4A136A43F001031362E36873
:10249C0033B3FFF783FE06465A4B1B6A13F0020F49
:1024AC002FD1FFF77BFE801B41F288339842F3D982
:1024BC0003209EE0052B09D0524B1A6A22F0010230
:1024CC001A621A6A22F004021A62E0E74D4B1A6A89
:1024DC0042F004021A621A6A42F001021A62D6E74A
:1024EC00FFF75CFE0646474B1B6A13F0020F08D041
:1024FC00FFF754FE801B41F288339842F3D9032036
:10250C0077E0E5B9E369002B72D03E4A526802F0DD
:10251C000C02082A56D0022B17D03B4B00221A660D
:10252C00FFF73CFE0446374B1B6813F0007F47D087
:10253C00FFF734FE001B0228F5D9032059E0314A7D
:10254C00D36923F08053D361DCE72F4B00221A664A
:10255C00FFF724FE05462B4B1B6813F0007F06D0BB
:10256C00FFF71CFE401B0228F5D9032041E0236A2B
:10257C00B3F5803F1AD023494B6823F47413226AB5
:10258C00606A024313434B601F4B01221A66FFF72C
:10259C0005FE04461B4B1B6813F0007F0ED1FFF7A2
:1025AC00FDFD001B0228F5D9032022E0154A5368D3
:1025BC0023F40033A1680B435360DCE7002018E0E0
:1025CC00002016E0012B16D00E4B5B6803F4803113
:1025DC00226A914211D103F47013626A93420ED1B4
:1025EC00002006E001207047012002E0012000E0FD
:1025FC00002002B070BD0120FBE70120F9E70120AB
:10260C00F7E700BF00100240000042420F4B5B682E
:10261C0003F00C02082A01D00D487047C3F3834223
:10262C000C49885C13F4803F0BD0084B5B68C3F3F8
:10263C004043094AD35C064A02FB00F0B0FBF3F0BE
:10264C007047064B03FB00F0704700BF00100240C0
:10265C0000127A00686400086464000800093D00F8
:10266C00002800F0A08070B50D460446524B1B6844
:10267C0003F007038B420BD24F4A136823F0070376
:10268C000B431360136803F007038B4240F08D80FB
:10269C00236813F0020F17D013F0040F04D0474A2D
:1026AC00536843F4E0635360236813F0080F04D0BD
:1026BC00424A536843F460535360404A536823F0D2
:1026CC00F003A1680B435360236813F0010F31D062
:1026DC006368012B20D0022B25D0384A126812F0E7
:1026EC00020F64D035494A6822F0030213434B6051
:1026FC00FFF754FD0646314B5B6803F00C03626830
:10270C00B3EB820F16D0FFF749FD801B41F28833E3
:10271C009842F0D9032045E0284A126812F4003F91
:10272C00E0D101203EE0254A126812F0007FD9D199
:10273C00012037E0204B1B6803F00703AB420AD99A
:10274C001D4A136823F007032B431360136803F02F
:10275C000703AB422DD1236813F0040F06D0174AA0
:10276C00536823F4E063E1680B435360236813F070
:10277C00080F07D0114A536823F46053216943EAC8
:10278C00C1035360FFF742FF0C4B5B68C3F30313A9
:10279C000B4AD35CD8400B4B18600B4B1868FFF7F7
:1027AC00B9FC002070BD012070470120FAE7012020
:1027BC00F8E70120F6E700BF0020024000100240BD
:1027CC0080640008100000200C000020014B1868E9
:1027DC00704700BF1000002008B5FFF7F7FF044B4F
:1027EC005B68C3F30223034AD35CD84008BD00BF27
:1027FC00001002407864000870B582B0044603688B
:10280C0013F0010F36D03F4BDB6913F0805F49D1D9
:10281C003C4BDA6942F08052DA61DB6903F0805399
:10282C000193019B0125384B1B6813F4807F3BD02F
:10283C00344B1B6A13F4407313D0626802F4407279
:10284C009A420ED02F4A136A23F440702F49012666
:10285C00C1F840640026C1F84064106213F0010F07
:10286C0036D1284A136A23F4407361680B43136210
:10287C00002D3ED1236813F0020F06D0214A536875
:10288C0023F44043A1680B435360236813F0100FEB
:10289C0034D01C4A536823F48003E1680B43536023
:1028AC0000202CE00025BEE7174A136843F4807320
:1028BC001360FFF773FC0646134B1B6813F4807F01
:1028CC00B6D1FFF76BFC801B6428F5D9032016E00A
:1028DC00FFF764FC06460B4B1B6A13F0020FC0D1CA
:1028EC00FFF75CFC801B41F288339842F3D903203C
:1028FC0005E0D36923F08053D361BBE7002002B01D
:10290C0070BD00BF00100240007000400000424249
:10291C0070B582B00024A446A2E07E4DAB4210D02C
:10292C0007D97D4DAB420CD005F58035AB4208D0B4
:10293C0013E0A5F58015AB4203D005F57025AB422D
:10294C0007D18B68002B55D0012B4ED04261082447
:10295C0003E0A5F58015AB42F3D0BEF1FF0F4BD8C9
:10296C0006464FEA8C0233680F25954023EA05038F
:10297C0004FA02F2134333604B6813F0805F6DD09E
:10298C00664B9A6942F001029A619B6903F001035C
:10299C000193019B4FEA9C02951C614B53F82560F7
:1029AC000CF00305AD000F23AB4026EA03065D4B8C
:1029BC00984228D003F58063984200F08D8003F58F
:1029CC008063984200F08A8003F58063984218D0A7
:1029DC00042319E0CC68C0E7CC680434BDE7CC68AC
:1029EC000834BAE7CC680C34B7E702610824B4E7C2
:1029FC000024B2E70424B0E7061DACF108029200F3
:102A0C00B1E7032300E00023AB4033430232444DD3
:102A1C0045F822304B6813F4801F61D0424A93680A
:102A2C0043EA0E0393604B6813F4001F5ED03E4ADA
:102A3C00D36843EA0E03D3604B6813F4003F5BD0BA
:102A4C00394A536843EA0E0353604B6813F4803FD2
:102A5C0058D0354A136843EA0E0313600CF1010C8D
:102A6C000B6833FA0CF253D0012202FA0CF203EA8F
:102A7C00020E32EA0303F1D14B68122B3FF64DAF35
:102A8C00122B3FF66AAF01A555F823F04F29000829
:102A9C00E1290008EB290008FD2900086729000836
:102AAC0067290008672900086729000867290008BA
:102ABC0067290008672900086729000867290008AA
:102ACC00672900086729000867290008672900089A
:102ADC00E5290008F1290008012395E7022393E773
:102AEC00114A936823EA0E0393609CE70E4AD3685D
:102AFC0023EA0E03D3609FE70B4A536823EA0E03C5
:102B0C005360A2E7084A136823EA0E031360A5E793
:102B1C0002B070BD00002210000031100010024005
:102B2C000000014000080140000401408368194284
:102B3C0001D001207047002070470000002808DBFE
:102B4C000901C9B200F1604000F5614080F8001342
:102B5C00704700F00F000901C9B2014B19547047BE
:102B6C0014ED00E000B500F00700C0F1070CBCF15B
:102B7C00040F28BF4FF0040C031D062B0FD9C31EE6
:102B8C004FF0FF3E0EFA0CF021EA000199400EFACC
:102B9C0003FE22EA0E0241EA02005DF804FB002368
:102BAC00EEE70000074AD36823F4E0631B041B0C18
:102BBC00000200F4E060034343F0BF6343F40033CE
:102BCC00D360704700ED00E010B50446054BD868A3
:102BDC00C0F30220FFF7C6FF01462046FFF7AEFF09
:102BEC0010BD00BF00ED00E0002807DB00F01F0265
:102BFC00400901239340024A42F82030704700BF3D
:102C0C0000E100E00138B0F1807F0BD24FF0E023FF
:102C1C005861054AF02182F82310002098610722A0
:102C2C001A6170470120704700ED00E0704700000A
:102C3C0008B500220F49104802F0C6F970B90F49C7
:102C4C000D4802F0D8F960B90D490B4802F0DBFFD2
:102C5C0050B9094802F0D6F948B908BDFDF71AFD7C
:102C6C00EDE7FDF717FDEFE7FDF714FDF1E7FDF7D5
:102C7C0011FDF2E7480000207429002040010020DB
:102C8C006400002012230B800048704734000020A1
:102C9C0004230B800048704730000020002393422F
:102CAC001ED200B510E00CF1370C01F813C0000176
:102CBC004FEA430C0CF1010C4FF0000E01F80CE044
:102CCC000133DBB2934209D24FEA107CB0F1204FB2
:102CDC00E9D20CF1300C01F813C0E8E75DF804FB05
:102CEC007047000038B50B4BD3F8E807D3F8EC4726
:102CFC00D3F8F037C01800D138BD074D082229464B
:102D0C00FFF7CCFF042205F110012046FFF7C6FFA8
:102D1C00F2E700BF00F0FF1F1600002008B51A23D1
:102D2C000B80FFF7DFFF014808BD00BF1400002037
:102D3C0008B50A4628B90549054802F0BAFD03480A
:102D4C0008BD0249024802F0B4FDF8E7382C002017
:102D5C009064000810B50A46034C2146034802F063
:102D6C00A8FD204610BD00BF382C0020A864000828
:102D7C0008B50A4628B90549054802F09AFD0348EA
:102D8C0008BD0249024802F094FDF8E7382C0020F7
:102D9C00BC64000808B50A4628B90549054802F084
:102DAC0088FD034808BD0249024802F082FDF8E79D
:102DBC00382C0020C86400080020704700207047A1
:102DCC0010B50146044C204602F02CFF204602F0C0
:102DDC0048FF002010BD00BF7429002010B5064C20
:102DEC0000220649204602F015FF0549204602F054
:102DFC0019FF002010BD00BF74290020382E0020C0
:102E0C0038320020094BD3F8B832D3F814320BB156
:102E1C000120704710B5054C0A460146204602F0C9
:102E2C00F9FE204602F004FF10BD00BF74290020FB
:102E3C00022805D8DFE800F00504020001207047E5
:102E4C000220704702680E4B9A4200D0704700B5C2
:102E5C0083B003F5DA33DA6942F40002DA61DB6934
:102E6C0003F400030193019B002211461420FFF789
:102E7C00ABFE1420FFF7B8FE03B05DF804FB00BFF7
:102E8C00005C004008B500F52C71D0F8EC0202F0A3
:102E9C00D1F808BD08B501EB810300EBC303D3F8EF
:102EAC007C21D0F8EC0202F0F2F808BD08B501EB79
:102EBC00810300EBC303DA6BD0F8EC0202F02DF9BE
:102ECC0008BD08B5D0F8EC0202F0CEF908BD10B57B
:102EDC0004468368022B09D10121D4F8EC0202F0DC
:102EEC00ACF9D4F8EC0202F080F910BDFDF7D2FB7E
:102EFC00F2E7000010B50446D0F8EC0202F0A0F99D
:102F0C00A36923B1024A136943F00603136110BD90
:102F1C0000ED00E008B5D0F8EC0202F09AF908BD1B
:102F2C0010B504461D48C0F8EC42C4F8C0021C4B56
:102F3C000360082343600223836000238361C36121
:102F4C00036200F023F930BB182300221146D4F899
:102F5C00C00201F088F8582300228021D4F8C00266
:102F6C0001F081F8C02300228121D4F8C00201F0C5
:102F7C007AF84FF4887300220121D4F8C00201F0D2
:102F8C0072F84FF4807300228221D4F8C00201F051
:102F9C006AF8002010BDFDF77DFBD5E758380020FE
:102FAC00005C004008B5D0F8C00200F077F9FFF7DC
:102FBC003FFF08BD08B594461A466346D0F8C002D8
:102FCC0000F022FFFFF734FF08BD08B5D0F8C002AF
:102FDC0000F058FFFFF72CFF08BD08B5D0F8C00271
:102FEC0000F0CAFFFFF724FF08BD08B5D0F8C002F7
:102FFC0000F0FEFFFFF71CFF08BDD0F8C03211F047
:10300C00800F08D101F07F0101EB810103EBC103BB
:10301C0093F86A01704701F07F01013101EB8101E6
:10302C0003EBC1039878704708B5D0F8C00200F0E4
:10303C00FFFDFFF7FDFE08BD08B5D0F8C00200F09B
:10304C0079FFFFF7F5FE08BD08B5D0F8C00200F017
:10305C004BFFFFF7EDFE08BD08B5D0F8C00200F03D
:10306C0060FF08BD00487047383600207047704735
:10307C0038B512F4804F44D00468B4F850309BB289
:10308C0091F800C003EBCC03023304EB4304B4F817
:10309C000044C4F309048B69A34228D31B1B8B6126
:1030AC008B697BB9056835F82C309BB223F48043CF
:1030BC0023F0700383F4005343F4004343F0800384
:1030CC0025F82C3012F0400F0ED002680D7832F833
:1030DC0025309BB223F4E04323F0700343F4004308
:1030EC0043F0C00322F8253024B9204638BD002314
:1030FC008B61D5E723460A894969006801F04CFFCA
:10310C00F3E70468B4F850309BB291F800C003EBBD
:10311C00CC03063304EB4304B4F80044C4F30904B1
:10312C008B69A3422FD31B1B8B618B697BB9056801
:10313C0035F82C309BB223F4804323F0700383F4D6
:10314C00005343F4004343F0800325F82C3012F075
:10315C00400F0FD1026891F800C032F82C309BB2AE
:10316C0023F4E04323F0700343F4004343F0C00323
:10317C0022F82C30002CB8D023464A8949690068C3
:10318C0001F00AFFB1E700238B61CEE770B586B082
:10319C00002800F08180044690F8A932EBB103239B
:1031AC0084F8A932206800F08AFF254655F8106B88
:1031BC00EC460FCDACE80F002B68CCF80030231D8B
:1031CC000ECB304600F06BFF054658B1022384F855
:1031DC00A9320125284606B070BD80F8A832FFF749
:1031EC0031FEDCE70021206800F073FF2B4616E06F
:1031FC005A1C02EB820104EBC1010120487002EB66
:10320C00820104F8313004EBC1000021C17003EBE2
:10321C00830004EBC0008163C1630164D3B26168B5
:10322C008B42E5D316E005EB850304EBC3030022C8
:10323C0083F8692183F8685183F86B21C3F87821EE
:10324C00C3F87C2105EB850304EBC303C3F8802191
:10325C000135EDB2A942E6D8254655F8106BEC467F
:10326C000FCDACE80F002B68CCF80030231D0ECB33
:10327C00304600F030FF054620B1022384F8A93215
:10328C000125A7E7002384F82430012384F8A93210
:10329C00206801F07FFA9DE701259BE738B590F88F
:1032AC00A832012B11D00446012580F8A8520068E1
:1032BC0000F0FCFE29462046FFF7D9FE206801F0FD
:1032CC0067FA002084F8A80238BD0220FCE770B52C
:1032DC0005460C46164612F0400F00F00E810268AF
:1032EC00B2F850309BB2097803EBC103023302EB06
:1032FC004302B2F80024C2F30902A36993424ED9E7
:10330C009B1AA361A369002B66D16378002B49D16A
:10331C002B68B3F8502092B2134403EB0113B3F8AB
:10332C000424C2F30902A3F80424B3F804246FEABA
:10333C0042426FEA524292B2A3F804242B6862789C
:10334C00002A3CD1B3F8502092B21344227803EBFC
:10335C000213B3F80C24C2F30902A3F80C24B3F83B
:10336C000C246FEA42426FEA524292B2A3F80C2448
:10337C0021782846FFF79AFD16F4804F41D02A6831
:10338C00217832F821309BB223F4E04323F0700310
:10339C0043F4404343F0800322F8213031E0002312
:1033AC00A361AFE7012BC9D12B68B3F8502092B2BF
:1033BC00134403EB01130022A3F80424BEE7012AF3
:1033CC00D6D1B3F8502092B21344227803EB0213F7
:1033DC000022A3F80C24CBE716F4804F0DD02868FC
:1033EC0030F821309BB223F4E04323F0700343F414
:1033FC00404343F0800320F8213094F82430012B13
:10340C0012D02A68217832F821309BB223F4E043A1
:10341C0023F0400383F0300343F4004343F0800374
:10342C0022F82130002070BD636913446361E369A5
:10343C001344E361216A2369994224D3C91A216296
:10344C006278002A44D12A68B2F8501089B20A4432
:10345C00217802EB0112B2F80414C1F30901A2F8AD
:10346C0004143E2B1BD9580913F01F0F00D101383F
:10347C00B2F8041489B2800280B2014341F40041D5
:10348C00A2F8041426E021B9002384F82430134652
:10349C00D6E7002384F8243023620B46D0E74BB9DF
:1034AC00B2F804146FEA41416FEA514189B2A2F8B3
:1034BC0004140FE0590813F0010F00D00131B2F8D9
:1034CC00040480B2890289B20143A2F8041401E019
:1034DC00012A06D09BB222896169286801F062F941
:1034EC008FE72A68B2F8501089B20A44217802EBAF
:1034FC00011299B2A2F80414ECE70268B2F8503049
:10350C009BB2097803EBC103063302EB4302B2F81A
:10351C000024C2F30902A36993424FD39B1AA361FF
:10352C00A369002B67D16378002B4AD12B68B3F8C1
:10353C00502092B2134403EB0113B3F80424C2F3EA
:10354C000902A3F80424B3F804246FEA42426FEA98
:10355C00524292B2A3F804242B686278002A3DD11F
:10356C00B3F8502092B21344227803EB0213B3F851
:10357C000C24C2F30902A3F80C24B3F80C246FEA50
:10358C0042426FEA524292B2A3F80C2421782846A8
:10359C00FFF78CFC16F4804F7FF433AF2A68217848
:1035AC0032F821309BB223F4E04323F0700343F450
:1035BC00404343F0800322F8213022E70023A3612B
:1035CC00AEE7012BC8D12B68B3F8502092B213444C
:1035DC0003EB01130022A3F80424BDE7012AD5D183
:1035EC00B3F8502092B21344227803EB021300225A
:1035FC00A3F80C24CAE716F4804F0DD1286830F8D4
:10360C0021309BB223F4E04323F0700343F4404396
:10361C0043F0800320F8213094F82430012B7FF400
:10362C00F0AE636913446361E3691344E361216A97
:10363C002369994224D3C91A21622A686178002926
:10364C0043D1B2F8501089B20A44217802EB01122E
:10365C00B2F80C14C1F30901A2F80C143E2B1BD9BF
:10366C00580913F01F0F00D10138B2F80C1489B2AD
:10367C00800280B2014341F40041A2F80C1426E010
:10368C0021B9002384F824301346D6E700232362A3
:10369C0084F824300B46D0E74BB9B2F80C146FEA1F
:1036AC0041416FEA514189B2A2F80C140FE059085C
:1036BC0013F0010F00D00131B2F80C0480B2890272
:1036CC0089B20143A2F80C1401E0012906D09BB287
:1036DC0062896169286801F065F892E6B2F85010C9
:1036EC0089B20A44217802EB011299B2A2F80C14A7
:1036FC00EDE72DE9F04105462868B0F8443013F4A5
:10370C00004F00F09282B0F84440A3B214F00F04C2
:10371C0040F0E28013F0100F6BD003889AB213F4D0
:10372C00006F40F09D8012F4004FE5D0038823F029
:10373C0070031B051B0D43F0800303802868B0F851
:10374C0050309BB295F8682103EBC203063300EBB3
:10375C004303B3F80034C3F30903C5F884318BB1C8
:10376C00D5F87C1171B1B5F86E2101F015FCD5F8C6
:10377C007C31D5F884211344C5F87C3100212846CE
:10378C00FFF788FB2A68138899B213F4006FB3D142
:10379C0001F44051B1F5405FAED0B2F850309BB25D
:1037AC001A44B2F80C34C3F30903A2F80C34D5F85C
:1037BC0078313E2B77D9590913F01F0F00D10139FD
:1037CC00B2F80C349BB2890289B20B4343F4004328
:1037DC00A2F80C342A6813889BB223F4804323F09C
:1037EC00700383F4405343F4004343F0800313808D
:1037FC0082E703889BB223F4E14323F070036FEA62
:10380C0043436FEA53439BB203802A68B2F85030AB
:10381C009BB295F8281003EBC103023302EB430271
:10382C00B2F80034C3F309036B64EA6B1A44EA631D
:10383C0000212846FFF73AFB95F82430002B3FF483
:10384C005BAF2B6C002B7FF457AF95F824302A68B4
:10385C0043F08003A2F84C30002385F824304BE76A
:10386C00B0F850309BB295F8682103EBC2030633D5
:10387C0000EB4303B3F80034C3F30903C5F88431F8
:10388C00B5F86E2105F52C7101F086FB2A681388BA
:10389C0023F070031B051B0D43F080031380284697
:1038AC00FFF7F0FA28E74BB9B2F80C346FEA434350
:1038BC006FEA53439BB2A2F80C348BE7590813F010
:1038CC00010F00D00131B2F80C3498B28B029BB2CC
:1038DC000343A2F80C347DE730F824309EB213F485
:1038EC00004F4CD116F0800F3FF406AF621C02EB78
:1038FC00820105EBC101286830F824309BB223F417
:10390C00E14323F070036FEA43436FEA53439BB2E6
:10391C0020F82430CB78012B00F0F28016F4807F55
:10392C0040F07E812868B0F850309BB2621C02EBEC
:10393C00820215F8326003EBC603023300EB43033B
:10394C00B3F80034C3F3090304EB840205EBC202A1
:10395C00126C9A4240F24C8104EB840705EBC707CA
:10396C00D21A3A6404EB840205EBC202126C002AF0
:10397C0040F0458131462846FFF798FABCE630F80E
:10398C00243023F070031B051B0D43F0800320F83B
:10399C00243004EB8401C90001F5B47105EB010876
:1039AC0004EB840305EBC30393F87431002B42D171
:1039BC002868B0F850309BB204EB840205EBC202CD
:1039CC0092F8682103EBC203063300EB4303B3F810
:1039DC000074C7F3090717BB04EB840305EBC3039F
:1039EC00D3F884213A44C3F88421D3F87C213A4497
:1039FC00C3F87C21D3F880313BB104EB840305EB95
:103A0C00C303D3F878319F4275D204EB840305EBE2
:103A1C00C30393F868112846FFF73CFA62E704EBFE
:103A2C00840105EBC1013B46B1F86E21D1F87C1144
:103A3C0001F0B2FAD0E704EB840305EBC30393F86F
:103A4C006B31022B35D0296804EB840205EBC202E2
:103A5C0092F8680131F820309BB223F4E04323F054
:103A6C00700343F4004343F0C00321F8203028686E
:103A7C0092F8682130F8223013F4804F20D0B0F83F
:103A8C0050309BB203EBC203023300EB4303B3F899
:103A9C000074C7F30907002F9ED004EB840105EBDB
:103AAC00C1013B46B1F87021D1F87C1101F074FAD8
:103ABC0092E7324641462846FFF7DAFA07468BE78B
:103ACC00B0F850309BB203EBC203063300EB430358
:103ADC00B3F80074C7F30907002F3FF47DAF04EB74
:103AEC00840105EBC1013B46B1F87221D1F87C1180
:103AFC0001F052FA70E74146286800F066FEF1E6E4
:103B0C0004EB840305EBC30300221A6493F83430EE
:103B1C00FBB116F0400F37D04B781BBB2B68B3F8BA
:103B2C00502092B21344621C02EB820215F8322030
:103B3C0003EB0213B3F80424C2F30902A3F8042420
:103B4C00B3F804246FEA42426FEA524292B2A3F8ED
:103B5C000424013404EB840415F834102846FFF7D0
:103B6C00A5F9C9E5012BF4D12B68B3F8502092B21A
:103B7C001344621C02EB820215F8322003EB021391
:103B8C000022A3F80424E4E72A68631C03EB8303F4
:103B9C0005EBC3035B78D3B9B2F850309BB2134436
:103BAC00621C02EB820215F8322003EB0213B3F80D
:103BBC000C24C2F30902A3F80C24B3F80C246FEA0A
:103BCC0042426FEA524292B2A3F80C24C1E7012B95
:103BDC00BFD1B2F850309BB21344621C02EB82028C
:103BEC0015F8322003EB02130022A3F80C24B0E7E3
:103BFC0004EB840205EBC20200271764B2E604EB67
:103C0C00840205EBC202D66B1E44D663526C04EBE5
:103C1C00840405EBC4041344636400F0D6FD6BE527
:103C2C0032462846FFF753FB66E50020BDE8F081DD
:103C3C0090F8A832012B0DD010B50446012380F862
:103C4C00A83280F82410006800F09CFD002084F855
:103C5C00A80210BD0220704710B584B0044600685D
:103C6C0000F09AFD10F4004F20D110F4806F21D198
:103C7C0010F4804F2FD110F4005F37D110F4805F17
:103C8C003ED110F4006F40F0878010F4007F40F0BC
:103C9C00AE8010F4807F27D02268B2F844309BB2FB
:103CAC0023F480739BB2A2F844301DE02046FFF74A
:103CBC0020FD19E02268B2F844309BB223F48063F3
:103CCC009BB2A2F844302046FFF701F900212046B0
:103CDC00FFF7AEFF08E02268B2F844309BB223F441
:103CEC0080439BB2A2F8443004B010BD2268B2F8F5
:103CFC0044309BB223F400539BB2A2F84430F3E758
:103D0C002268B2F840309BB223F004039BB2A2F8B5
:103D1C0040302268B2F840309BB223F008039BB2CB
:103D2C00A2F840302046FFF7F5F82268B2F844308C
:103D3C009BB223F480539BB2A2F84430D4E72268A0
:103D4C0032F8231004AA02EB430222F8101C0133B0
:103D5C00DBB2072BF3D92268B2F840309BB243F0A8
:103D6C000103A2F840302268B2F840309BB223F035
:103D7C0001039BB2A2F840302368B3F8442012F43C
:103D8C00806FF9D0B3F8442092B222F4806292B2E0
:103D9C00A3F8442000230BE00023DAE7226804A9EF
:103DAC0001EB430131F8101C22F823100133DBB274
:103DBC00072BF3D92268B2F840309BB243F00803CA
:103DCC00A2F840302268B2F844309BB223F400636E
:103DDC009BB2A2F844302268B2F840309BB243F058
:103DEC000403A2F840302046FFF784F87CE72268F1
:103DFC00B2F844309BB223F400739BB2A2F8443067
:103E0C002046FFF75EF86FE710B50446084611F040
:103E1C00800F25D101F0070C0CEB8C01C90001F5CA
:103E2C00B47E04EB0E010CEB8C0C04EBCC0C4FF0C1
:103E3C00000E8CF869E100F0070008700A61CB7085
:103E4C00022B1AD094F8A832012B19D0012384F834
:103E5C00A832206800F050F9002084F8A80210BDA8
:103E6C0001F0070C0CF1010C0CEB8C0104EBC10103
:103E7C004FF0010E81F801E0DDE700230B71E1E763
:103E8C000220ECE710B504460B4611F0800F1FD151
:103E9C0001F0070202EB8201C90001F5B471014483
:103EAC0002EB820200EBC202002082F8690103F0EF
:103EBC0007030B7094F8A832012B13D0012384F85C
:103ECC00A832206800F0FDFA002084F8A80210BD8A
:103EDC0001F00702013202EB820100EBC10101206B
:103EEC004870E4E70220F2E710B501F0070C0CEB88
:103EFC008C01C90001F5B4710CEB8C0E00EBCE0EED
:103F0C00CEF87C21CEF880310024CEF884418EF896
:103F1C0069418EF868C10144006800F056FC2046E7
:103F2C0010BD01F0070101EB810100EBC100D0F8DD
:103F3C008401704738B501F0070404F1010C0CEB57
:103F4C008C0104EB840E00EBCE0ECEF83C20CEF8A8
:103F5C00403001228EF84C20CEF848300025CEF8A7
:103F6C00445000EBC1035A7000F831401946006808
:103F7C0000F02BFC284638BD38B501F00705426827
:103F8C00954231D804460B4611F0800F1ED101EB3F
:103F9C008101C90001F5B471014403EB830300EB0B
:103FAC00C303002283F8692101238B700D7094F8F0
:103FBC00A832012B1AD0012384F8A832206800F013
:103FCC006BFB5DB1002084F8A80238BD6B1C03EBC1
:103FDC00830100EBC10101224A70E5E704F52C7165
:103FEC00206800F0DDFBEDE70120EEE70220ECE7B6
:103FFC000B4601F00F014268914230D810B50446CF
:10400C0013F0800F21D103F0070202EB8201C900EB
:10401C0001F5B471014402EB820200EBC2020020F4
:10402C0082F8690100228A7003F007030B7094F880
:10403C00A832012B15D0012384F8A832206800F097
:10404C0050FB002084F8A80210BD03F007020132D7
:10405C0002EB820100EBC10101204870E2E7012074
:10406C0070470220F0E711F0800F0BD001F0070130
:10407C00013101EB810100EBC10052B90273C38025
:10408C000020704701EB8101C90001F5B4710844AF
:10409C00F3E70122027303811B0C4381F0E784B028
:1040AC0001A880E80E00002004B0704703460020F1
:1040BC00A3F844004FF43F42A3F840207047B0F8F7
:1040CC00403023F47C535B045B0CA0F840300020A0
:1040DC0070470020704784B0844601A880E80E0029
:1040EC000123ACF840300020ACF84000ACF84400A0
:1040FC00ACF8500004B0704710B5034691F800C0FE
:10410C0030F82C2092B222F4EC4222F0700292B2DF
:10411C00C878032861D8DFE800F0555C025800200D
:10412C0048F2800E42EA0E0223F82C2091F800C0CF
:10413C0033F82C2092B222F4E04222F0700242EAD0
:10414C000C0242EA0E0223F82C200A7B002A40F0D3
:10415C00DC804A78002A51D0B3F8502092B21A442D
:10416C000C7802EB0412B1F806C04FEA5C0C4FEA73
:10417C004C0CA2F800C40C7833F8242012F0400F39
:10418C000CD033F8242092B222F4E04222F07002D8
:10419C0042F4004242F0C00223F82420CA78012ADB
:1041AC001DD0097833F8212092B222F4E04222F09B
:1041BC00400282F0200242F4004242F0800223F8D6
:1041CC00212017E142F40072AAE742F4C0620020F9
:1041DC00A6E742F480620020A2E70120A0E709785C
:1041EC0033F8212092B222F4E04222F0400242F451
:1041FC00004242F0800223F82120FBE0B3F850206B
:10420C0092B21A440C7802EB0412B1F806C04FEAD1
:10421C005C0C4FEA4C0CA2F808C4B3F8502092B2D4
:10422C001A440C7802EB0412B2F80CC4CCF3090C4F
:10423C00A2F80CC40C693E2C39D94FEA541E14F068
:10424C001F0F01D10EF1FF3EB2F80CC41FFA8CFC0B
:10425C004FEA8E2E1FFA8EFE4CEA0E0C4CF4004CDC
:10426C00A2F80CC40C7833F8242012F4804F0CD034
:10427C0033F8242092B222F4E04222F0700242F48D
:10428C00404242F0800223F82420097869BB33F8BD
:10429C00212092B222F4804222F0700282F4405229
:1042AC0042F4004242F0800223F82120A2E04CB9F3
:1042BC00B2F80C446FEA44446FEA5444A4B2A2F836
:1042CC000C44CFE74FEA540C14F0010F01D00CF161
:1042DC00010CB2F80C44A4B24FEA8C2C1FFA8CFCE3
:1042EC0044EA0C04A2F80C44BCE733F8212092B247
:1042FC0022F4804222F0700282F4005242F4004216
:10430C0042F0800223F8212074E0CA78022A72D08D
:10431C000C7833F8242092B222F4E24222F070029C
:10432C0042F4004242F0800223F82420B3F85020DB
:10433C0092B21A4491F800C002EB0C12B1F808C00A
:10434C004FEA5C0C4FEA4C0CA2F800C4B3F85020B6
:10435C0092B21A4491F800C002EB0C12B1F80AC0E8
:10436C004FEA5C0C4FEA4C0CA2F808C44A78002ABD
:10437C0050D10C7833F8242012F4804F0CD033F841
:10438C00242092B222F4E04222F0700242F4404225
:10439C0042F0800223F824200C7833F8242012F009
:1043AC00400F0CD033F8242092B222F4E04222F0D9
:1043BC00700242F4004242F0C00223F8242091F82B
:1043CC0000C033F82C2092B222F4804222F070020A
:1043DC0082F4405248F28004224323F82C200978BE
:1043EC0033F8212092B222F4E04222F04002224320
:1043FC0023F8212010BD0C7833F8242092B222F43B
:10440C00E04222F0700242F4014242F0800223F8B2
:10441C0024208BE70C7833F8242012F4804F0CD036
:10442C0033F8242092B222F4E04222F0700242F4DB
:10443C00404242F0800223F824200C7833F82420E8
:10444C0012F0400F0CD033F8242092B222F4E04248
:10445C0022F0700242F4004242F0C00223F8242001
:10446C00CA78012A1ED00C7833F8242092B222F498
:10447C00E04222F0400282F0200242F4004242F07C
:10448C00800223F82420097833F8212092B222F4F8
:10449C00804222F0700242F4004242F0800223F883
:1044AC002120A7E70C7833F8242092B222F4E042C2
:1044BC0022F0400242F4004242F0800223F8242011
:1044CC00E1E70B7B002B46D14B7813B30A7830F81D
:1044DC00223013F0400F0CD030F822309BB223F472
:1044EC00E04323F0700343F4004343F0C00320F88F
:1044FC0022300A7830F822309BB223F4E04323F0C8
:10450C00400343F4004343F0800320F822300020A2
:10451C0070470A7830F8223013F4804F0CD030F802
:10452C0022309BB223F4E04323F0700343F4404366
:10453C0043F0800320F822300A7830F822309BB206
:10454C0023F4804323F0700343F4004343F08003CF
:10455C0020F82230DBE74B78002B4ED10A7830F86C
:10456C00223013F4804F0CD030F822309BB223F45D
:10457C00E04323F0700343F4404343F0800320F8FE
:10458C0022300A7830F8223013F0400F0CD030F87B
:10459C0022309BB223F4E04323F0700343F4004336
:1045AC0043F0C00320F822300A7830F822309BB256
:1045BC0023F4E04323F0700343F4004343F0C003BF
:1045CC0020F822300A7830F822309BB223F4804352
:1045DC0023F0700348F2800C43EA0C0320F82230DD
:1045EC000A7830F822309BB223F4E04323F04003E6
:1045FC0043EA0C0320F8223089E70A7830F822309D
:10460C0013F4804F0CD030F822309BB223F4E043EB
:10461C0023F0700343F4404343F0800320F822302E
:10462C000A7830F8223013F0400F0CD030F82230DA
:10463C009BB223F4E04323F0700343F4004343F0B4
:10464C00C00320F822300A7830F822309BB223F4D1
:10465C00E04323F0700343F4404343F0800320F81D
:10466C0022300A7830F822309BB223F4E04323F056
:10467C00400348F2800C43EA0C0320F822300A78FD
:10468C0030F822309BB223F4804323F0700343EACA
:10469C000C0320F822303AE74B788BB10A7830F8CB
:1046AC0022309BB223F4E04323F0400383F0100349
:1046BC0043F4004343F0800320F82230002070477D
:1046CC000A7830F822309BB223F4804323F0700335
:1046DC0083F4805343F4004343F0800320F82230EA
:1046EC00ECE70B7B002B4BD14B7833B30A7830F8CB
:1046FC00223013F0400F0CD030F822309BB223F450
:10470C00E04323F0700343F4004343F0C00320F86C
:10471C002230CB78012B33D00A7830F822309BB280
:10472C0023F4E04323F0400383F0200343F40043DD
:10473C0043F0800320F8223022E00A7830F822304F
:10474C0013F4804F0CD030F822309BB223F4E043AA
:10475C0023F0700343F4404343F0800320F82230ED
:10476C000A7830F822309BB223F4804323F0700394
:10477C0083F4405343F4004343F0800320F8223089
:10478C000020704711B98023A0F84C3000207047EE
:10479C000020704700207047B0F8440080B270478A
:1047AC000020704701335B0800EB420000F580608D
:1047BC0008E00A7891F801C042EA0C2220F8042B98
:1047CC000231013B002BF4D1704770B505460C4605
:1047DC004A78012A3BD00B7B002B40F0A6828B69D8
:1047EC000A69934240F284829B1A8B61B5F850306F
:1047FC009BB22B44217803EB0113B3F80C14C1F3D7
:10480C000901A3F80C143E2A40F27682510912F0E9
:10481C001F0F00D10139B3F80C2492B2890289B26E
:10482C000A4342F40042A3F80C24227835F82230D3
:10483C009BB223F4804323F0700383F4405343F47E
:10484C00004343F0800325F82230002070BD8E69B0
:10485C0009698E4200D90E46237B73B3E378022B91
:10486C004DD0236A9B1B2362217835F8213013F03D
:10487C00400F00F0F581002A40F0E281B5F850308D
:10488C009BB22B4403EB0113B3F80C24C2F30902C3
:10489C00A3F80C243E2E40F2BA81710916F01F0FBA
:1048AC0000D10139B3F80C2492B2890289B20A43BF
:1048BC0042F40042A3F80C24CBE1B6B23346E288B2
:1048CC0061692846FFF76EFFB5F850309BB22B4458
:1048DC00227803EB0213A3F80464227835F8223013
:1048EC009BB223F4E04323F0400383F0300343F402
:1048FC00004343F0800325F822300020A6E7236A0A
:10490C00994280F06681227835F822309BB223F4EC
:10491C00E04323F0700343F4014343F0800325F894
:10492C002230236A9B1B2362227835F8223013F045
:10493C00400F00F0A7806378B3BBB5F850309BB242
:10494C002B4403EB0213B3F80C24C2F30902A3F8B3
:10495C000C243E2E0FD9710916F01F0F00D101390E
:10496C00B3F80C2492B2890289B20A4342F4004291
:10497C00A3F80C241AE04EB9B3F80C246FEA4242A7
:10498C006FEA524292B2A3F80C240FE0720816F0B0
:10499C00010F00D00132B3F80C1489B2920292B21A
:1049AC000A43A3F80C2401E0012B30D0B3B2628986
:1049BC0061692846FFF7F6FE636933446361236A35
:1049CC00226993422DD99B1B23626378002B45D11E
:1049DC00B5F850309BB22B44227803EB0213B3F89A
:1049EC000424C2F30902A3F804243E2E1DD9710934
:1049FC0016F01F0F00D10139B3F8042492B28902CA
:104A0C0089B20A4342F40042A3F8042428E0B5F822
:104A1C0050309BB22B4403EB0213B2B2A3F80C241C
:104A2C00C4E7002222621E46CFE74EB9B3F8042435
:104A3C006FEA42426FEA524292B2A3F804240FE0AA
:104A4C00720816F0010F00D00132B3F8041489B2C9
:104A5C00920292B20A43A3F8042401E0012B06D07F
:104A6C00B3B2228961692846FFF79CFE35E7B5F899
:104A7C0050309BB22B44227803EB0213B2B2A3F852
:104A8C000424EDE76378B3BBB5F850309BB22B44EC
:104A9C0003EB0213B3F80424C2F30902A3F80424B1
:104AAC003E2E0FD9710916F01F0F00D10139B3F842
:104ABC00042492B2890289B20A4342F40042A3F858
:104ACC0004241AE04EB9B3F804246FEA42426FEAA8
:104ADC00524292B2A3F804240FE0720816F0010FB0
:104AEC0000D00132B3F8041489B2920292B20A4394
:104AFC00A3F8042401E0012B30D0B3B22289616900
:104B0C002846FFF74FFE636933446361236A2269C9
:104B1C0093422DD99B1B23626378002B45D1B5F8AA
:104B2C0050309BB22B44227803EB0213B3F80C24C5
:104B3C00C2F30902A3F80C243E2E1DD9710916F0FC
:104B4C001F0F00D10139B3F80C2492B2890289B23B
:104B5C000A4342F40042A3F80C2428E0B5F8503084
:104B6C009BB22B4403EB0213B2B2A3F80424C4E7A8
:104B7C00002222621E46CFE74EB9B3F80C246FEA2E
:104B8C0042426FEA524292B2A3F80C240FE0720830
:104B9C0016F0010F00D00132B3F80C1489B2920256
:104BAC0092B20A43A3F80C2401E0012B06D0B3B255
:104BBC00628961692846FFF7F5FD8EE6B5F850303D
:104BCC009BB22B44227803EB0213B2B2A3F80C2451
:104BDC00EDE7217835F8212092B222F4E24222F05E
:104BEC00700242F4004242F0800225F82120B5F810
:104BFC00502092B22A44217802EB01129BB2A2F807
:104C0C000434228961692846FFF7CCFD65E64EB96C
:104C1C00B3F80C246FEA42426FEA524292B2A3F804
:104C2C000C2416E0720816F0010F00D00132B3F814
:104C3C000C1489B2920292B20A43A3F80C2408E035
:104C4C00B5F850309BB22B4403EB0113B2B2A3F86E
:104C5C000C24B3B2628961692846FFF7A3FD3CE6D8
:104C6C00B2BBB5F850309BB22B4403EB0113B3F835
:104C7C000424C2F30902A3F804243E2E0FD97109AF
:104C8C0016F01F0F00D10139B3F8042492B2890237
:104C9C0089B20A4342F40042A3F8042421E04EB93D
:104CAC00B3F804246FEA42426FEA524292B2A3F87C
:104CBC00042416E0720816F0010F00D00132B3F88C
:104CCC00041489B2920292B20A43A3F8042408E0B5
:104CDC00B5F850309BB22B4403EB0113B2B2A3F8DE
:104CEC000424B3B2228961692846FFF75BFDF4E521
:104CFC0000228A611A4679E54AB9B3F80C246FEAA6
:104D0C0042426FEA524292B2A3F80C248DE551084C
:104D1C0012F0010F00D00131B3F80C2492B28902C9
:104D2C0089B20A43A3F80C247FE5CB78022B4DD033
:104D3C00012B40F02F8189692369994240F2E6806A
:104D4C00C91AA161F2B9B5F8502092B22A4421785F
:104D5C0002EB0112B2F80414C1F30901A2F8041415
:104D6C003E2B40F2D780580913F01F0F00D10138A9
:104D7C00B2F8041489B2800280B2014341F40041BC
:104D8C00A2F804146278002A40F0F680B5F850209E
:104D9C0092B22A44217802EB0112B2F80C14C1F33E
:104DAC000901A2F80C143E2B40F2CD80590913F0E6
:104DBC001F0F00D10139B2F80C349BB2890289B2B1
:104DCC000B4343F40043A2F80C342EE5F2B9B0F8CF
:104DDC0050309BB203440A7803EB0213B3F804245B
:104DEC00C2F30902A3F804240A693E2A31D95109F5
:104DFC0012F01F0F00D10139B3F8042492B28902CA
:104E0C0089B20A4342F40042A3F804246378002BCD
:104E1C0051D1B5F850309BB22B44227803EB0213DE
:104E2C00B3F80C24C2F30902A3F80C2422693E2A1D
:104E3C0028D9510912F01F0F00D10139B3F80C24F5
:104E4C0092B2890289B20A4342F40042A3F80C24BC
:104E5C0033E04AB9B3F804246FEA42426FEA524293
:104E6C0092B2A3F80424D1E7510812F0010F00D03C
:104E7C000131B3F8042490B28A0292B20243A3F82F
:104E8C000424C3E74AB9B3F80C246FEA42426FEA30
:104E9C00524292B2A3F80C240FE0510812F0010F09
:104EAC0000D00131B3F80C2490B28A0292B20243C2
:104EBC00A3F80C2401E0012B1DD0E369002B3FF477
:104ECC00B4AC227835F8221044F2400303EA010016
:104EDC008B4302D000287FF4A8AC35F822309BB26B
:104EEC0023F4E04323F0700343F4004343F0C00386
:104EFC0025F8223099E4B5F850309BB22B44227837
:104F0C0003EB0213228AA3F80C24D6E70023A36137
:104F1C000B4617E74BB9B2F804146FEA41416FEA3C
:104F2C00514189B2A2F804142CE7590813F0010F6F
:104F3C0000D00131B2F8040480B2890289B2014375
:104F4C00A2F804141EE74BB9B2F80C346FEA4343D1
:104F5C006FEA53439BB2A2F80C3466E4590813F081
:104F6C00010F00D00131B2F80C3498B28B029BB215
:104F7C000343A2F80C3458E4012A7FF456ACB5F87C
:104F8C00502092B22A44217802EB01129BB2A2F873
:104F9C000C344AE4012059E410B45C0800EB4200E4
:104FAC0000F5806007E030F8042B0A70C2F307228A
:104FBC004A700231013C002CF5D113F0010F01D0E5
:104FCC0003880B7010BC704798B108B50346D0F835
:104FDC00B40210B10020C3F8B40209B1C3F8B01286
:104FEC00012183F89C121A701846FDF799FF0020D6
:104FFC0008BD0220704719B1C0F8B41200207047E8
:10500C000220704708B5FDF7CDFF002008BD08B59C
:10501C00D0F8B4322BB11B68984700B908BD0220F8
:10502C00FCE70220FAE708B5D0F8B4325B68984781
:10503C00002008BD38B5044600F52A75284600F056
:10504C0035F90123C4F89432B4F8AE32C4F898326E
:10505C0094F8A81201F01F03012B0ED0022B11D0D3
:10506C002BB101F080012046FDF7B7FF03E0294684
:10507C00204600F0C9FA002038BD2946204600F031
:10508C00F7FAF8E72946204600F022FBF3E738B59B
:10509C0004460D4691BB1346D0F89422032A03D044
:1050AC00052A24D0084633E0D0F86011D0F86421EA
:1050BC0091420DD9891AC0F860118A4206D98AB278
:1050CC001946204600F036FC284621E092B2F7E75C
:1050DC00D0F8B4321B691BB190F89C22032A04D07F
:1050EC00204600F02FFC284612E09847F8E70021F4
:1050FC00C0F89412FDF771FF284609E0D0F8B432DD
:10510C009B6933B190F89C22032A04D19847002064
:10511C0038BD0220FCE70220FAE738B504460D46FC
:10512C00002953D11346D0F89422022A0CD0042A19
:10513C0000D01AB980212046FDF74FFF94F8A03219
:10514C00012B3ED0284638BD026A416A8A421BD8E0
:10515C00C269B2FBF1F301FB13232BB9914203D8C3
:10516C00D0F898329A421CD3D4F8B432DB681BB115
:10517C0094F89C22032A21D080212046FDF72DFF94
:10518C00204600F0EAFBD9E7521A026292B21946A5
:10519C0000F0B9FB00231A4619462046FDF754FFD0
:1051AC00CCE70022114600F0AEFB0021C4F89812A7
:1051BC000B460A462046FDF747FFBFE720469847B7
:1051CC00DAE7002384F8A0322846BCE7D0F8B432E2
:1051DC005B6933B190F89C22032A04D198470020D4
:1051EC00B1E70220AFE70220ADE770B504464023DB
:1051FC0000221146FDF7DEFE0125C4F85851402669
:10520C00C4F864613346002280212046FDF7D2FEAB
:10521C00A561666284F89C520023C4F894326360E2
:10522C00C4F8A432D4F8B8322BB1D4F8B4325B68D9
:10523C00002120469847002070BD01740020704763
:10524C0090F89C3280F89D32042380F89C32002028
:10525C00704790F89C32042B01D00020704790F8D6
:10526C009D3280F89C32F8E708B590F89C32032BFD
:10527C0001D0002008BDD0F8B432DB69002BF8D087
:10528C009847F6E70346002002E00130C0B2013334
:10529C001A78002AF9D1704708B54B88012B00D039
:1052AC0008BDC0F8A43200F04DFBF9E70B78037091
:1052BC004B7843708B78CA7803EB022343800B79CD
:1052CC004A7903EB022383808B79CA7903EB02239F
:1052DC00C380704710B504468021FDF77EFE002187
:1052EC002046FDF77AFE10BD30B583B005460C465E
:1052FC000023ADF806304A88130A013B062B00F256
:10530C00A480DFE803F004182CA2A2869300D0F846
:10531C00B0321B680DF10601007C9847BDF80620E1
:10532C001AB1E388002B40F09480E388002B00F046
:10533C009A8003B030BD037C43B9D0F8B4329B6A79
:10534C000DF10600984702234370E7E7D0F8B4321A
:10535C00DB6A0DF10600984702234370DEE7D2B2F8
:10536C00052A52D8DFE802F003101D2A3744D0F882
:10537C00B0325B6823B10DF10601007C9847CDE794
:10538C002146FFF7A7FFD4E7D0F8B0329B6823B1D2
:10539C000DF10601007C9847C0E72146FFF79AFF04
:1053AC00C7E7D0F8B032DB6823B10DF10601007C01
:1053BC009847B3E72146FFF78DFFBAE7D0F8B03234
:1053CC001B6923B10DF10601007C9847A6E7214625
:1053DC00FFF780FFADE7D0F8B0325B6923B10DF178
:1053EC000601007C984799E72146FFF773FFA0E779
:1053FC00D0F8B0329B6923B10DF10601007C9847BF
:10540C008CE72146FFF766FF93E72146FFF762FF23
:10541C008FE7037C33B9D0F8B4325B6B0DF1060027
:10542C0098477BE72146FFF755FF82E7037C43B99A
:10543C00D0F8B4321B6B0DF106009847072343706C
:10544C006CE72146FFF746FF73E72146FFF742FF63
:10545C006FE79A4228BF1A46ADF806200146284647
:10546C0000F044FA61E7284600F06CFA61E738B5C1
:10547C0004468B88F3B9CB88E3B94B887F2B19D8BA
:10548C0003F07F0590F89C32032B0CD080F89E52D1
:10549C002946FDF7C9FD204600F054FA35B1022328
:1054AC0084F89C3209E0FFF715FF06E0012384F82D
:1054BC009C3202E02046FFF70DFF38BD38B504469C
:1054CC000D468978284B197001290ED890F89C321A
:1054DC00022B0ED0032B21D02946FFF7FBFE224BCB
:1054EC0019782046FFF79FFD02E02946FFF7F2FEF0
:1054FC0038BD81B14160032380F89C32FFF787FDF2
:10550C00022803D0204600F01DFAF1E72946204678
:10551C00FFF7E0FEECE700F015FAE9E789B1436824
:10552C0099421DD0D9B2FFF77EFD0F4B19786160FF
:10553C002046FFF76CFD02280DD0204600F002FA41
:10554C00D6E7022380F89C324160FFF76CFD2046C1
:10555C0000F0F8F9CCE729462046FFF7BBFEC7E779
:10556C0000F0F0F9C4E700BF483B002008B5CB8839
:10557C00012B0AD190F89C32022B09D9032B09D1AB
:10558C000122011D00F0B2F901E0FFF7A3FE08BDF6
:10559C005BB213B9FFF79EFEF9E70146002341F811
:1055AC00083F012200F0A2F9F1E708B590F89C320F
:1055BC00013B022B12D8CB88022B0CD10123C360E8
:1055CC00D0F8A4320BB10323C360022200F10C010A
:1055DC0000F08CF908BDFFF77DFEFBE7FFF77AFEC4
:1055EC00F8E708B590F89C32013B022B09D84B88A0
:1055FC00012B00D008BD0023C0F8A43200F0A2F9A2
:10560C00F8E7FFF767FEF5E708B50B7803F06003E2
:10561C00202B05D0402B03D043B1FFF75BFE03E0FA
:10562C00D0F8B4329B689847002008BD4B78092B02
:10563C001BD8DFE803F011171A141A08051A0E0B01
:10564C00FFF752FEF0E7FFF712FFEDE7FFF736FF2B
:10565C00EAE7FFF78BFFE7E7FFF7A7FFE4E7FFF7C2
:10566C001BFEE1E7FFF7BDFFDEE7FFF733FEDBE7ED
:10567C0038B505460C460B7803F06003202B06D09A
:10568C00402B04D01BB1FFF725FE002038BD95F848
:10569C009C32013B022B16D82379012B0ED8D5F85E
:1056AC00B4329B68214628469847E388002BECD1FE
:1056BC000028EAD1284600F045F9E6E721462846BD
:1056CC00FFF708FEE1E721462846FFF703FEDCE77B
:1056DC0070B505468B880C7804F06004202C07D03C
:1056EC00DAB2402C04D05CB1FFF7F4FD002405E0E5
:1056FC00D5F8B4329B68284698470024204670BDE4
:10570C00202C09D04E78012E33D0032E0AD0002E37
:10571C0055D0FFF7DFFDF1E7D0F8B4329B6898471E
:10572C000446EBE790F89C32022B04D0032B11D0EB
:10573C00FFF7D0FDE2E70AB1802A03D12846FFF734
:10574C00C9FDDBE71146FDF748FC80212846FDF733
:10575C0044FCD3E74B8823B91AB1802A01D0CB88FB
:10576C001BB1284600F0EEF8C8E71146FDF735FCF2
:10577C00F7E790F89C32022B04D0032B11D0FFF7E3
:10578C00A9FDBBE70AB1802A03D12846FFF7A2FD89
:10579C00B4E71146FDF721FC80212846FDF71DFCDE
:1057AC00ACE74B88002BA9D112F07F0F03D1284610
:1057BC0000F0C8F8A2E71146FDF717FCF7E790F8E0
:1057CC009C02022806D0032829D02846FFF782FD28
:1057DC00344693E70AB1802A13D113F0800F15D108
:1057EC0002F07F0202EB8202910001F5A8712944BC
:1057FC00043100230B600222284600F077F834466F
:10580C007CE72846FFF766FD344677E702F07F0217
:10581C0002EB82029100103129440431E9E75BB2BA
:10582C00002B1FDB02F00F0000EB800005EB80006B
:10583C00D0F8580120B3002B27DB02F07F0303EBD9
:10584C0083039C0004F5A8742C4404340AB1802A08
:10585C0024D10023236002222146284600F046F87A
:10586C0034464BE702F00F0000EB800005EB8000A4
:10587C0080690028DFD12846FFF72CFD34463DE730
:10588C002846FFF727FD344638E702F07F0303EB89
:10589C0083039C0010342C440434D7E7114628466B
:1058AC00FDF7ABFB10B101232360D4E70023236089
:1058BC00D1E7D0B170B50D4616460446FFF7E2FCB1
:1058CC00431C5B009BB233802B7003236B70022351
:1058DC0007E001345A1CD2B2E8540233DBB2002187
:1058EC00A95420780028F4D170BD704708B5134630
:1058FC000222C0F89422C36103620A460021FDF71C
:10590C009BFB002008BD08B513460A460021FDF795
:10591C0093FB002008BD08B513460322C0F894225F
:10592C00C0F85C31C0F860310A460021FDF78CFBF1
:10593C00002008BD08B513460A460021FDF784FB7C
:10594C00002008BD08B50423C0F8943200231A4681
:10595C001946FDF771FB002008BD08B50523C0F8FA
:10596C00943200231A461946FDF76EFB002008BD41
:10597C0010B5D0F8B842D0F8BC325BB194F8000244
:10598C00FF2807D09B6894F8012221469847FF23F3
:10599C0084F80032002010BD432303800048704778
:1059AC00B80000204323038000487047FC0000200F
:1059BC004323038000487047740000200A230380AF
:1059CC00004870477801002038B50446D0F8B8522A
:1059DC00FDF742FBC5F80C02D4F8B8324BB1D4F841
:1059EC00BC32DB6805F50371D5F80402984700203A
:1059FC0038BD0220FCE710B5D0F8B822D0F8C04270
:105A0C00F2B101EB810300EB8303DB694BB101EBDA
:105A1C00810C04EBCC04A46BB3FBF4FC04FB1C3333
:105A2C0023B10023C2F81432002010BD01EB810316
:105A3C0000EB83030022DA611346FDF7FDFAF3E76E
:105A4C000220F2E7F0B583B006460C46D0F8B872E7
:105A5C0000238DF80730ADF804300B7813F0600597
:105A6C0027D0202D53D1CA88DAB113F0800F0CD077
:105A7C00D0F8BC329B68394660789847E288394642
:105A8C003046FFF733FF002544E04B7887F80032AF
:105A9C008B7987F80132CA883946FFF73CFF00251D
:105AAC0038E0D0F8BC329B68002248789847002533
:105ABC0030E04F780A2F14D00B2F20D01FB1FFF7F6
:105ACC0009FC022526E090F89C32032B03D0FFF74B
