:020000040800F2
:10000000E82B002001010008C3180008B110000807
:10001000C1180008F90200088B1B0008000000004E
:10002000000000000000000000000000251B000888
:10003000FB02000800000000CD1A0008271B000882
:100040001B0100081B0100081B0100081B01000820
:100050001B0100081B0100081B0100081B01000810
:100060001B0100081B0100081B0100081B01000800
:100070001B0100081B0100081B0100081B010008F0
:100080001B0100081B0100081B0100081B010008E0
:100090001B0100081B0100081B0100081B010008D0
:1000A0001B0100081B0100081B0100081B010008C0
:1000B0001B0100081B0100081B0100081B010008B0
:1000C0001B0100081B0100081B0100081B010008A0
:1000D0001B0100081B0100081B0100081B01000890
:1000E0001B0100081B0100081B010008DFF80CD0F1
:1000F00000F0F0F800480047CD1B0008E82B002076
:100100000648804706480047FEE7FEE7FEE7FEE7B1
:10011000FEE7FEE7FEE7FEE7FEE7FEE7891B0008D5
:10012000ED000008D2B201E000F8012B491EFBD21D
:1001300070470022F6E710B513460A4604461946F2
:10014000FFF7F0FF204610BD80EA010210B502F073
:100150000043400022D04A001FD0010E01EB126183
:10016000C0F35600C2F3560240F4000042F400020D
:10017000A0FB022000047F39140400D0401C50EA88
:10018000124001D44000491EC2B20C0604EBD0104C
:10019000401C4008802A02D003E0002010BD20F05F
:1001A0000100002900DA0020184310BD30B480EAB5
:1001B000010202F0004530F0004221F0004013D06F
:1001C00090B1C30DD40DC2F31601C0F31600E41AAA
:1001D00041F4000140F400027D34914201D3641CDB
:1001E00000E04900002C02DA30BC002070474FF4D8
:1001F00000000023914201D3891A034340084FEACB
:100200004101F7D151B1914202D14FF0004105E0D7
:1002100002D24FF0010101E06FF0010103EBC45085
:10022000284430BC00F01EB896230022114600F08E
:1002300022B800F0004220F00040C10DC0F31600CB
:1002400040F400007F2901DA00207047962903DC82
:10025000C1F19601C84001E096398840002AF4D0E7
:10026000404270470029A8BF7047401C490008BFA2
:1002700020F00100704710B4B0FA80FC00FA0CF0D6
:1002800050EA010404BF10BC704749B1CCF120040E
:1002900021FA04F411FA0CF118BF0121214308439B
:1002A000A3EB0C01CB1D4FEA00614FEA102042BFC7
:1002B000002010BC704700EBC35010440029A4BFBD
:1002C00010BC7047401C490008BF20F0010010BC62
:1002D00070470000064C074D06E0E06840F001035F
:1002E00094E8070098471034AC42F6D3FFF702FFBA
:1002F0005028000870280008FEE7704772B6FEE735
:1003000070B5044600F004F90546601C02D00448AC
:100310000078044400F0FCF8401BA042FAD370BD02
:10032000000000202DE9F84FDFF8B8910024A9F172
:10033000040B23460F2709F1040AABF1040EC9E0B0
:100340000125A5402A40AA427DD1674ED1F804C0BC
:10035000ACEB0608B44532D014DCBCF1030F3AD044
:1003600009DCBCF1000F2AD0BCF1010F1CD0BCF19C
:10037000020F31D11DE0BCF1110F17D0BCF1120FEB
:100380002AD119E0B8F5881F19D006DCB8F5803FEE
:1003900015D0B8F5801F1FD111E0B8F5001F0ED0A1
:1003A000B8F5041F18D10AE0CB6815E0CB681B1D17
:1003B00012E0CB6808330FE0CB680C330CE08B689D
:1003C0002BB1012B4FF0080303D0456104E0042357
:1003D00002E0056100E00023FF2A01D8064601E0A3
:1003E00000F104064FEA840501D9A5F12005D6F8ED
:1003F000008007FA05FC28EA0C0803FA05F548EA2C
:100400000508C6F800804D68ED0062D5374DAE692D
:1004100046F00106AE61AD6924F0030605F0010562
:100420000095334D06EB050CDCF80850A607360F97
:1004300007FA06F825EA0805DFF8B880404503D139
:100440004FF0000817E044E0DFF8AC80404502D1EF
:100450004FF001080FE0DFF8A480404502D14FF0D3
:10046000020808E0DFF89880404502D14FF0030809
:1004700001E04FF0040808FA06F848EA0508CCF84D
:1004800008804D68D9F80060ED024D4601D516434D
:1004900000E096432E604D68DAF80060AD025546E4
:1004A00001D5164300E096432E604D68DBF80060EE
:1004B000AD035D4601D5164300E096432E604D68BE
:1004C000DEF80060ED03754601D5164300E0964363
:1004D0002E60641C0D682A46E5407FF431AFBDE80C
:1004E000F88F0000080401400000111000100240C5
:1004F0000000014000080140000C014000100140D4
:10050000001401408068084000D0012070470000BE
:1005100001488068704700000000002070B50400AA
:1005200025D094F83D00002520B984F83C502046A1
:1005300000F078FA242084F83D002068016821F05A
:10054000010101602068016841F4004101602068F8
:10055000016821F40041016000F0D0FB4D4A616860
:10056000914201D84C4900E04C49884201D2012017
:1005700070BD4B492368B0FBF1F15E6826F03F0681
:100580000E435E606368934206D94FF496735943F5
:100590004FF47A73B1FBF3F12368491C1E6A26F00D
:1005A0003F06314319626168914210D84900401EEC
:1005B000B0FBF1F2521CC2F30B02042A01D2042058
:1005C00022E0B0FBF1F0401CC0F30B001CE0A2687D
:1005D000F2B301EBC10303EB0116431EB3FBF6F3C9
:1005E0005B1C43F480431B0549D092B301EBC1026D
:1005F00002EB0111401EB0FBF1F0401CC0F30B00F8
:1006000040F4804040F400402168CA694CF6FF7312
:100610009A431043C861D4E9071001432068026877
:1006200022F0C00211430160D4E9030101432068B4
:10063000826848F2FF339A4311438160D4E905018F
:1006400008432168CA6822F0FF021043C86001E035
:100650000EE016E02068016841F0010101602564A8
:10066000202084F83D00256384F83E50002070BDB2
:1006700001EB4106431EB3FBF6F35B1CB3E701201D
:10068000C2E701EB4101401EB0FBF1F0401CC0F39A
:100690000B00B7E7A086010080841E0000093D0022
:1006A00040420F002DE9FF4F83B00025DDE91079AE
:1006B0009A4693460446DDF848800095FFF728FFE8
:1006C000064694F83D0020287CD119230122854953
:1006D0002046009600F002FE0028F5D194F83C0078
:1006E00001286FD0012084F83C0020680168C90708
:1006F00003D1016841F0010101602068016821F423
:1007000000610160222084F83D00402084F83E0012
:1007100025646762A4F82A90608D20857248E062A3
:10072000CDE9008653465A462046049900F0D8FC8D
:1007300000287DD1208DDFF8B491202768B10128F1
:1007400014D00228206801681ED041F48061016045
:100750002068416980690090B6E02068416981693C
:100760000091016841F400710160ADE0206801680A
:1007700021F48061016072B620684169816900914D
:10078000016841F400710AE041F40061016072B651
:100790002068416981690091016821F480610160EC
:1007A00062B691E0032868D801280CD0022843469D
:1007B0004FF000024946204600960FD000F08EFD13
:1007C000B0BB10E08BE032464146204600F02CFEE4
:1007D00070BB20680069616A08706CE000F07EFD03
:1007E00030BB72B634E02068016821F4806101609A
:1007F00072B620680069616A0870606A401C6062B5
:10080000208D401E2085608D401E6085384846F250
:10081000A8110068B0FBF1F0C0EBC00000EB800055
:100820000090401E009008D020684069C04300E05E
:1008300029E040070CD50098F3E744F8305F677370
:10084000A573206940F02000206162B625731AE08C
:100850002068016841F40071016020680069616AE4
:100860000870606A401C6062218D491E2185618D7F
:10087000491E618562B621681BE03246414620462A
:1008800000F0D2FD18B1012007B0BDE8F08F20685C
:100890000069616A0870606A401C6062218D491EAF
:1008A0002185618D491E618521684A69D2435207BD
:1008B0000AD409690170606A401C6062208D401E84
:1008C0002085608D401E6085208D00287FF46AAFF2
:1008D00084F83D7084F83E5084F83C50D4E7022000
:1008E000D2E70000020010000000FFFF040001003A
:1008F0000C0000202DE9FF4F83B09A46DDE91197E7
:1009000093460446DDF84080FFF702FE054694F862
:100910003D0020287FD1192301224049204600951F
:1009200000F0DCFC002876D194F83C00012872D05D
:10093000012084F83C0020680168C90703D10168E0
:1009400041F0010101602068016821F4006101604B
:10095000212084F83D00402084F83E0000262664D3
:10096000C4F82480A4F82A90608D20852C48E06289
:10097000CDE9007553465A462046049900F02EFCF6
:1009800070B930E02A463946204600F085FD58B15E
:10099000206C042804D12068016841F400710160D2
:1009A000012007B0BDE8F08F606A21680078086117
:1009B000606A401C6062218D491E89B22185628D6A
:1009C000521E628522685369DB435B070BD469B111
:1009D00000781061606A401C6062208D401E208596
:1009E000608D401E6085208D0028CBD12A46394677
:1009F000204600F047FC0028CAD154F83D0B01689E
:100A000041F400710160202004F81E09E677667742
:100A10000020C6E7FFE70220C3E700000200100045
:100A20000000FFFF30B585B00021009101910291D7
:100A300003911E4D03681E4C122103221D48AB4238
:100A400016D1A36943F00803A361A369039203F0DD
:100A500008030493C023CDE900316946FFF762FC27
:100A6000E06940F40010E061E06900F4001019E072
:100A7000114DAB4217D1A36943F00803A361A369E9
:100A8000039203F0080304934FF44063CDE900316F
:100A90006946FFF747FCE06940F48000E061E069E7
:100AA00000F48000049005B030BD00000054004008
:100AB00000100240000C01400058004002488168CC
:100AC000027811448160704700000020074810B58B
:100AD000016841F010010160032000F067F80F2069
:100AE00000F006F800F024F8002010BD00200240BD
:100AF00070B50D4D04464FF47A712878B1FBF0F0D3
:100B00000A490968B1FBF0F000F0BEFA48B9102CB0
:100B100007D200222146501E00F028F800206C6009
:100B200070BD012070BD0000000000200C000020FE
:100B30000C4808B5816941F001018161816901F0CA
:100B400001010091C16941F08051C161C06900F0AB
:100B5000805000900448416821F0E06141F000714C
:100B6000416008BD0010024000000140F0B40E4B8F
:100B70001B680C46C3F30223C3F10705042D00D9FB
:100B80000425191D072901D2002300E0DB1E0126E0
:100B900006FA05F1491E214099409E40761E1640F6
:100BA0003143F0BC00F0F2BF0CED00E0064900F06C
:100BB000070208684FF6FF03184040EA0220034A84
:100BC00010430860704700000CED00E00000FA05DB
:100BD0002DE9F0470F46050061D0434E306800F024
:100BE0000700B84209D2306820F00700384330606F
:100BF000306800F00700B84251D128683B4C8107AB
:100C000012D5400703D5606840F4E0606060287842
:100C1000000703D5606840F4605060606068A968B0
:100C200020F0F000084360602878C00728D068688A
:100C3000012810D02168022810D0890700292EDA57
:100C4000616821F0030101436160FFF761FC8046A8
:100C500041F288390DE021688903EFE78901EDE76A
:100C6000FFF756FCA0EB0801494502D90320BDE877
:100C7000F0876068696800F00C00B0EB810FEFD17D
:100C8000306800F00700B8420BD9306820F0070048
:100C900038433060306800F00700B84201D00120CE
:100CA000E5E72878400705D56068E96820F4E0604A
:100CB000084360602878000706D56068296920F439
:100CC000605040EAC100606000F028F86168084A9E
:100CD000C1F30311515CC84006490860064800682A
:100CE000FFF706FF0020C2E700200240001002408C
:100CF000502100080C000020040000200448054991
:100D000000684968044AC1F30221515CC840704739
:100D10000C00002000100240602100080E4A5168BB
:100D20000E4801F00C03042B11D0082B0FD10C48F6
:100D3000C1F38343C903C05C0AD55168084AC1F3B3
:100D40004041921E515C054A5043B0FBF1F07047A0
:100D500004494843704700000010024000127A0026
:100D60004021000800093D002DE9F84F040070D033
:100D70002078C04DC00749D06868C0F381000128C1
:100D800007D06868C0F38100022809D16868C003F1
:100D900006D52868800339D560680028E7D035E09B
:100DA0006068B0F5803F0BD010B1B0F5A02F11D026
:100DB000286820F480302860286820F4802002E031
:100DC000286840F480302860606890B1FFF7A0FB8D
:100DD00006460AE0286840F480202860F0E700BF5B
:100DE000FFF796FB801B642873D828688003F7D52B
:100DF0000CE0FFF78DFB064605E000BFFFF788FB20
:100E0000801B6428F0D828688003F7D420789A4E95
:100E100080074FF001094FF0000839D5686810F0DD
:100E20000C0F07D06868C0F38100022809D16868F8
:100E3000C00306D42868800714D52069012808D18A
:100E400010E02069B0B1C6F80090FFF761FB0746DB
:100E500005E00AE1FFF75CFBC01B0228C4D8286844
:100E60008007F7D52868616920F0F80040EAC100E2
:100E700028600DE0C6F80080FFF74AFB074604E053
:100E8000FFF746FBC01B022823D828688007F7D449
:100E9000207800072CD57948A169D9B1C0F8009015
:100EA000FFF736FB074604E0FFF732FBC01B0228C2
:100EB0000FD8686A8007F7D571484FF4FA51006877
:100EC000B0FBF1F0009000BF0098411E0091FAD2F3
:100ED0000EE080E0C0F80080FFF71AFB074604E050
:100EE000FFF716FBC01B022875D8686A8007F7D485
:100EF0002078400760D5E8690027C00008D4E86979
:100F000040F08050E861E869012700F080500090CF
:100F10005C480168C90513D40168834641F48071B7
:100F20000160FFF7F5FA824606E000BFFFF7F0FA2E
:100F3000A0EB0A0064284ED8DBF80000C005F5D508
:100F4000E06801280AD008B1052813D0286A20F0EB
:100F500001002862286A20F0040002E0286A40F0BC
:100F600001002862E06841F2883B98B1FFF7D0FAAF
:100F700082460BE0286A40F004002862EEE700BFDA
:100F8000FFF7C6FAA0EB0A0159455AD8286A80072C
:100F9000F6D50CE0FFF7BCFA824605E0FFF7B8FA99
:100FA000A0EB0A0159454CD8286A8007F6D41FB136
:100FB000E86920F08050E861E06988B36968C1F3AE
:100FC0008101022944D00228C6F8608004D0FFF7CE
:100FD0009FFA044638E034E0FFF79AFA074604E047
:100FE000FFF796FAC01B02282BD828688001F7D497
:100FF000206AB0F5803F05D16868A16820F4003010
:1010000008436860D4E908010843696821F4741151
:1010100008436860C6F86090FFF77AFA044606E075
:1010200025E000BFFFF774FA001B022809D82868E2
:101030008001F7D51BE000BFFFF76AFA001B02280A
:1010400002D90320BDE8F88F28688001F4D40EE0AF
:101050000128F7D06868226A00F48031914204D1F7
:10106000616A00F47010884201D00120EAE7002094
:10107000E8E70000001002400000424280044242C3
:101080000C0000200070004010B5401EB0F1807FC1
:1010900001D3012010BD4FF0E02460610F216017E3
:1010A00000F074FD0020A06107202061002010BD29
:1010B000FEE701684A69D24352050FD46FF480629B
:1010C0004A61002140F8301F202242738173026977
:1010D00042F0040202610173012070470020704752
:1010E0002DE9F84F0446006889460B9D0168984633
:1010F000174641F4806101602068016841F4807105
:10110000016000954FF0011B0022594620460A9BC2
:1011100000F0E4F84FF4007A40B120680068C005A0
:1011200001D5C4F840A00320BDE8F88F216809F07C
:10113000FE0008612B46284920460A9A00F016F95D
:10114000F0BB20684169806900902A4620460A99D0
:1011500000F0A2F940B1206C04283AD1206801685F
:1011600041F40071016034E0FEB2B8F1010F09D022
:101170002168380A08612A4620460A9900F08CF94D
:101180000028E8D1206806612A4620460A9900F026
:1011900083F90028DFD12068016841F48071016083
:1011A00000950022594620460A9B00F097F8002837
:1011B000B3D1216809F0FF0040F00100086100E0B0
:1011C00007E02B46044920460A9A00F0CFF8002891
:1011D000AAD00120A8E70000020001002DE9F84391
:1011E000044600680D46DDE90897016898461646F2
:1011F00041F4807101604B4600224FF001112046FE
:10120000009700F06BF848B120680068C00502D56F
:101210004FF4007020640320BDE8F883216805F0D6
:10122000FE0008613B464A461549204600F09EF8FC
:1012300088B920684169806900903A46494620464D
:1012400000F02AF948B1206C042804D12068016814
:1012500041F4007101600120DEE7F5B2B8F1010F41
:1012600009D02168300A08613A464946204600F014
:1012700013F90028E7D1206805610020CCE70000C1
:101280000200010070B516460D4604461EE02046D9
:10129000FFF70FFF08B1012070BD681C16D0FFF7E3
:1012A00037F9801BA84200D885B920684069C0433F
:1012B00040070BD5002044F8300F20216173A07344
:1012C000216941F0200121612073E4E72068406931
:1012D000C0434007DBD4002070BD00002DE9F0477B
:1012E000984617460D460446C1F30746DDF82090A0
:1012F0002AE000BFB8F1FF3F26D0FFF709F9A0EBC5
:101300000901414502D8B8F1000F1DD12068012E16
:1013100016D0806925EA00000004000C12D00020DD
:10132000B84211D1002044F8300F20216173A0731E
:10133000216941F02001216120730120BDE8F0877F
:101340004069E7E70120EBE72068012E0AD08069B9
:1013500025EA00000004000C06D00020B842C9D0E5
:101360000020EBE74069F3E70120F7E72DE9F047BC
:10137000984616460D4604464FF000094FF0200AE5
:10138000C1F3074723E020684069C043400515D4F6
:101390002068016841F40071016021686FF4806089
:1013A0004861C4F8309084F83DA084F83E90216CE8
:1013B00041F00401216484F83C9021E0701C06D0C7
:1013C000FFF7A6F8A0EB0800B04203D816B1012F32
:1013D0001FD021E02068012F15D0806925EA000088
:1013E0000004000C18D000BF44F8309F84F80DA012
:1013F00084F80E90216941F02001216184F80C905D
:101400000120BDE8F087406925EA00000004000CD7
:10141000EAD12068406901E02068806925EA00007F
:101420000004000CAFD1ECE72DE9F0410025904617
:101430000E460446202728E04069C043C0060CD46D
:1014400054F8301B6FF01000486144F8105967776A
:10145000A577206A2062257714E0FFF759F8A0EB02
:101460000800B04200D886B920684069C0434006F1
:101470000BD544F8305F6773A573206940F02000F6
:10148000206125730120BDE8F08120684169C943CE
:101490004906D1D40020F6E770B516460D4604463D
:1014A0001EE02046FFF705FE08B1012070BD681C54
:1014B00016D0FFF72DF8801BA84200D885B9206808
:1014C0004069C04300060BD5002044F8300F2021AE
:1014D0006173A073216941F0200121612073E4E769
:1014E00020684069C0430006DBD4002070BD0000C6
:1014F00000B585B00020019003901148816941F04A
:1015000020018161816901F020010491816941F02C
:1015100004018161816901F004010491816941F054
:10152000080181618069694600F00800049080200C
:101530000090012002900348FEF7F4FE05B000BDC4
:1015400000100240000801400D4810B50B49016031
:101550000C49416000214FF480428160C0E90312D0
:1015600041618161C1610162FEF7D8FF002803D0AB
:10157000BDE81040FEF7C2BE10BD000000540040A0
:101580003C00002040420F000D4810B50B4901609F
:101590000C49416000214FF480428160C0E9031290
:1015A00041618161C1610162FEF7B8FF002803D08B
:1015B000BDE81040FEF7A2BE10BD0000005800407C
:1015C0009000002040420F002DE9FF4F524C9A46F8
:1015D000DFF848C1D4E90253934683B06421ACF5E7
:1015E000FA624FF4FA7900BF02EB810652F821004B
:1015F000A6F58056E046C6F8700E0CEB8106A6F5FF
:1016000080565CF82170C6F8707E984200D203467E
:10161000A84200D90546491C4945E5DBC4E9025307
:101620004FF4C8753E4E3F4F06EB850050F8040C52
:10163000A06180213846FEF765FF0128F9D03649C0
:1016400006222431072000F071F833482430017855
:1016500042788907890B41EA022781780F4346F8CF
:101660002570C17802798907890B407941EA022106
:10167000014348F82510A669D4E90201B742A0EB5E
:10168000010014D9FEF7D0FD0090B81BFEF7CCFD89
:101690000099FEF78BFD2449FEF756FDE061FEF749
:1016A000C8FD216A081A206217D5002014E0FEF751
:1016B000BBFD0090F01BFEF7B7FD0099FEF776FD2D
:1016C0001949FEF741FDE061FEF7B3FD216A0844C8
:1016D0002062FF2801DDFF202062039861696D1CF4
:1016E0000160049861784D4501702169CBF80010C4
:1016F00021788AF8001095DB074A521C02F1130189
:10170000501E8DE807000B1F054A0448616800F071
:1017100095FA07B0BDE8F08F10000020B408002053
:10172000E40000200008014000007F43F8B51446A3
:101730000D46064601226946002000F047F80122C6
:101740006946104600F042F822462946304600F02D
:101750003DF8F8BD10B500F047F80122C021022085
:1017600000F09CF801220021032000F097F80122EC
:101770000021042000F092F801220021052000F051
:101780008DF801220021062000F088F801220F21A7
:10179000082000F083F801220321092000F07EF8E0
:1017A000012227210A2000F079F8012224210C20AF
:1017B00000F074F8012224210D2000F06FF80122BE
:1017C0007F21BDE81040102000F068B80EB56423FA
:1017D0008DE80E0002460123AF210248FEF762FFAA
:1017E0000EBD00009000002010B50122402109200C
:1017F00000F054F801224021BDE81040092000F01B
:101800004DB80000FEB50025204E214C2CE0214FA4
:1018100080213846FEF776FE0128F9D01C490622C1
:1018200024310720FFF782FF1949243108784A78CC
:101830008007800B40EA02208A78104346F8250092
:10184000CA780B799207920B497942EA03220A433C
:10185000114941F82520E168884200D2E060A16882
:10186000884200D9A0606D1C60688542CFDB084AC1
:10187000521C02F11301501E8DE807000B1F034A92
:101880000548616800F0DAF9FEBD0000E4000020C0
:101890001000002000080140B408002007B584B003
:1018A00005ABCDE900326421029102460123AE214D
:1018B0000248FFF71FF807B000BD000090000020AD
:1018C000FEE7FEE770B500240021204600F061F835
:1018D0000025002000F0E8F86D1CEDB2802DF8D353
:1018E000641CE4B2082CEFD370BD10B56420FEF781
:1018F00007FDAE2000F0C6F8D52000F0C3F8802028
:1019000000F0C0F8A82000F0BDF83F2000F0BAF8C1
:10191000D32000F0B7F8002000F0B4F8402000F029
:10192000B1F8A12000F0AEF8C82000F0ABF8DA2042
:1019300000F0A8F8122000F0A5F8812000F0A2F82D
:10194000CF2000F09FF8D92000F09CF8F12000F0A3
:1019500099F8DB2000F096F8302000F093F8A420EE
:1019600000F090F8A62000F08DF88D2000F08AF8A5
:10197000142000F087F8AF2000F084F8BDE8104094
:10198000FFF7A0BF0246012000E05043491EFCD2F1
:10199000704710B50C4640F0B00000F073F810200E
:1019A00040EA141000F06EF804F00F00BDE810409B
:1019B00000F068B82DE9F0410746CE004000083E2F
:1019C000801E15464FF0FF38F1B2C0B2FFF7E1FFBD
:1019D0001148002400EB05152819A0F5805090F857
:1019E000000E00F061F8641CE4B2082CF4D308EB9C
:1019F0004700F1B2C0B2FFF7CCFF00242819A0F5D0
:101A0000805090F8080E00F04FF8641CE4B2082CE7
:101A1000F4D3BDE8F0810000682100082DE9F0470B
:101A200000241D461646884681460A2713E0291BD6
:101A30000A20491EFFF7A6FFB6FBF0F0B0FBF7F156
:101A400007FB110208EB0400C1B248463032FFF731
:101A5000B1FF641CE4B2AC42E9D3BDE8F0872DE9E4
:101A6000F04115460E460746002406E03019C1B283
:101A70003846FFF79FFF641CE4B22A5D002AF5D1C7
:101A8000BDE8F08101B584B00121642204A88DE88D
:101A900007000B46002278210248FEF72BFF05B015
:101AA00000BD00003C00002001B584B0012164228B
:101AB00004A88DE807000B46402278210248FEF773
:101AC00019FF05B000BD00003C0000207047000079
:101AD0001FB503AB01AA02A96846FFF775FD9DF883
:101AE0000800012819D19DF80C00012815D1012109
:101AF0000AA20846FFF7B3FF09A201210220FFF75F
:101B0000AEFF032305210120009AFFF787FF03237F
:101B100005210220019AFFF781FF1FBD48523A00BC
:101B2000424F3A007047FEF7C9BF30B58FB0282149
:101B30006846FEF7FEFA14210AA8FEF7FAFA012118
:101B40000804CDE900100024029402250491CDE997
:101B500007504FF4E01009906846FFF705F908B107
:101B600072B6FEE70F20CDE90A054FF48060CDE99B
:101B70000C4002210AA80E94FFF72AF8002801D091
:101B800072B6FEE70FB030BD7047FEE70907090ED9
:101B9000002804DB00F1E02080F80014704700F01A
:101BA0000F0000F1E02080F8141D704702E008C823
:101BB000121F08C1002AFAD170477047002001E0C7
:101BC00001C1121F002AFBD170470000FEF77EFF03
:101BD000FFF7ABFFFFF78CFCFFF7B6FCFFF7D4FC79
:101BE000FFF783FEFFF7B6FD05A201210420FFF7F2
:101BF00036FFFFF707FE00BFFFF76AFFFCE70000B4
:101C00006A696B6C690000002DE9F8418046DDE9E6
:101C10000706009017460C46099D404600F0ECF977
:101C200033463A462146404600F01CFA2068A84256
:101C300000DB28462060BDE8F88100002DE9FF4F59
:101C4000BFB00E4600211C4608464C9D04E03F9A5A
:101C500052F82020401C1144B042F8DBB1FBF6F2F0
:101C60000020E04906E03F9B53F820309B1A41F8E2
:101C70002030401CB042F6DB00204FF4F87C00BF5F
:101C800001EB800251F820305768E3463B44D2E92B
:101C900002723A441A44D31702EB9372921041F83D
:101CA0002020401C5845EBDBCF4A00204FF4F7734F
:101CB00001EB800751F820C07F688946A7EB0C072D
:101CC00042F82070401C9842F2DD002002EB8007B1
:101CD00052F820107F689A46394401EBD1714910BF
:101CE00042F82010401C5045F0DBC04F00209646C3
:101CF00000230146421D08E0A1EB00085EF821C068
:101D000037F81880491C0CFB18339142F4DB40F281
:101D10007A4193FBF1F14EF82010401C7346B0F568
:101D2000F47FE5DD002210464FEA0A0753F8201041
:101D3000002900DC4942401C0A445045F6DD40F2CF
:101D4000EF1392FBF3F0052208218DE80700A64A65
:101D50003DA912A8FFF758FF00223D9B12A8964606
:101D6000022B1ADB012109E000EB810C50F82170F5
:101D70005CF804CC491CA7EB0C073A449942F3DB0E
:101D80005B1E92FBF3F141F2707292FBF1F24D99FE
:101D90000A604E9A0121117005E04D9A9449116034
:101DA0004E9A82F800E000213D9F06E050F8213075
:101DB00024AA9B1C42F82130491CB942F6DB0020C2
:101DC000C8460BE03F9951F8201048F8201041997F
:101DD00051F82020874941F82020401CB042F1DB17
:101DE0000022134628E000BF24A84FF0010950F854
:101DF00023004FF08076411D51451CDCA0F1050CFD
:101E0000BCF1000F17DD401F0FE000BF58F820C0E5
:101E1000B44509DAB9F1000F01D04FF00009664668
:101E20000DF10C0C4CF82300401C8842EEDBB9F19C
:101E3000000F00D1521C5B1CBB42D5DB022A06DA24
:101E40006B48206085F800E043B0BDE8F08FDFF814
:101E5000A4C1002008EB800158F820304E68E1460C
:101E60003344D1E9026131441944CB1701EB93713A
:101E7000891048F820100CEB80035CF820605F6844
:101E80003E44D3E902733B443344DE1703EB9673BD
:101E90009B104CF82030401C5845DBDB00200DF136
:101EA000D40B3E9000234BF82030401C0528F9DB72
:101EB00000204FF4FA7309E003A951F82010994269
:101EC00003DD4B48206000208AE0401C9042F3DB99
:101ED0000023A2F1010A61E003A800EB830650F899
:101EE00023E076684FF07F42A6EB0E0011463B9050
:101EF0000A2852DD7046CC460DE000BF58F820702D
:101F00008F4201DD39463C905CF82070974201DD3C
:101F10003A463390401C8642F0DC59F826C059F806
:101F20002E000290ACEB0000DDF8CCC0ACEB0E074D
:101F300078433B9F90FBF7F7029807EB000C339F29
:101F400059F82770A7EB0C07219758F8260058F886
:101F50002E60DDF8F0C0801BACEB0E0778433B9F92
:101F600090FBF7F03044339E219F58F826604F4392
:101F7000301A5043F911C01100280EDD3E9A052A8F
:101F80000BDA51B101EB8101890091FBF0F23E982F
:101F90004BF820203E98401C3E905B1C53459BDB39
:101FA00058463E9900F094F83E9800EBD0704010EF
:101FB00001280ADD0BEB80025BF8200052F8042CAC
:101FC000104400EBD070401001E05BF82000C11E0F
:101FD000B529BFF476AF05493E31085C2060012089
:101FE000287031E74418002084100020582700088A
:101FF00019FCFFFF142000202DE9F0438146002446
:102000000120DDF81C805E1E0C6026E052F8207076
:10201000474521DD02EB800454F8044CA7421BDD48
:10202000012500E06D1C44199C4203DA52F824C0DB
:102030006745F7D0054452F82550AF420ADD0D68D8
:102040000F2D07DA4FEA850C6D1C0D6049F80C0066
:10205000601C02E0204600E0401CB042D6DBBDE838
:10206000F08300002DE9F0431E4613460C460A6833
:1020700005460146184600F045F84FF0FF38404647
:102080001CE00A46411CC6F10009216013E000BFB4
:1020900055F82170431C19D055F82030FB1AB34273
:1020A00001DC4B4506DA23684FEA830C5B1C236096
:1020B00045F80C70491C9142EADB401C21688142C2
:1020C000DFDC2846BDE8F04300F002B84346E5E710
:1020D00030B5012312E000BF50F823401A4602E059
:1020E00040F82250521E002A05DD00EB820555F80B
:1020F000045CA542F4DC40F822405B1C8B42EBDB25
:1021000030BD0000F0B5012416E000BF51F82450A6
:10211000234602E041F823605B1E002B09DD01EB42
:10212000830650F8257056F8046C50F826C06745B1
:10213000F0DC41F82350641C9442E7DBF0BD01025F
:1021400002030405060708090A0B0C0D0E0F1010F8
:102150000000000000000000010203040607080957
:102160000000000001020304000000000000000065
:102170000000000000000000000000F80000000067
:10218000000000333000000000100C06100C0600A8
:10219000000000000000000040C07840C07840000F
:1021A000043F04043F040400007088FC0830000071
:1021B000001820FF211E0000F008F000E0180000C9
:1021C00000211C031E211E0000F008887000000082
:1021D0001E2123241927211010160E0000000000D4
:1021E0000000000000000000000000E018040200F1
:1021F000000000071820400000020418E000000062
:102200000040201807000000404080F0804040005F
:102210000202010F01020200000000F000000000B5
:102220000101011F01010100000000000000000089
:1022300080B07000000000000000000000000000FE
:102240000001010101010101000000000000000087
:102250000030300000000000000000008060180422
:10226000006018060100000000E010080810E000FF
:10227000000F102020100F00001010F800000000C8
:102280000020203F2020000000700808088870000F
:10229000003028242221300000300888884830008F
:1022A0000018202020110E000000C02010F80000AF
:1022B00000070424243F240000F808888808080048
:1022C0000019212020110E0000E01088881800005D
:1022D000000F112020110E0000380808C83808002F
:1022E0000000003F000000000070880808887000AF
:1022F000001C222121221C0000E010080810E00030
:102300000000312222110F00000000C0C0000000B8
:1023100000000030300000000000008000000000DD
:1023200000008060000000000000804020100800D5
:10233000000102040810200040404040404040009E
:102340000404040404040400000810204080000079
:102350000020100804020100007048080808F0007E
:102360000000003036010000C030C828E810E0004E
:102370000718272423140B000000C038E0000000D9
:10238000203C23020227382008F888888870000043
:10239000203F202020110E00C03008080808380017
:1023A000071820202010080008F808080810E0008E
:1023B000203F202020100F0008F88888E80810002F
:1023C000203F20202320180008F88888E808100003
:1023D000203F200003000000C0300808083800003B
:1023E00007182020221E020008F808000008F8083C
:1023F000203F210101213F20000808F808080000C3
:102400000020203F2020000000000808F8080800F5
:10241000C08080807F00000008F888C0281808006D
:10242000203F20012638200008F8080000000000A6
:10243000203F20202020300008F8F800F8F808009D
:10244000203F003F003F200008F830C00008F80897
:10245000203F200007183F00E01008080810E000A7
:102460000F10202020100F0008F808080808F000BE
:10247000203F210101010000E01008080810E000E1
:102480000F18242438504F0008F888888888700076
:10249000203F2000030C3020007088080808380016
:1024A0000038202121221C00180808F8080818000C
:1024B0000000203F2000000008F808000008F8088D
:1024C000001F202020201F000878880000C838083E
:1024D000000007380E010000F80800F80008F800B6
:1024E000033C0700073C0300081868808068180850
:1024F00020302C03032C30200838C800C8380800CE
:102500000000203F2000000010080808C83808001C
:102510002038262120201800000000FE02020200C0
:102520000000007F40404000000C30C00000000070
:10253000000000010638C00000020202FE00000098
:10254000004040407F00000000000402020204003E
:10255000000000000000000000000000000000007B
:102560008080808080808080000202040000000063
:10257000000000000000000000008080808000005B
:102580000019242222223F2008F800808000000049
:10259000003F112020110E0000000080808000000C
:1025A000000E112020201100000000808088F8001B
:1025B000000E112020103F2000008080808000004D
:1025C000001F222222221300008080F088888818B1
:1025D0000020203F202000000000808080808000BC
:1025E000006B94949493600008F800808080000051
:1025F000203F210000203F2000809898000000002C
:102600000020203F2020000000000080989800005B
:1026100000C08080807F000008F80000808080007B
:10262000203F24022D302000000808F800000000A0
:102630000020203F2020000080808080808080005B
:10264000203F20003F20003F8080008080800000ED
:10265000203F210000203F2000008080808000007B
:10266000001F202020201F008080008080000000AC
:1026700080FFA12020110E000000008080808000DB
:10268000000E112020A0FF808080800080808000CC
:1026900020203F21200001000000808080808000F9
:1026A0000033242424241900008080E0808000006E
:1026B0000000001F202000008080000000808000BB
:1026C000001F202020103F2080808000008080801C
:1026D00000010E30080601008080008000808080AC
:1026E0000F300C030C300F000080800080808000D1
:1026F0000020312E0E3120008080800000808080FC
:1027000080818E70180601000080808080808000AB
:102710000021302C2221300000000000807C0202C9
:1027200000000000003F404000000000FF000000EB
:1027300000000000FF0000000002027C800000009A
:102740000040403F000000000006010102020404B6
:102750000000000000000000290014010002140124
:102760002900000000000000000000000000000040
:102770000000000000000000000000000000000059
:102780000000000000000000000000000000000049
:102790000000000000005F5F5F6060606161616178
:1027A00061626262626263636363636363636464FE
:1027B00064646464646464646464646464646464D9
:1027C00064646363636363636363626262626262DD
:1027D00061616161606060605F5F5F5E5E5E5D5D04
:1027E0005D5C5C5C5B5B5A5A59595958585757564F
:1027F0005655555454535252515150504F4E4E4DC0
:102800004C4C4B4A4A494848474645454443424256
:1028100041403F3E3E3D3C3B3A393838373635340F
:10282000333231302F2E2D2C2B2A292827262524F0
:102830002322211F1E1D1C1B1A19171615141311F4
:10284000100F0E0C0B0A0907060503020100000019
:1028500070280008000000203C000000AC1B0008AD
:10286000AC2800083C000020AC2B0000BC1B00087A
:102870000100000010000000000000000024F4002F
:1028800000000000F401000000000000FFFF030052
:102890000000000000000000000000000000000038
:0C28A0000000000000000000000000002C
:04000005080000ED02
:00000001FF
